{
  "contractName": "Escrow",
  "abi": [
    {
      "inputs": [
        {
          "internalType": "address",
          "name": "_eip20",
          "type": "address"
        },
        {
          "internalType": "address payable",
          "name": "_canceler",
          "type": "address"
        },
        {
          "internalType": "uint256",
          "name": "_duration",
          "type": "uint256"
        },
        {
          "internalType": "address[]",
          "name": "_handlers",
          "type": "address[]"
        }
      ],
      "stateMutability": "nonpayable",
      "type": "constructor"
    },
    {
      "anonymous": false,
      "inputs": [
        {
          "indexed": true,
          "internalType": "uint256",
          "name": "_txId",
          "type": "uint256"
        },
        {
          "indexed": false,
          "internalType": "uint256",
          "name": "_bulkCount",
          "type": "uint256"
        }
      ],
      "name": "BulkTransfer",
      "type": "event"
    },
    {
      "anonymous": false,
      "inputs": [
        {
          "indexed": false,
          "internalType": "string",
          "name": "_url",
          "type": "string"
        },
        {
          "indexed": false,
          "internalType": "string",
          "name": "_hash",
          "type": "string"
        }
      ],
      "name": "IntermediateStorage",
      "type": "event"
    },
    {
      "anonymous": false,
      "inputs": [
        {
          "indexed": false,
          "internalType": "string",
          "name": "manifest",
          "type": "string"
        },
        {
          "indexed": false,
          "internalType": "string",
          "name": "hash",
          "type": "string"
        }
      ],
      "name": "Pending",
      "type": "event"
    },
    {
      "inputs": [
        {
          "internalType": "address",
          "name": "",
          "type": "address"
        }
      ],
      "name": "areTrustedHandlers",
      "outputs": [
        {
          "internalType": "bool",
          "name": "",
          "type": "bool"
        }
      ],
      "stateMutability": "view",
      "type": "function"
    },
    {
      "inputs": [],
      "name": "bulkPaid",
      "outputs": [
        {
          "internalType": "bool",
          "name": "",
          "type": "bool"
        }
      ],
      "stateMutability": "view",
      "type": "function"
    },
    {
      "inputs": [],
      "name": "canceler",
      "outputs": [
        {
          "internalType": "address payable",
          "name": "",
          "type": "address"
        }
      ],
      "stateMutability": "view",
      "type": "function"
    },
    {
      "inputs": [],
      "name": "duration",
      "outputs": [
        {
          "internalType": "uint256",
          "name": "",
          "type": "uint256"
        }
      ],
      "stateMutability": "view",
      "type": "function"
    },
    {
      "inputs": [],
      "name": "eip20",
      "outputs": [
        {
          "internalType": "address",
          "name": "",
          "type": "address"
        }
      ],
      "stateMutability": "view",
      "type": "function"
    },
    {
      "inputs": [
        {
          "internalType": "uint256",
          "name": "",
          "type": "uint256"
        }
      ],
      "name": "finalAmounts",
      "outputs": [
        {
          "internalType": "uint256",
          "name": "",
          "type": "uint256"
        }
      ],
      "stateMutability": "view",
      "type": "function"
    },
    {
      "inputs": [],
      "name": "finalResultsHash",
      "outputs": [
        {
          "internalType": "string",
          "name": "",
          "type": "string"
        }
      ],
      "stateMutability": "view",
      "type": "function"
    },
    {
      "inputs": [],
      "name": "finalResultsUrl",
      "outputs": [
        {
          "internalType": "string",
          "name": "",
          "type": "string"
        }
      ],
      "stateMutability": "view",
      "type": "function"
    },
    {
      "inputs": [],
      "name": "launcher",
      "outputs": [
        {
          "internalType": "address",
          "name": "",
          "type": "address"
        }
      ],
      "stateMutability": "view",
      "type": "function"
    },
    {
      "inputs": [],
      "name": "manifestHash",
      "outputs": [
        {
          "internalType": "string",
          "name": "",
          "type": "string"
        }
      ],
      "stateMutability": "view",
      "type": "function"
    },
    {
      "inputs": [],
      "name": "manifestUrl",
      "outputs": [
        {
          "internalType": "string",
          "name": "",
          "type": "string"
        }
      ],
      "stateMutability": "view",
      "type": "function"
    },
    {
      "inputs": [],
      "name": "recordingOracle",
      "outputs": [
        {
          "internalType": "address",
          "name": "",
          "type": "address"
        }
      ],
      "stateMutability": "view",
      "type": "function"
    },
    {
      "inputs": [],
      "name": "recordingOracleStake",
      "outputs": [
        {
          "internalType": "uint256",
          "name": "",
          "type": "uint256"
        }
      ],
      "stateMutability": "view",
      "type": "function"
    },
    {
      "inputs": [],
      "name": "reputationOracle",
      "outputs": [
        {
          "internalType": "address",
          "name": "",
          "type": "address"
        }
      ],
      "stateMutability": "view",
      "type": "function"
    },
    {
      "inputs": [],
      "name": "reputationOracleStake",
      "outputs": [
        {
          "internalType": "uint256",
          "name": "",
          "type": "uint256"
        }
      ],
      "stateMutability": "view",
      "type": "function"
    },
    {
      "inputs": [],
      "name": "status",
      "outputs": [
        {
          "internalType": "enum Escrow.EscrowStatuses",
          "name": "",
          "type": "uint8"
        }
      ],
      "stateMutability": "view",
      "type": "function"
    },
    {
      "inputs": [],
      "name": "getBalance",
      "outputs": [
        {
          "internalType": "uint256",
          "name": "",
          "type": "uint256"
        }
      ],
      "stateMutability": "view",
      "type": "function"
    },
    {
      "inputs": [
        {
          "internalType": "address[]",
          "name": "_handlers",
          "type": "address[]"
        }
      ],
      "name": "addTrustedHandlers",
      "outputs": [],
      "stateMutability": "nonpayable",
      "type": "function"
    },
    {
      "inputs": [
        {
          "internalType": "address",
          "name": "_reputationOracle",
          "type": "address"
        },
        {
          "internalType": "address",
          "name": "_recordingOracle",
          "type": "address"
        },
        {
          "internalType": "uint256",
          "name": "_reputationOracleStake",
          "type": "uint256"
        },
        {
          "internalType": "uint256",
          "name": "_recordingOracleStake",
          "type": "uint256"
        },
        {
          "internalType": "string",
          "name": "_url",
          "type": "string"
        },
        {
          "internalType": "string",
          "name": "_hash",
          "type": "string"
        }
      ],
      "name": "setup",
      "outputs": [],
      "stateMutability": "nonpayable",
      "type": "function"
    },
    {
      "inputs": [],
      "name": "abort",
      "outputs": [],
      "stateMutability": "nonpayable",
      "type": "function"
    },
    {
      "inputs": [],
      "name": "cancel",
      "outputs": [
        {
          "internalType": "bool",
          "name": "",
          "type": "bool"
        }
      ],
      "stateMutability": "nonpayable",
      "type": "function"
    },
    {
      "inputs": [],
      "name": "complete",
      "outputs": [],
      "stateMutability": "nonpayable",
      "type": "function"
    },
    {
      "inputs": [
        {
          "internalType": "string",
          "name": "_url",
          "type": "string"
        },
        {
          "internalType": "string",
          "name": "_hash",
          "type": "string"
        }
      ],
      "name": "storeResults",
      "outputs": [],
      "stateMutability": "nonpayable",
      "type": "function"
    },
    {
      "inputs": [
        {
          "internalType": "address[]",
          "name": "_recipients",
          "type": "address[]"
        },
        {
          "internalType": "uint256[]",
          "name": "_amounts",
          "type": "uint256[]"
        },
        {
          "internalType": "string",
          "name": "_url",
          "type": "string"
        },
        {
          "internalType": "string",
          "name": "_hash",
          "type": "string"
        },
        {
          "internalType": "uint256",
          "name": "_txId",
          "type": "uint256"
        }
      ],
      "name": "bulkPayOut",
      "outputs": [
        {
          "internalType": "bool",
          "name": "",
          "type": "bool"
        }
      ],
      "stateMutability": "nonpayable",
      "type": "function"
    }
  ],
  "bytecode": "0x60806040523480156200001157600080fd5b50604051620024b8380380620024b8833981810160405260808110156200003757600080fd5b8151602083015160408085015160608601805192519496939591949391820192846401000000008211156200006b57600080fd5b9083019060208201858111156200008157600080fd5b82518660208202830111640100000000821117156200009f57600080fd5b82525081516020918201928201910280838360005b83811015620000ce578181015183820152602001620000b4565b50505050919091016040525050600680546001600160a01b0319166001600160a01b03881617905550506000805460ff191690556200011a824262000192602090811b62001d9417901c565b600b55600280546001600160a01b031990811633908117909255600380546001600160a01b0387169216821790556000908152600e6020526040808220805460ff1990811660019081179092559383529120805490921617905562000188816001600160e01b036200020e16565b50505050620002d7565b6000828201838110156200020757604080517f08c379a000000000000000000000000000000000000000000000000000000000815260206004820152601b60248201527f536166654d6174683a206164646974696f6e206f766572666c6f770000000000604482015290519081900360640190fd5b9392505050565b336000908152600e602052604090205460ff1662000278576040517f08c379a000000000000000000000000000000000000000000000000000000000815260040180806020018281038252602b8152602001806200248d602b913960400191505060405180910390fd5b60005b8151811015620002d3576001600e60008484815181106200029857fe5b6020908102919091018101516001600160a01b03168252810191909152604001600020805460ff19169115159190911790556001016200027b565b5050565b6121a680620002e76000396000f3fe608060405234801561001057600080fd5b50600436106101585760003560e01c80639753e432116100c3578063cc06cfa91161007c578063cc06cfa9146106ab578063d65281f0146106b3578063ea8a1af0146106d0578063f17171e9146106d8578063f926657e146106fe578063fad844c11461084c57610158565b80639753e432146103a7578063992d454d146103af5780639c48b102146103b75780639eb262f3146103bf578063b63d1a0014610460578063bb19d62f146106a357610158565b8063200d2ed211610115578063200d2ed214610230578063337f3f321461025c57806335a063b41461026457806343aba9c21461026e578063522e117714610276578063697e4b871461027e57610158565b80630529198f1461015d5780630f46c9aa146101775780630fb5a6b4146101f457806312065fe0146101fc57806316eebd1e14610204578063196214d314610228575b600080fd5b610165610854565b60408051918252519081900360200190f35b61017f61085a565b6040805160208082528351818301528351919283929083019185019080838360005b838110156101b95781810151838201526020016101a1565b50505050905090810190601f1680156101e65780820380516001836020036101000a031916815260200191505b509250505060405180910390f35b6101656108e8565b6101656108ee565b61020c61096b565b604080516001600160a01b039092168252519081900360200190f35b61020c61097a565b610238610989565b6040518082600581111561024857fe5b60ff16815260200191505060405180910390f35b61017f610992565b61026c6109ed565b005b61017f610b30565b61026c610b8b565b61026c6004803603604081101561029457600080fd5b810190602081018135600160201b8111156102ae57600080fd5b8201836020820111156102c057600080fd5b803590602001918460018302840111600160201b831117156102e157600080fd5b91908080601f0160208091040260200160405190810160405280939291908181526020018383808284376000920191909152509295949360208101935035915050600160201b81111561033357600080fd5b82018360208201111561034557600080fd5b803590602001918460018302840111600160201b8311171561036657600080fd5b91908080601f016020809104026020016040519081016040528093929190818152602001838380828437600092019190915250929550610cc6945050505050565b61020c610ecf565b61020c610ede565b61017f610eed565b61026c600480360360208110156103d557600080fd5b810190602081018135600160201b8111156103ef57600080fd5b82018360208201111561040157600080fd5b803590602001918460208302840111600160201b8311171561042257600080fd5b919080806020026020016040519081016040528093929190818152602001838360200280828437600092019190915250929550610f48945050505050565b61068f600480360360a081101561047657600080fd5b810190602081018135600160201b81111561049057600080fd5b8201836020820111156104a257600080fd5b803590602001918460208302840111600160201b831117156104c357600080fd5b9190808060200260200160405190810160405280939291908181526020018383602002808284376000920191909152509295949360208101935035915050600160201b81111561051257600080fd5b82018360208201111561052457600080fd5b803590602001918460208302840111600160201b8311171561054557600080fd5b9190808060200260200160405190810160405280939291908181526020018383602002808284376000920191909152509295949360208101935035915050600160201b81111561059457600080fd5b8201836020820111156105a657600080fd5b803590602001918460018302840111600160201b831117156105c757600080fd5b91908080601f0160208091040260200160405190810160405280939291908181526020018383808284376000920191909152509295949360208101935035915050600160201b81111561061957600080fd5b82018360208201111561062b57600080fd5b803590602001918460018302840111600160201b8311171561064c57600080fd5b91908080601f0160208091040260200160405190810160405280939291908181526020018383808284376000920191909152509295505091359250610ff2915050565b604080519115158252519081900360200190f35b61016561160b565b61068f611611565b610165600480360360208110156106c957600080fd5b503561161a565b61068f611638565b61068f600480360360208110156106ee57600080fd5b50356001600160a01b0316611861565b61026c600480360360c081101561071457600080fd5b6001600160a01b03823581169260208101359091169160408201359160608101359181019060a081016080820135600160201b81111561075357600080fd5b82018360208201111561076557600080fd5b803590602001918460018302840111600160201b8311171561078657600080fd5b91908080601f0160208091040260200160405190810160405280939291908181526020018383808284376000920191909152509295949360208101935035915050600160201b8111156107d857600080fd5b8201836020820111156107ea57600080fd5b803590602001918460018302840111600160201b8311171561080b57600080fd5b91908080601f016020809104026020016040519081016040528093929190818152602001838380828437600092019190915250929550611876945050505050565b61020c611c55565b60055481565b600a805460408051602060026001851615610100026000190190941693909304601f810184900484028201840190925281815292918301828280156108e05780601f106108b5576101008083540402835291602001916108e0565b820191906000526020600020905b8154815290600101906020018083116108c357829003601f168201915b505050505081565b600b5481565b600654604080516370a0823160e01b815230600482015290516000926001600160a01b0316916370a08231916024808301926020929190829003018186803b15801561093957600080fd5b505afa15801561094d573d6000803e3d6000fd5b505050506040513d602081101561096357600080fd5b505190505b90565b6002546001600160a01b031681565b6006546001600160a01b031681565b60005460ff1681565b6008805460408051602060026001851615610100026000190190941693909304601f810184900484028201840190925281815292918301828280156108e05780601f106108b5576101008083540402835291602001916108e0565b336000908152600e602052604090205460ff16610a3f576040805162461bcd60e51b815260206004820152601b6024820152600080516020612151833981519152604482015290519081900360640190fd5b600460005460ff166005811115610a5257fe5b1415610aa5576040805162461bcd60e51b815260206004820152601f60248201527f457363726f7720696e20436f6d706c6574652073746174757320737461746500604482015290519081900360640190fd5b600360005460ff166005811115610ab857fe5b1415610b0b576040805162461bcd60e51b815260206004820152601b60248201527f457363726f7720696e2050616964207374617475732073746174650000000000604482015290519081900360640190fd5b610b136108ee565b15610b2257610b20611638565b505b6003546001600160a01b0316ff5b6009805460408051602060026001851615610100026000190190941693909304601f810184900484028201840190925281815292918301828280156108e05780601f106108b5576101008083540402835291602001916108e0565b42600b5411610bd4576040805162461bcd60e51b815260206004820152601060248201526f10dbdb9d1c9858dd08195e1c1a5c995960821b604482015290519081900360640190fd5b60005461010090046001600160a01b0316331480610c015750336000908152600e602052604090205460ff165b610c52576040805162461bcd60e51b815260206004820152601e60248201527f416464726573732063616c6c696e67206973206e6f7420747275737465640000604482015290519081900360640190fd5b600360005460ff166005811115610c6557fe5b14610cb7576040805162461bcd60e51b815260206004820152601860248201527f457363726f77206e6f7420696e20506169642073746174650000000000000000604482015290519081900360640190fd5b6000805460ff19166004179055565b336000908152600e602052604090205460ff16610d18576040805162461bcd60e51b815260206004820152601b6024820152600080516020612151833981519152604482015290519081900360640190fd5b42600b5411610d61576040805162461bcd60e51b815260206004820152601060248201526f10dbdb9d1c9858dd08195e1c1a5c995960821b604482015290519081900360640190fd5b600160005460ff166005811115610d7457fe5b1480610d905750600260005460ff166005811115610d8e57fe5b145b610dcb5760405162461bcd60e51b815260040180806020018281038252602d81526020018061208a602d913960400191505060405180910390fd5b7fb20e0717219840fd5684a80bec782e8babb56ea224f677561b791a61192605c18282604051808060200180602001838103835285818151815260200191508051906020019080838360005b83811015610e2f578181015183820152602001610e17565b50505050905090810190601f168015610e5c5780820380516001836020036101000a031916815260200191505b50838103825284518152845160209182019186019080838360005b83811015610e8f578181015183820152602001610e77565b50505050905090810190601f168015610ebc5780820380516001836020036101000a031916815260200191505b5094505050505060405180910390a15050565b6001546001600160a01b031681565b6003546001600160a01b031681565b6007805460408051602060026001851615610100026000190190941693909304601f810184900484028201840190925281815292918301828280156108e05780601f106108b5576101008083540402835291602001916108e0565b336000908152600e602052604090205460ff16610f965760405162461bcd60e51b815260040180806020018281038252602b8152602001806120da602b913960400191505060405180910390fd5b60005b8151811015610fee576001600e6000848481518110610fb457fe5b6020908102919091018101516001600160a01b03168252810191909152604001600020805460ff1916911515919091179055600101610f99565b5050565b336000908152600e602052604081205460ff16611044576040805162461bcd60e51b815260206004820152601b6024820152600080516020612151833981519152604482015290519081900360640190fd5b61104c6108ee565b61109d576040805162461bcd60e51b815260206004820152601b60248201527f454950323020636f6e7472616374206f7574206f662066756e64730000000000604482015290519081900360640190fd5b6000805460ff1660058111156110af57fe5b1415611102576040805162461bcd60e51b815260206004820152601f60248201527f457363726f7720696e204c61756e636865642073746174757320737461746500604482015290519081900360640190fd5b600360005460ff16600581111561111557fe5b1415611168576040805162461bcd60e51b815260206004820152601b60248201527f457363726f7720696e2050616964207374617475732073746174650000000000604482015290519081900360640190fd5b42600b54116111b1576040805162461bcd60e51b815260206004820152601060248201526f10dbdb9d1c9858dd08195e1c1a5c995960821b604482015290519081900360640190fd5b84518651146111f15760405162461bcd60e51b815260040180806020018281038252602b815260200180612105602b913960400191505060405180910390fd5b855160641161123d576040805162461bcd60e51b8152602060048201526013602482015272546f6f206d616e7920726563697069656e747360681b604482015290519081900360640190fd5b60006112476108ee565b600d805460ff1916905590506000805b87518110156112855787818151811061126c57fe5b6020026020010151820191508080600101915050611257565b506b033b2e3c9fd0803ce800000081106112dc576040805162461bcd60e51b8152602060048201526013602482015272084ead8d640ecc2d8eaca40e8dede40d0d2ced606b1b604482015290519081900360640190fd5b808210156112f3575050600d5460ff169050611602565b6000855160001415806113065750865115155b905080156113375786516113219060099060208a0190611fd0565b50855161133590600a906020890190611fd0565b505b6000806113438a611c69565b60065491935091506001600160a01b031660005b8c5181101561141e57816001600160a01b031663a9059cbb8e838151811061137b57fe5b6020026020010151600c848154811061139057fe5b90600052602060002001546040518363ffffffff1660e01b815260040180836001600160a01b03166001600160a01b0316815260200182815260200192505050602060405180830381600087803b1580156113ea57600080fd5b505af11580156113fe573d6000803e3d6000fd5b505050506040513d602081101561141457600080fd5b5050600101611357565b5061142b600c600061204e565b600080546040805163a9059cbb60e01b81526001600160a01b03610100909304831660048201526024810187905290519184169263a9059cbb926044808401936020939083900390910190829087803b15801561148757600080fd5b505af115801561149b573d6000803e3d6000fd5b505050506040513d60208110156114b157600080fd5b5051801561153d57506001546040805163a9059cbb60e01b81526001600160a01b0392831660048201526024810185905290519183169163a9059cbb916044808201926020929091908290030181600087803b15801561151057600080fd5b505af1158015611524573d6000803e3d6000fd5b505050506040513d602081101561153a57600080fd5b50515b600d805460ff19169115159190911790556115566108ee565b600d5490965060ff16156115bc57600160005460ff16600581111561157757fe5b141561158b576000805460ff191660021790555b851580156115a95750600260005460ff1660058111156115a757fe5b145b156115bc576000805460ff191660031790555b8b51604080519182525189917f8ed71c3a6fb899bfe96968ade5a4119b380c0d642a775106eb80aa795450777e919081900360200190a25050600d5460ff169450505050505b95945050505050565b60045481565b600d5460ff1681565b600c818154811061162757fe5b600091825260209091200154905081565b336000908152600e602052604081205460ff1661168a576040805162461bcd60e51b815260206004820152601b6024820152600080516020612151833981519152604482015290519081900360640190fd5b6116926108ee565b6116e3576040805162461bcd60e51b815260206004820152601b60248201527f454950323020636f6e7472616374206f7574206f662066756e64730000000000604482015290519081900360640190fd5b600460005460ff1660058111156116f657fe5b1415611749576040805162461bcd60e51b815260206004820152601f60248201527f457363726f7720696e20436f6d706c6574652073746174757320737461746500604482015290519081900360640190fd5b600360005460ff16600581111561175c57fe5b14156117af576040805162461bcd60e51b815260206004820152601b60248201527f457363726f7720696e2050616964207374617475732073746174650000000000604482015290519081900360640190fd5b6006546003546000916001600160a01b039081169163a9059cbb91166117d36108ee565b6040518363ffffffff1660e01b815260040180836001600160a01b03166001600160a01b0316815260200182815260200192505050602060405180830381600087803b15801561182257600080fd5b505af1158015611836573d6000803e3d6000fd5b505050506040513d602081101561184c57600080fd5b50516000805460ff1916600517905592915050565b600e6020526000908152604090205460ff1681565b336000908152600e602052604090205460ff166118c8576040805162461bcd60e51b815260206004820152601b6024820152600080516020612151833981519152604482015290519081900360640190fd5b42600b5411611911576040805162461bcd60e51b815260206004820152601060248201526f10dbdb9d1c9858dd08195e1c1a5c995960821b604482015290519081900360640190fd5b6001600160a01b03861661196c576040805162461bcd60e51b815260206004820181905260248201527f496e76616c6964206f72206d697373696e6720746f6b656e207370656e646572604482015290519081900360640190fd5b6001600160a01b0385166119c7576040805162461bcd60e51b815260206004820181905260248201527f496e76616c6964206f72206d697373696e6720746f6b656e207370656e646572604482015290519081900360640190fd5b60006119d9858563ffffffff611d9416565b90506064811115611a27576040805162461bcd60e51b81526020600482015260136024820152725374616b65206f7574206f6620626f756e647360681b604482015290519081900360640190fd5b6000805460ff166005811115611a3957fe5b14611a755760405162461bcd60e51b81526004018080602001828103825260238152602001806120b76023913960400191505060405180910390fd5b60008054610100600160a81b0319166101006001600160a01b038a8116820292909217808455600180546001600160a01b0319168b851617815591900482168352600e60209081526040808520805460ff199081168517909155835490941685529093208054909216179055600486905560058590558351611afd9160079190860190611fd0565b508151611b11906008906020850190611fd0565b506000805460ff191660019081179091556040805181815260078054600294811615610100026000190116939093049181018290527f8ec464ac0c8e44e17130cd1ffb09967fa6f2c33339289678a59ea0112cfc2aa992916008919081906020820190606083019086908015611bc85780601f10611b9d57610100808354040283529160200191611bc8565b820191906000526020600020905b815481529060010190602001808311611bab57829003601f168201915b5050838103825284546002600019610100600184161502019091160480825260209091019085908015611c3c5780601f10611c1157610100808354040283529160200191611c3c565b820191906000526020600020905b815481529060010190602001808311611c1f57829003601f168201915b505094505050505060405180910390a150505050505050565b60005461010090046001600160a01b031681565b6000808080805b8551811015611d89576000611cb46064611ca8898581518110611c8f57fe5b6020026020010151600454611df790919063ffffffff16565b9063ffffffff611e5016565b90506000611ce56064611ca88a8681518110611ccc57fe5b6020026020010151600554611df790919063ffffffff16565b90506000611d1f82611d13858c8881518110611cfd57fe5b6020026020010151611e9290919063ffffffff16565b9063ffffffff611e9216565b9050611d31868463ffffffff611d9416565b9550611d43858363ffffffff611d9416565b600c8054600181810183556000929092527fdf6966c971051c3d54ec59162606531493a51404a002842f56009d7e5cf4a8c701929092559450929092019150611c709050565b509092509050915091565b600082820183811015611dee576040805162461bcd60e51b815260206004820152601b60248201527f536166654d6174683a206164646974696f6e206f766572666c6f770000000000604482015290519081900360640190fd5b90505b92915050565b600082611e0657506000611df1565b82820282848281611e1357fe5b0414611dee5760405162461bcd60e51b81526004018080602001828103825260218152602001806121306021913960400191505060405180910390fd5b6000611dee83836040518060400160405280601a81526020017f536166654d6174683a206469766973696f6e206279207a65726f000000000000815250611ed4565b6000611dee83836040518060400160405280601e81526020017f536166654d6174683a207375627472616374696f6e206f766572666c6f770000815250611f76565b60008183611f605760405162461bcd60e51b81526004018080602001828103825283818151815260200191508051906020019080838360005b83811015611f25578181015183820152602001611f0d565b50505050905090810190601f168015611f525780820380516001836020036101000a031916815260200191505b509250505060405180910390fd5b506000838581611f6c57fe5b0495945050505050565b60008184841115611fc85760405162461bcd60e51b8152602060048201818152835160248401528351909283926044909101919085019080838360008315611f25578181015183820152602001611f0d565b505050900390565b828054600181600116156101000203166002900490600052602060002090601f016020900481019282601f1061201157805160ff191683800117855561203e565b8280016001018555821561203e579182015b8281111561203e578251825591602001919060010190612023565b5061204a92915061206f565b5090565b508054600082559060005260206000209081019061206c919061206f565b50565b61096891905b8082111561204a576000815560010161207556fe457363726f77206e6f7420696e2050656e64696e67206f72205061727469616c20737461747573207374617465457363726f77206e6f7420696e204c61756e6368656420737461747573207374617465416464726573732063616c6c696e672063616e6e6f742061646420747275737465642068616e646c657273416d6f756e74206f6620726563697069656e747320616e642076616c75657320646f6e2774206d61746368536166654d6174683a206d756c7469706c69636174696f6e206f766572666c6f77416464726573732063616c6c696e67206e6f7420747275737465640000000000a264697066735822122074a02da046873a925ee15ab7c8508b2c18a941349d2d39bd633ca65f4ef8142c64736f6c63430006020033416464726573732063616c6c696e672063616e6e6f742061646420747275737465642068616e646c657273",
  "source": "pragma solidity 0.6.2;\n\nimport \"./HMTokenInterface.sol\";\nimport \"./SafeMath.sol\";\n\n\ncontract Escrow {\n    using SafeMath for uint256;\n    event IntermediateStorage(string _url, string _hash);\n    event Pending(string manifest, string hash);\n    event BulkTransfer(uint256 indexed _txId, uint256 _bulkCount);\n    \n    enum EscrowStatuses {Launched, Pending, Partial, Paid, Complete, Cancelled}\n    EscrowStatuses public status;\n\n    address public reputationOracle;\n    address public recordingOracle;\n    address public launcher;\n    address payable public canceler;\n\n    uint256 public reputationOracleStake;\n    uint256 public recordingOracleStake;\n    uint256 private constant BULK_MAX_VALUE = 1000000000 * (10 ** 18);\n    uint32  private constant BULK_MAX_COUNT = 100;\n\n    address public eip20;\n\n    string public manifestUrl;\n    string public manifestHash;\n\n    string public finalResultsUrl;\n    string public finalResultsHash;\n\n    uint256 public duration;\n\n    uint256[] public finalAmounts;\n    bool public bulkPaid;\n\n    mapping(address => bool) public areTrustedHandlers;\n\n    constructor(\n        address _eip20,\n        address payable _canceler,\n        uint256 _duration,\n        address[] memory _handlers\n    ) public {\n        eip20 = _eip20;\n        status = EscrowStatuses.Launched;\n        duration = _duration.add(block.timestamp); // solhint-disable-line not-rely-on-time\n        launcher = msg.sender;\n        canceler = _canceler;\n        areTrustedHandlers[_canceler] = true;\n        areTrustedHandlers[msg.sender] = true;\n        addTrustedHandlers(_handlers);\n    }\n\n    function getBalance() public view returns (uint256) {\n        return HMTokenInterface(eip20).balanceOf(address(this));\n    }\n\n    function addTrustedHandlers(address[] memory _handlers) public {\n        require(areTrustedHandlers[msg.sender], \"Address calling cannot add trusted handlers\");\n        for (uint256 i = 0; i < _handlers.length; i++) {\n            areTrustedHandlers[_handlers[i]] = true;\n        }\n    }\n\n    // The escrower puts the Token in the contract without an agentless\n    // and assigsn a reputation oracle to payout the bounty of size of the\n    // amount specified\n    function setup(\n        address _reputationOracle,\n        address _recordingOracle,\n        uint256 _reputationOracleStake,\n        uint256 _recordingOracleStake,\n        string memory _url,\n        string memory _hash\n    ) public trusted notExpired\n    {\n        require(\n            _reputationOracle != address(0),\n            \"Invalid or missing token spender\"\n        );\n        require(\n            _recordingOracle != address(0),\n            \"Invalid or missing token spender\"\n        );\n        uint256 totalStake = _reputationOracleStake.add(_recordingOracleStake);\n        require(\n            totalStake >= 0 && totalStake <= 100,\n            \"Stake out of bounds\"\n        );\n        require(\n            status == EscrowStatuses.Launched,\n            \"Escrow not in Launched status state\"\n        );\n\n        reputationOracle = _reputationOracle;\n        recordingOracle = _recordingOracle;\n        areTrustedHandlers[reputationOracle] = true;\n        areTrustedHandlers[recordingOracle] = true;\n\n        reputationOracleStake = _reputationOracleStake;\n        recordingOracleStake = _recordingOracleStake;\n\n        manifestUrl = _url;\n        manifestHash = _hash;\n        status = EscrowStatuses.Pending;\n        emit Pending(manifestUrl, manifestHash);\n    }\n\n    function abort() trusted notComplete notPaid public {\n        if (getBalance() != 0) {\n            cancel();\n        }\n        selfdestruct(canceler);\n    }\n\n    function cancel() public trusted notBroke notComplete notPaid returns (bool) {\n        bool success = HMTokenInterface(eip20).transfer(canceler, getBalance());\n        status = EscrowStatuses.Cancelled;\n        return success;\n    }\n\n    function complete() public notExpired {\n        require(\n            msg.sender == reputationOracle || areTrustedHandlers[msg.sender],\n            \"Address calling is not trusted\"\n        );\n        require (status == EscrowStatuses.Paid, \"Escrow not in Paid state\");\n        status = EscrowStatuses.Complete;\n    }\n\n    function storeResults(string memory _url, string memory _hash) public trusted notExpired {\n        require(\n            status == EscrowStatuses.Pending ||\n                status == EscrowStatuses.Partial,\n            \"Escrow not in Pending or Partial status state\"\n        );\n        emit IntermediateStorage(_url, _hash);\n    }\n\n    function bulkPayOut(\n        address[] memory _recipients,\n        uint256[] memory _amounts,\n        string memory _url,\n        string memory _hash,\n        uint256 _txId\n    ) public trusted notBroke notLaunched notPaid notExpired returns (bool)\n    {\n        require(_recipients.length == _amounts.length, \"Amount of recipients and values don't match\");\n        require(_recipients.length < BULK_MAX_COUNT, \"Too many recipients\");\n\n        uint256 balance = getBalance();\n        bulkPaid = false;\n        uint256 aggregatedBulkAmount = 0;\n        for (uint256 i; i < _amounts.length; i++) {\n            aggregatedBulkAmount += _amounts[i];\n        }\n        require(aggregatedBulkAmount < BULK_MAX_VALUE, \"Bulk value too high\");\n\n        if (balance < aggregatedBulkAmount) {\n            return bulkPaid;\n        }\n\n        bool writeOnchain = bytes(_hash).length != 0 || bytes(_url).length != 0;\n        if (writeOnchain) {\n            // Be sure they are both zero if one of them is\n            finalResultsUrl = _url;\n            finalResultsHash = _hash;\n        }\n\n        (uint256 reputationOracleFee, uint256 recordingOracleFee) = finalizePayouts(_amounts);\n        HMTokenInterface token = HMTokenInterface(eip20);\n\n\n        for (uint i = 0; i < _recipients.length; ++i) {\n            token.transfer(_recipients[i], finalAmounts[i]);\n        }\n\n        delete finalAmounts;\n        bulkPaid = token.transfer(reputationOracle, reputationOracleFee) && token.transfer(recordingOracle, recordingOracleFee);\n\n        balance = getBalance();\n        if (bulkPaid) {\n            if (status == EscrowStatuses.Pending) {\n                status = EscrowStatuses.Partial;\n            }\n            if (balance == 0 && status == EscrowStatuses.Partial) {\n                status = EscrowStatuses.Paid;\n            }\n        }\n        emit BulkTransfer(_txId, _recipients.length);\n        return bulkPaid;\n    }\n\n    function finalizePayouts(uint256[] memory _amounts) internal returns (uint256, uint256) {\n        uint256 reputationOracleFee = 0;\n        uint256 recordingOracleFee = 0;\n        for (uint256 j; j < _amounts.length; j++) {\n            uint256 singleReputationOracleFee = reputationOracleStake\n                .mul(_amounts[j])\n                .div(100);\n            uint256 singleRecordingOracleFee = recordingOracleStake\n                .mul(_amounts[j])\n                .div(100);\n            uint256 amount = _amounts[j].sub(singleReputationOracleFee).sub(\n                singleRecordingOracleFee\n            );\n            reputationOracleFee = reputationOracleFee.add(\n                singleReputationOracleFee\n            );\n            recordingOracleFee = recordingOracleFee.add(\n                singleRecordingOracleFee\n            );\n            finalAmounts.push(amount);\n        }\n        return (reputationOracleFee, recordingOracleFee);\n    }\n\n    modifier trusted() {\n        require(areTrustedHandlers[msg.sender], \"Address calling not trusted\");\n        _;\n    }\n\n    modifier notBroke() {\n        require(getBalance() != 0, \"EIP20 contract out of funds\");\n        _;\n    }\n\n    modifier notComplete() {\n        require(\n            status != EscrowStatuses.Complete,\n            \"Escrow in Complete status state\"\n        );\n        _;\n    }\n\n    modifier notPaid() {\n        require(status != EscrowStatuses.Paid, \"Escrow in Paid status state\");\n        _;\n    }\n\n    modifier notLaunched() {\n        require(\n            status != EscrowStatuses.Launched,\n            \"Escrow in Launched status state\"\n        );\n        _;\n    }\n\n    modifier notExpired() {\n        require(duration > block.timestamp, \"Contract expired\"); // solhint-disable-line not-rely-on-time\n        _;\n    }\n}\n",
  "sourcePath": "/home/adrian/source/hmt-escrow/contracts/Escrow.sol",
  "compiler": {
    "name": "solc",
    "version": "0.6.2+commit.bacdbe57.Emscripten.clang"
  },
  "schemaVersion": "3.4.10",
  "updatedAt": "2022-10-25T15:06:40.987Z",
  "devdoc": {
    "methods": {}
  },
  "userdoc": {
    "methods": {}
  }
}