{
  "contractName": "EscrowFactory",
  "abi": [
    {
      "inputs": [
        {
          "internalType": "address",
          "name": "_eip20",
          "type": "address"
        }
      ],
      "stateMutability": "nonpayable",
      "type": "constructor"
    },
    {
      "anonymous": false,
      "inputs": [
        {
          "indexed": false,
          "internalType": "address",
          "name": "eip20",
          "type": "address"
        },
        {
          "indexed": false,
          "internalType": "address",
          "name": "escrow",
          "type": "address"
        }
      ],
      "name": "Launched",
      "type": "event"
    },
    {
      "inputs": [],
      "name": "counter",
      "outputs": [
        {
          "internalType": "uint256",
          "name": "",
          "type": "uint256"
        }
      ],
      "stateMutability": "view",
      "type": "function",
      "constant": true
    },
    {
      "inputs": [],
      "name": "eip20",
      "outputs": [
        {
          "internalType": "address",
          "name": "",
          "type": "address"
        }
      ],
      "stateMutability": "view",
      "type": "function",
      "constant": true
    },
    {
      "inputs": [
        {
          "internalType": "address",
          "name": "",
          "type": "address"
        }
      ],
      "name": "escrowCounters",
      "outputs": [
        {
          "internalType": "uint256",
          "name": "",
          "type": "uint256"
        }
      ],
      "stateMutability": "view",
      "type": "function",
      "constant": true
    },
    {
      "inputs": [],
      "name": "lastEscrow",
      "outputs": [
        {
          "internalType": "address",
          "name": "",
          "type": "address"
        }
      ],
      "stateMutability": "view",
      "type": "function",
      "constant": true
    },
    {
      "inputs": [
        {
          "internalType": "address[]",
          "name": "trustedHandlers",
          "type": "address[]"
        }
      ],
      "name": "createEscrow",
      "outputs": [
        {
          "internalType": "address",
          "name": "",
          "type": "address"
        }
      ],
      "stateMutability": "nonpayable",
      "type": "function"
    },
    {
      "inputs": [
        {
          "internalType": "address",
          "name": "_child",
          "type": "address"
        }
      ],
      "name": "isChild",
      "outputs": [
        {
          "internalType": "bool",
          "name": "",
          "type": "bool"
        }
      ],
      "stateMutability": "view",
      "type": "function",
      "constant": true
    },
    {
      "inputs": [
        {
          "internalType": "address",
          "name": "_address",
          "type": "address"
        }
      ],
      "name": "hasEscrow",
      "outputs": [
        {
          "internalType": "bool",
          "name": "",
          "type": "bool"
        }
      ],
      "stateMutability": "view",
      "type": "function",
      "constant": true
    }
  ],
  "bytecode": "0x608060405234801561001057600080fd5b5060405161291f38038061291f8339818101604052602081101561003357600080fd5b5051600380546001600160a01b0319166001600160a01b039092169190911790556128bc806100636000396000f3fe608060405234801561001057600080fd5b506004361061007d5760003560e01c806361bc221a1161005b57806361bc221a146100e8578063979530e614610102578063f406294a14610128578063fc91a897146101cb5761007d565b8063196214d3146100825780633cc3e58d146100a657806358d276f7146100ae575b600080fd5b61008a6101f1565b604080516001600160a01b039092168252519081900360200190f35b61008a610200565b6100d4600480360360208110156100c457600080fd5b50356001600160a01b031661020f565b604080519115158252519081900360200190f35b6100f061022c565b60408051918252519081900360200190f35b6100f06004803603602081101561011857600080fd5b50356001600160a01b0316610232565b61008a6004803603602081101561013e57600080fd5b81019060208101813564010000000081111561015957600080fd5b82018360208201111561016b57600080fd5b8035906020019184602083028401116401000000008311171561018d57600080fd5b919080806020026020016040519081016040528093929190818152602001838360200280828437600092019190915250929550610244945050505050565b6100d4600480360360208110156101e157600080fd5b50356001600160a01b03166103a1565b6003546001600160a01b031681565b6002546001600160a01b031681565b6001600160a01b0316600090815260016020526040902054151590565b60005481565b60016020526000908152604090205481565b600080600360009054906101000a90046001600160a01b0316336283d6008560405161026f906103c1565b80856001600160a01b03166001600160a01b03168152602001846001600160a01b03166001600160a01b0316815260200183815260200180602001828103825283818151815260200191508051906020019060200280838360005b838110156102e25781810151838201526020016102ca565b5050505090500195505050505050604051809103906000f08015801561030c573d6000803e3d6000fd5b506000805460019081018083556001600160a01b03808516808552602093845260409485902092909255600280546001600160a01b031916909217918290556003548451908216815291169181019190915281519293507fdb50a9e15b4eabbc5e97186ae158f84d5f78e14d0495e4cf35386b4bed4e5a7e929081900390910190a150506002546001600160a01b0316919050565b600080546001600160a01b03929092168152600160205260409020541490565b6124b8806103cf8339019056fe60806040523480156200001157600080fd5b50604051620024b8380380620024b8833981810160405260808110156200003757600080fd5b8151602083015160408085015160608601805192519496939591949391820192846401000000008211156200006b57600080fd5b9083019060208201858111156200008157600080fd5b82518660208202830111640100000000821117156200009f57600080fd5b82525081516020918201928201910280838360005b83811015620000ce578181015183820152602001620000b4565b50505050919091016040525050600680546001600160a01b0319166001600160a01b03881617905550506000805460ff191690556200011a824262000192602090811b62001d9417901c565b600b55600280546001600160a01b031990811633908117909255600380546001600160a01b0387169216821790556000908152600e6020526040808220805460ff1990811660019081179092559383529120805490921617905562000188816001600160e01b036200020e16565b50505050620002d7565b6000828201838110156200020757604080517f08c379a000000000000000000000000000000000000000000000000000000000815260206004820152601b60248201527f536166654d6174683a206164646974696f6e206f766572666c6f770000000000604482015290519081900360640190fd5b9392505050565b336000908152600e602052604090205460ff1662000278576040517f08c379a000000000000000000000000000000000000000000000000000000000815260040180806020018281038252602b8152602001806200248d602b913960400191505060405180910390fd5b60005b8151811015620002d3576001600e60008484815181106200029857fe5b6020908102919091018101516001600160a01b03168252810191909152604001600020805460ff19169115159190911790556001016200027b565b5050565b6121a680620002e76000396000f3fe608060405234801561001057600080fd5b50600436106101585760003560e01c80639753e432116100c3578063cc06cfa91161007c578063cc06cfa9146106ab578063d65281f0146106b3578063ea8a1af0146106d0578063f17171e9146106d8578063f926657e146106fe578063fad844c11461084c57610158565b80639753e432146103a7578063992d454d146103af5780639c48b102146103b75780639eb262f3146103bf578063b63d1a0014610460578063bb19d62f146106a357610158565b8063200d2ed211610115578063200d2ed214610230578063337f3f321461025c57806335a063b41461026457806343aba9c21461026e578063522e117714610276578063697e4b871461027e57610158565b80630529198f1461015d5780630f46c9aa146101775780630fb5a6b4146101f457806312065fe0146101fc57806316eebd1e14610204578063196214d314610228575b600080fd5b610165610854565b60408051918252519081900360200190f35b61017f61085a565b6040805160208082528351818301528351919283929083019185019080838360005b838110156101b95781810151838201526020016101a1565b50505050905090810190601f1680156101e65780820380516001836020036101000a031916815260200191505b509250505060405180910390f35b6101656108e8565b6101656108ee565b61020c61096b565b604080516001600160a01b039092168252519081900360200190f35b61020c61097a565b610238610989565b6040518082600581111561024857fe5b60ff16815260200191505060405180910390f35b61017f610992565b61026c6109ed565b005b61017f610b30565b61026c610b8b565b61026c6004803603604081101561029457600080fd5b810190602081018135600160201b8111156102ae57600080fd5b8201836020820111156102c057600080fd5b803590602001918460018302840111600160201b831117156102e157600080fd5b91908080601f0160208091040260200160405190810160405280939291908181526020018383808284376000920191909152509295949360208101935035915050600160201b81111561033357600080fd5b82018360208201111561034557600080fd5b803590602001918460018302840111600160201b8311171561036657600080fd5b91908080601f016020809104026020016040519081016040528093929190818152602001838380828437600092019190915250929550610cc6945050505050565b61020c610ecf565b61020c610ede565b61017f610eed565b61026c600480360360208110156103d557600080fd5b810190602081018135600160201b8111156103ef57600080fd5b82018360208201111561040157600080fd5b803590602001918460208302840111600160201b8311171561042257600080fd5b919080806020026020016040519081016040528093929190818152602001838360200280828437600092019190915250929550610f48945050505050565b61068f600480360360a081101561047657600080fd5b810190602081018135600160201b81111561049057600080fd5b8201836020820111156104a257600080fd5b803590602001918460208302840111600160201b831117156104c357600080fd5b9190808060200260200160405190810160405280939291908181526020018383602002808284376000920191909152509295949360208101935035915050600160201b81111561051257600080fd5b82018360208201111561052457600080fd5b803590602001918460208302840111600160201b8311171561054557600080fd5b9190808060200260200160405190810160405280939291908181526020018383602002808284376000920191909152509295949360208101935035915050600160201b81111561059457600080fd5b8201836020820111156105a657600080fd5b803590602001918460018302840111600160201b831117156105c757600080fd5b91908080601f0160208091040260200160405190810160405280939291908181526020018383808284376000920191909152509295949360208101935035915050600160201b81111561061957600080fd5b82018360208201111561062b57600080fd5b803590602001918460018302840111600160201b8311171561064c57600080fd5b91908080601f0160208091040260200160405190810160405280939291908181526020018383808284376000920191909152509295505091359250610ff2915050565b604080519115158252519081900360200190f35b61016561160b565b61068f611611565b610165600480360360208110156106c957600080fd5b503561161a565b61068f611638565b61068f600480360360208110156106ee57600080fd5b50356001600160a01b0316611861565b61026c600480360360c081101561071457600080fd5b6001600160a01b03823581169260208101359091169160408201359160608101359181019060a081016080820135600160201b81111561075357600080fd5b82018360208201111561076557600080fd5b803590602001918460018302840111600160201b8311171561078657600080fd5b91908080601f0160208091040260200160405190810160405280939291908181526020018383808284376000920191909152509295949360208101935035915050600160201b8111156107d857600080fd5b8201836020820111156107ea57600080fd5b803590602001918460018302840111600160201b8311171561080b57600080fd5b91908080601f016020809104026020016040519081016040528093929190818152602001838380828437600092019190915250929550611876945050505050565b61020c611c55565b60055481565b600a805460408051602060026001851615610100026000190190941693909304601f810184900484028201840190925281815292918301828280156108e05780601f106108b5576101008083540402835291602001916108e0565b820191906000526020600020905b8154815290600101906020018083116108c357829003601f168201915b505050505081565b600b5481565b600654604080516370a0823160e01b815230600482015290516000926001600160a01b0316916370a08231916024808301926020929190829003018186803b15801561093957600080fd5b505afa15801561094d573d6000803e3d6000fd5b505050506040513d602081101561096357600080fd5b505190505b90565b6002546001600160a01b031681565b6006546001600160a01b031681565b60005460ff1681565b6008805460408051602060026001851615610100026000190190941693909304601f810184900484028201840190925281815292918301828280156108e05780601f106108b5576101008083540402835291602001916108e0565b336000908152600e602052604090205460ff16610a3f576040805162461bcd60e51b815260206004820152601b6024820152600080516020612151833981519152604482015290519081900360640190fd5b600460005460ff166005811115610a5257fe5b1415610aa5576040805162461bcd60e51b815260206004820152601f60248201527f457363726f7720696e20436f6d706c6574652073746174757320737461746500604482015290519081900360640190fd5b600360005460ff166005811115610ab857fe5b1415610b0b576040805162461bcd60e51b815260206004820152601b60248201527f457363726f7720696e2050616964207374617475732073746174650000000000604482015290519081900360640190fd5b610b136108ee565b15610b2257610b20611638565b505b6003546001600160a01b0316ff5b6009805460408051602060026001851615610100026000190190941693909304601f810184900484028201840190925281815292918301828280156108e05780601f106108b5576101008083540402835291602001916108e0565b42600b5411610bd4576040805162461bcd60e51b815260206004820152601060248201526f10dbdb9d1c9858dd08195e1c1a5c995960821b604482015290519081900360640190fd5b60005461010090046001600160a01b0316331480610c015750336000908152600e602052604090205460ff165b610c52576040805162461bcd60e51b815260206004820152601e60248201527f416464726573732063616c6c696e67206973206e6f7420747275737465640000604482015290519081900360640190fd5b600360005460ff166005811115610c6557fe5b14610cb7576040805162461bcd60e51b815260206004820152601860248201527f457363726f77206e6f7420696e20506169642073746174650000000000000000604482015290519081900360640190fd5b6000805460ff19166004179055565b336000908152600e602052604090205460ff16610d18576040805162461bcd60e51b815260206004820152601b6024820152600080516020612151833981519152604482015290519081900360640190fd5b42600b5411610d61576040805162461bcd60e51b815260206004820152601060248201526f10dbdb9d1c9858dd08195e1c1a5c995960821b604482015290519081900360640190fd5b600160005460ff166005811115610d7457fe5b1480610d905750600260005460ff166005811115610d8e57fe5b145b610dcb5760405162461bcd60e51b815260040180806020018281038252602d81526020018061208a602d913960400191505060405180910390fd5b7fb20e0717219840fd5684a80bec782e8babb56ea224f677561b791a61192605c18282604051808060200180602001838103835285818151815260200191508051906020019080838360005b83811015610e2f578181015183820152602001610e17565b50505050905090810190601f168015610e5c5780820380516001836020036101000a031916815260200191505b50838103825284518152845160209182019186019080838360005b83811015610e8f578181015183820152602001610e77565b50505050905090810190601f168015610ebc5780820380516001836020036101000a031916815260200191505b5094505050505060405180910390a15050565b6001546001600160a01b031681565b6003546001600160a01b031681565b6007805460408051602060026001851615610100026000190190941693909304601f810184900484028201840190925281815292918301828280156108e05780601f106108b5576101008083540402835291602001916108e0565b336000908152600e602052604090205460ff16610f965760405162461bcd60e51b815260040180806020018281038252602b8152602001806120da602b913960400191505060405180910390fd5b60005b8151811015610fee576001600e6000848481518110610fb457fe5b6020908102919091018101516001600160a01b03168252810191909152604001600020805460ff1916911515919091179055600101610f99565b5050565b336000908152600e602052604081205460ff16611044576040805162461bcd60e51b815260206004820152601b6024820152600080516020612151833981519152604482015290519081900360640190fd5b61104c6108ee565b61109d576040805162461bcd60e51b815260206004820152601b60248201527f454950323020636f6e7472616374206f7574206f662066756e64730000000000604482015290519081900360640190fd5b6000805460ff1660058111156110af57fe5b1415611102576040805162461bcd60e51b815260206004820152601f60248201527f457363726f7720696e204c61756e636865642073746174757320737461746500604482015290519081900360640190fd5b600360005460ff16600581111561111557fe5b1415611168576040805162461bcd60e51b815260206004820152601b60248201527f457363726f7720696e2050616964207374617475732073746174650000000000604482015290519081900360640190fd5b42600b54116111b1576040805162461bcd60e51b815260206004820152601060248201526f10dbdb9d1c9858dd08195e1c1a5c995960821b604482015290519081900360640190fd5b84518651146111f15760405162461bcd60e51b815260040180806020018281038252602b815260200180612105602b913960400191505060405180910390fd5b855160641161123d576040805162461bcd60e51b8152602060048201526013602482015272546f6f206d616e7920726563697069656e747360681b604482015290519081900360640190fd5b60006112476108ee565b600d805460ff1916905590506000805b87518110156112855787818151811061126c57fe5b6020026020010151820191508080600101915050611257565b506b033b2e3c9fd0803ce800000081106112dc576040805162461bcd60e51b8152602060048201526013602482015272084ead8d640ecc2d8eaca40e8dede40d0d2ced606b1b604482015290519081900360640190fd5b808210156112f3575050600d5460ff169050611602565b6000855160001415806113065750865115155b905080156113375786516113219060099060208a0190611fd0565b50855161133590600a906020890190611fd0565b505b6000806113438a611c69565b60065491935091506001600160a01b031660005b8c5181101561141e57816001600160a01b031663a9059cbb8e838151811061137b57fe5b6020026020010151600c848154811061139057fe5b90600052602060002001546040518363ffffffff1660e01b815260040180836001600160a01b03166001600160a01b0316815260200182815260200192505050602060405180830381600087803b1580156113ea57600080fd5b505af11580156113fe573d6000803e3d6000fd5b505050506040513d602081101561141457600080fd5b5050600101611357565b5061142b600c600061204e565b600080546040805163a9059cbb60e01b81526001600160a01b03610100909304831660048201526024810187905290519184169263a9059cbb926044808401936020939083900390910190829087803b15801561148757600080fd5b505af115801561149b573d6000803e3d6000fd5b505050506040513d60208110156114b157600080fd5b5051801561153d57506001546040805163a9059cbb60e01b81526001600160a01b0392831660048201526024810185905290519183169163a9059cbb916044808201926020929091908290030181600087803b15801561151057600080fd5b505af1158015611524573d6000803e3d6000fd5b505050506040513d602081101561153a57600080fd5b50515b600d805460ff19169115159190911790556115566108ee565b600d5490965060ff16156115bc57600160005460ff16600581111561157757fe5b141561158b576000805460ff191660021790555b851580156115a95750600260005460ff1660058111156115a757fe5b145b156115bc576000805460ff191660031790555b8b51604080519182525189917f8ed71c3a6fb899bfe96968ade5a4119b380c0d642a775106eb80aa795450777e919081900360200190a25050600d5460ff169450505050505b95945050505050565b60045481565b600d5460ff1681565b600c818154811061162757fe5b600091825260209091200154905081565b336000908152600e602052604081205460ff1661168a576040805162461bcd60e51b815260206004820152601b6024820152600080516020612151833981519152604482015290519081900360640190fd5b6116926108ee565b6116e3576040805162461bcd60e51b815260206004820152601b60248201527f454950323020636f6e7472616374206f7574206f662066756e64730000000000604482015290519081900360640190fd5b600460005460ff1660058111156116f657fe5b1415611749576040805162461bcd60e51b815260206004820152601f60248201527f457363726f7720696e20436f6d706c6574652073746174757320737461746500604482015290519081900360640190fd5b600360005460ff16600581111561175c57fe5b14156117af576040805162461bcd60e51b815260206004820152601b60248201527f457363726f7720696e2050616964207374617475732073746174650000000000604482015290519081900360640190fd5b6006546003546000916001600160a01b039081169163a9059cbb91166117d36108ee565b6040518363ffffffff1660e01b815260040180836001600160a01b03166001600160a01b0316815260200182815260200192505050602060405180830381600087803b15801561182257600080fd5b505af1158015611836573d6000803e3d6000fd5b505050506040513d602081101561184c57600080fd5b50516000805460ff1916600517905592915050565b600e6020526000908152604090205460ff1681565b336000908152600e602052604090205460ff166118c8576040805162461bcd60e51b815260206004820152601b6024820152600080516020612151833981519152604482015290519081900360640190fd5b42600b5411611911576040805162461bcd60e51b815260206004820152601060248201526f10dbdb9d1c9858dd08195e1c1a5c995960821b604482015290519081900360640190fd5b6001600160a01b03861661196c576040805162461bcd60e51b815260206004820181905260248201527f496e76616c6964206f72206d697373696e6720746f6b656e207370656e646572604482015290519081900360640190fd5b6001600160a01b0385166119c7576040805162461bcd60e51b815260206004820181905260248201527f496e76616c6964206f72206d697373696e6720746f6b656e207370656e646572604482015290519081900360640190fd5b60006119d9858563ffffffff611d9416565b90506064811115611a27576040805162461bcd60e51b81526020600482015260136024820152725374616b65206f7574206f6620626f756e647360681b604482015290519081900360640190fd5b6000805460ff166005811115611a3957fe5b14611a755760405162461bcd60e51b81526004018080602001828103825260238152602001806120b76023913960400191505060405180910390fd5b60008054610100600160a81b0319166101006001600160a01b038a8116820292909217808455600180546001600160a01b0319168b851617815591900482168352600e60209081526040808520805460ff199081168517909155835490941685529093208054909216179055600486905560058590558351611afd9160079190860190611fd0565b508151611b11906008906020850190611fd0565b506000805460ff191660019081179091556040805181815260078054600294811615610100026000190116939093049181018290527f8ec464ac0c8e44e17130cd1ffb09967fa6f2c33339289678a59ea0112cfc2aa992916008919081906020820190606083019086908015611bc85780601f10611b9d57610100808354040283529160200191611bc8565b820191906000526020600020905b815481529060010190602001808311611bab57829003601f168201915b5050838103825284546002600019610100600184161502019091160480825260209091019085908015611c3c5780601f10611c1157610100808354040283529160200191611c3c565b820191906000526020600020905b815481529060010190602001808311611c1f57829003601f168201915b505094505050505060405180910390a150505050505050565b60005461010090046001600160a01b031681565b6000808080805b8551811015611d89576000611cb46064611ca8898581518110611c8f57fe5b6020026020010151600454611df790919063ffffffff16565b9063ffffffff611e5016565b90506000611ce56064611ca88a8681518110611ccc57fe5b6020026020010151600554611df790919063ffffffff16565b90506000611d1f82611d13858c8881518110611cfd57fe5b6020026020010151611e9290919063ffffffff16565b9063ffffffff611e9216565b9050611d31868463ffffffff611d9416565b9550611d43858363ffffffff611d9416565b600c8054600181810183556000929092527fdf6966c971051c3d54ec59162606531493a51404a002842f56009d7e5cf4a8c701929092559450929092019150611c709050565b509092509050915091565b600082820183811015611dee576040805162461bcd60e51b815260206004820152601b60248201527f536166654d6174683a206164646974696f6e206f766572666c6f770000000000604482015290519081900360640190fd5b90505b92915050565b600082611e0657506000611df1565b82820282848281611e1357fe5b0414611dee5760405162461bcd60e51b81526004018080602001828103825260218152602001806121306021913960400191505060405180910390fd5b6000611dee83836040518060400160405280601a81526020017f536166654d6174683a206469766973696f6e206279207a65726f000000000000815250611ed4565b6000611dee83836040518060400160405280601e81526020017f536166654d6174683a207375627472616374696f6e206f766572666c6f770000815250611f76565b60008183611f605760405162461bcd60e51b81526004018080602001828103825283818151815260200191508051906020019080838360005b83811015611f25578181015183820152602001611f0d565b50505050905090810190601f168015611f525780820380516001836020036101000a031916815260200191505b509250505060405180910390fd5b506000838581611f6c57fe5b0495945050505050565b60008184841115611fc85760405162461bcd60e51b8152602060048201818152835160248401528351909283926044909101919085019080838360008315611f25578181015183820152602001611f0d565b505050900390565b828054600181600116156101000203166002900490600052602060002090601f016020900481019282601f1061201157805160ff191683800117855561203e565b8280016001018555821561203e579182015b8281111561203e578251825591602001919060010190612023565b5061204a92915061206f565b5090565b508054600082559060005260206000209081019061206c919061206f565b50565b61096891905b8082111561204a576000815560010161207556fe457363726f77206e6f7420696e2050656e64696e67206f72205061727469616c20737461747573207374617465457363726f77206e6f7420696e204c61756e6368656420737461747573207374617465416464726573732063616c6c696e672063616e6e6f742061646420747275737465642068616e646c657273416d6f756e74206f6620726563697069656e747320616e642076616c75657320646f6e2774206d61746368536166654d6174683a206d756c7469706c69636174696f6e206f766572666c6f77416464726573732063616c6c696e67206e6f7420747275737465640000000000a264697066735822122074a02da046873a925ee15ab7c8508b2c18a941349d2d39bd633ca65f4ef8142c64736f6c63430006020033416464726573732063616c6c696e672063616e6e6f742061646420747275737465642068616e646c657273a26469706673582212204b3f15eac9809edc012f2af105886692676ff894798c52b563f8844542c77baf64736f6c63430006020033",
  "source": "pragma solidity 0.6.2;\nimport \"./Escrow.sol\";\n\n\ncontract EscrowFactory {\n    // all Escrows will have this duration.\n    uint256 constant STANDARD_DURATION = 8640000;\n\n    uint256 public counter;\n    mapping(address => uint256) public escrowCounters;\n    address public lastEscrow;\n    address public eip20;\n    event Launched(address eip20, address escrow);\n\n    constructor(address _eip20) public {\n        eip20 = _eip20;\n    }\n\n    function createEscrow(address[] memory trustedHandlers) public returns (address) {\n        Escrow escrow = new Escrow(eip20, msg.sender, STANDARD_DURATION, trustedHandlers);\n        counter++;\n        escrowCounters[address(escrow)] = counter;\n        lastEscrow = address(escrow);\n        emit Launched(eip20, lastEscrow);\n        return lastEscrow;\n    }\n\n    function isChild(address _child) public view returns (bool) {\n        return escrowCounters[_child] == counter;\n    }\n\n    function hasEscrow(address _address) public view returns (bool) {\n        return escrowCounters[_address] != 0;\n    }\n}\n",
  "sourcePath": "/home/adrian/source/hmt-escrow/contracts/EscrowFactory.sol",
  "compiler": {
    "name": "solc",
    "version": "0.6.2+commit.bacdbe57.Emscripten.clang"
  },
  "schemaVersion": "3.4.10",
  "updatedAt": "2022-10-31T13:16:23.287Z",
  "networkType": "ethereum",
  "devdoc": {
    "methods": {}
  },
  "userdoc": {
    "methods": {}
  }
}