{
  "contractName": "HMToken",
  "abi": [
    {
      "inputs": [
        {
          "internalType": "uint256",
          "name": "_totalSupply",
          "type": "uint256"
        },
        {
          "internalType": "string",
          "name": "_name",
          "type": "string"
        },
        {
          "internalType": "uint8",
          "name": "_decimals",
          "type": "uint8"
        },
        {
          "internalType": "string",
          "name": "_symbol",
          "type": "string"
        }
      ],
      "stateMutability": "nonpayable",
      "type": "constructor"
    },
    {
      "anonymous": false,
      "inputs": [
        {
          "indexed": true,
          "internalType": "address",
          "name": "_owner",
          "type": "address"
        },
        {
          "indexed": true,
          "internalType": "address",
          "name": "_spender",
          "type": "address"
        },
        {
          "indexed": false,
          "internalType": "uint256",
          "name": "_value",
          "type": "uint256"
        }
      ],
      "name": "Approval",
      "type": "event"
    },
    {
      "anonymous": false,
      "inputs": [
        {
          "indexed": true,
          "internalType": "uint256",
          "name": "_txId",
          "type": "uint256"
        },
        {
          "indexed": false,
          "internalType": "uint256",
          "name": "_bulkCount",
          "type": "uint256"
        }
      ],
      "name": "BulkApproval",
      "type": "event"
    },
    {
      "anonymous": false,
      "inputs": [
        {
          "indexed": true,
          "internalType": "uint256",
          "name": "_txId",
          "type": "uint256"
        },
        {
          "indexed": false,
          "internalType": "uint256",
          "name": "_bulkCount",
          "type": "uint256"
        }
      ],
      "name": "BulkTransfer",
      "type": "event"
    },
    {
      "anonymous": false,
      "inputs": [
        {
          "indexed": true,
          "internalType": "address",
          "name": "previousOwner",
          "type": "address"
        },
        {
          "indexed": true,
          "internalType": "address",
          "name": "newOwner",
          "type": "address"
        }
      ],
      "name": "OwnershipTransferred",
      "type": "event"
    },
    {
      "anonymous": false,
      "inputs": [
        {
          "indexed": true,
          "internalType": "address",
          "name": "_from",
          "type": "address"
        },
        {
          "indexed": true,
          "internalType": "address",
          "name": "_to",
          "type": "address"
        },
        {
          "indexed": false,
          "internalType": "uint256",
          "name": "_value",
          "type": "uint256"
        }
      ],
      "name": "Transfer",
      "type": "event"
    },
    {
      "inputs": [],
      "name": "decimals",
      "outputs": [
        {
          "internalType": "uint8",
          "name": "",
          "type": "uint8"
        }
      ],
      "stateMutability": "view",
      "type": "function",
      "constant": true
    },
    {
      "inputs": [],
      "name": "name",
      "outputs": [
        {
          "internalType": "string",
          "name": "",
          "type": "string"
        }
      ],
      "stateMutability": "view",
      "type": "function",
      "constant": true
    },
    {
      "inputs": [],
      "name": "owner",
      "outputs": [
        {
          "internalType": "address",
          "name": "",
          "type": "address"
        }
      ],
      "stateMutability": "view",
      "type": "function",
      "constant": true
    },
    {
      "inputs": [],
      "name": "renounceOwnership",
      "outputs": [],
      "stateMutability": "nonpayable",
      "type": "function"
    },
    {
      "inputs": [],
      "name": "symbol",
      "outputs": [
        {
          "internalType": "string",
          "name": "",
          "type": "string"
        }
      ],
      "stateMutability": "view",
      "type": "function",
      "constant": true
    },
    {
      "inputs": [],
      "name": "totalSupply",
      "outputs": [
        {
          "internalType": "uint256",
          "name": "",
          "type": "uint256"
        }
      ],
      "stateMutability": "view",
      "type": "function",
      "constant": true
    },
    {
      "inputs": [
        {
          "internalType": "address",
          "name": "newOwner",
          "type": "address"
        }
      ],
      "name": "transferOwnership",
      "outputs": [],
      "stateMutability": "nonpayable",
      "type": "function"
    },
    {
      "inputs": [
        {
          "internalType": "address",
          "name": "_to",
          "type": "address"
        },
        {
          "internalType": "uint256",
          "name": "_value",
          "type": "uint256"
        }
      ],
      "name": "transfer",
      "outputs": [
        {
          "internalType": "bool",
          "name": "success",
          "type": "bool"
        }
      ],
      "stateMutability": "nonpayable",
      "type": "function"
    },
    {
      "inputs": [
        {
          "internalType": "address",
          "name": "_spender",
          "type": "address"
        },
        {
          "internalType": "address",
          "name": "_to",
          "type": "address"
        },
        {
          "internalType": "uint256",
          "name": "_value",
          "type": "uint256"
        }
      ],
      "name": "transferFrom",
      "outputs": [
        {
          "internalType": "bool",
          "name": "success",
          "type": "bool"
        }
      ],
      "stateMutability": "nonpayable",
      "type": "function"
    },
    {
      "inputs": [
        {
          "internalType": "address",
          "name": "_owner",
          "type": "address"
        }
      ],
      "name": "balanceOf",
      "outputs": [
        {
          "internalType": "uint256",
          "name": "balance",
          "type": "uint256"
        }
      ],
      "stateMutability": "view",
      "type": "function",
      "constant": true
    },
    {
      "inputs": [
        {
          "internalType": "address",
          "name": "_spender",
          "type": "address"
        },
        {
          "internalType": "uint256",
          "name": "_value",
          "type": "uint256"
        }
      ],
      "name": "approve",
      "outputs": [
        {
          "internalType": "bool",
          "name": "success",
          "type": "bool"
        }
      ],
      "stateMutability": "nonpayable",
      "type": "function"
    },
    {
      "inputs": [
        {
          "internalType": "address",
          "name": "_spender",
          "type": "address"
        },
        {
          "internalType": "uint256",
          "name": "_delta",
          "type": "uint256"
        }
      ],
      "name": "increaseApproval",
      "outputs": [
        {
          "internalType": "bool",
          "name": "success",
          "type": "bool"
        }
      ],
      "stateMutability": "nonpayable",
      "type": "function"
    },
    {
      "inputs": [
        {
          "internalType": "address",
          "name": "_spender",
          "type": "address"
        },
        {
          "internalType": "uint256",
          "name": "_delta",
          "type": "uint256"
        }
      ],
      "name": "decreaseApproval",
      "outputs": [
        {
          "internalType": "bool",
          "name": "success",
          "type": "bool"
        }
      ],
      "stateMutability": "nonpayable",
      "type": "function"
    },
    {
      "inputs": [
        {
          "internalType": "address",
          "name": "_owner",
          "type": "address"
        },
        {
          "internalType": "address",
          "name": "_spender",
          "type": "address"
        }
      ],
      "name": "allowance",
      "outputs": [
        {
          "internalType": "uint256",
          "name": "remaining",
          "type": "uint256"
        }
      ],
      "stateMutability": "view",
      "type": "function",
      "constant": true
    },
    {
      "inputs": [
        {
          "internalType": "address[]",
          "name": "_tos",
          "type": "address[]"
        },
        {
          "internalType": "uint256[]",
          "name": "_values",
          "type": "uint256[]"
        },
        {
          "internalType": "uint256",
          "name": "_txId",
          "type": "uint256"
        }
      ],
      "name": "transferBulk",
      "outputs": [
        {
          "internalType": "uint256",
          "name": "_bulkCount",
          "type": "uint256"
        }
      ],
      "stateMutability": "nonpayable",
      "type": "function"
    },
    {
      "inputs": [
        {
          "internalType": "address[]",
          "name": "_spenders",
          "type": "address[]"
        },
        {
          "internalType": "uint256[]",
          "name": "_values",
          "type": "uint256[]"
        },
        {
          "internalType": "uint256",
          "name": "_txId",
          "type": "uint256"
        }
      ],
      "name": "approveBulk",
      "outputs": [
        {
          "internalType": "uint256",
          "name": "_bulkCount",
          "type": "uint256"
        }
      ],
      "stateMutability": "nonpayable",
      "type": "function"
    }
  ],
  "bytecode": "0x60806040523480156200001157600080fd5b506040516200180b3803806200180b833981810160405260808110156200003757600080fd5b8151602083018051604051929492938301929190846401000000008211156200005f57600080fd5b9083019060208201858111156200007557600080fd5b82516401000000008111828201881017156200009057600080fd5b82525081516020918201929091019080838360005b83811015620000bf578181015183820152602001620000a5565b50505050905090810190601f168015620000ed5780820380516001836020036101000a031916815260200191505b506040818152602083015192018051929491939192846401000000008211156200011657600080fd5b9083019060208201858111156200012c57600080fd5b82516401000000008111828201881017156200014757600080fd5b82525081516020918201929091019080838360005b83811015620001765781810151838201526020016200015c565b50505050905090810190601f168015620001a45780820380516001836020036101000a031916815260200191505b506040525050506000620001bd6200026c60201b60201c565b600080546001600160a01b0319166001600160a01b0383169081178255604051929350917f8be0079c531659141344cd1fd0a4f28419497f9722a3daafe3b4186f6b6457e0908290a35060ff8216600a0a840260015582516200022890600490602086019062000271565b506005805460ff191660ff841617905580516200024d90600690602084019062000271565b5050600154336000908152600260205260409020555062000313915050565b335b90565b828054600181600116156101000203166002900490600052602060002090601f016020900481019282601f10620002b457805160ff1916838001178555620002e4565b82800160010185558215620002e4579182015b82811115620002e4578251825591602001919060010190620002c7565b50620002f2929150620002f6565b5090565b6200026e91905b80821115620002f25760008155600101620002fd565b6114e880620003236000396000f3fe608060405234801561001057600080fd5b50600436106101005760003560e01c80638da5cb5b11610097578063dd62ed3e11610066578063dd62ed3e14610310578063e816d8d81461033e578063e8f71d1b14610463578063f2fde38b1461058857610100565b80638da5cb5b1461028c57806395d89b41146102b0578063a9059cbb146102b8578063d73dd623146102e457610100565b8063313ce567116100d3578063313ce56714610212578063661884631461023057806370a082311461025c578063715018a61461028257610100565b806306fdde0314610105578063095ea7b31461018257806318160ddd146101c257806323b872dd146101dc575b600080fd5b61010d6105ae565b6040805160208082528351818301528351919283929083019185019080838360005b8381101561014757818101518382015260200161012f565b50505050905090810190601f1680156101745780820380516001836020036101000a031916815260200191505b509250505060405180910390f35b6101ae6004803603604081101561019857600080fd5b506001600160a01b03813516906020013561063c565b604080519115158252519081900360200190f35b6101ca6106eb565b60408051918252519081900360200190f35b6101ae600480360360608110156101f257600080fd5b506001600160a01b038135811691602081013590911690604001356106f1565b61021a610916565b6040805160ff9092168252519081900360200190f35b6101ae6004803603604081101561024657600080fd5b506001600160a01b03813516906020013561091f565b6101ca6004803603602081101561027257600080fd5b50356001600160a01b0316610a7a565b61028a610a95565b005b610294610b49565b604080516001600160a01b039092168252519081900360200190f35b61010d610b58565b6101ae600480360360408110156102ce57600080fd5b506001600160a01b038135169060200135610bb3565b6101ae600480360360408110156102fa57600080fd5b506001600160a01b038135169060200135610c13565b6101ca6004803603604081101561032657600080fd5b506001600160a01b0381358116916020013516610d21565b6101ca6004803603606081101561035457600080fd5b810190602081018135600160201b81111561036e57600080fd5b82018360208201111561038057600080fd5b803590602001918460208302840111600160201b831117156103a157600080fd5b9190808060200260200160405190810160405280939291908181526020018383602002808284376000920191909152509295949360208101935035915050600160201b8111156103f057600080fd5b82018360208201111561040257600080fd5b803590602001918460208302840111600160201b8311171561042357600080fd5b9190808060200260200160405190810160405280939291908181526020018383602002808284376000920191909152509295505091359250610d4c915050565b6101ca6004803603606081101561047957600080fd5b810190602081018135600160201b81111561049357600080fd5b8201836020820111156104a557600080fd5b803590602001918460208302840111600160201b831117156104c657600080fd5b9190808060200260200160405190810160405280939291908181526020018383602002808284376000920191909152509295949360208101935035915050600160201b81111561051557600080fd5b82018360208201111561052757600080fd5b803590602001918460208302840111600160201b8311171561054857600080fd5b9190808060200260200160405190810160405280939291908181526020018383602002808284376000920191909152509295505091359250610f0f915050565b61028a6004803603602081101561059e57600080fd5b50356001600160a01b03166110b9565b6004805460408051602060026001851615610100026000190190941693909304601f810184900484028201840190925281815292918301828280156106345780601f1061060957610100808354040283529160200191610634565b820191906000526020600020905b81548152906001019060200180831161061757829003601f168201915b505050505081565b60006001600160a01b0383166106835760405162461bcd60e51b81526004018080602001828103825260298152602001806114376029913960400191505060405180910390fd5b3360008181526003602090815260408083206001600160a01b03881680855290835292819020869055805186815290519293927f8c5be1e5ebec7d5bd14f71427d1e84f3dd0314c0f7b2291e5b200ac8c7c3b925929181900390910190a35060015b92915050565b60015481565b6001600160a01b03831660009081526003602090815260408083203384529091528120548281101561076a576040805162461bcd60e51b815260206004820152601960248201527f5370656e64657220616c6c6f77616e636520746f6f206c6f7700000000000000604482015290519081900360640190fd5b6001600160a01b0384166107af5760405162461bcd60e51b815260040180806020018281038252602a815260200180611460602a913960400191505060405180910390fd5b604080518082018252601781527f5370656e6465722062616c616e636520746f6f206c6f770000000000000000006020808301919091526001600160a01b03881660009081526002909152919091205461081091859063ffffffff6111c316565b6001600160a01b038087166000908152600260205260408082209390935590861681522054610845908463ffffffff61125a16565b6001600160a01b03851660009081526002602052604090205560001981146108c0576001600160a01b038516600090815260036020908152604080832033845290915290205461089b908463ffffffff6112bb16565b6001600160a01b03861660009081526003602090815260408083203384529091529020555b836001600160a01b0316856001600160a01b03167fddf252ad1be2c89b69c2b068fc378daa952ba7f163c4a11628f55a4df523b3ef856040518082815260200191505060405180910390a3506001949350505050565b60055460ff1681565b60006001600160a01b0383166109665760405162461bcd60e51b81526004018080602001828103825260298152602001806114376029913960400191505060405180910390fd5b3360009081526003602090815260408083206001600160a01b0387168452909152902054808311156109bb573360009081526003602090815260408083206001600160a01b0388168452909152812055610a14565b3360009081526003602090815260408083206001600160a01b03881684529091529020546109ef908463ffffffff6112bb16565b3360009081526003602090815260408083206001600160a01b03891684529091529020555b3360008181526003602090815260408083206001600160a01b0389168085529083529281902054815190815290519293927f8c5be1e5ebec7d5bd14f71427d1e84f3dd0314c0f7b2291e5b200ac8c7c3b925929181900390910190a35060019392505050565b6001600160a01b031660009081526002602052604090205490565b610a9d6112fd565b6000546001600160a01b03908116911614610aff576040805162461bcd60e51b815260206004820181905260248201527f4f776e61626c653a2063616c6c6572206973206e6f7420746865206f776e6572604482015290519081900360640190fd5b600080546040516001600160a01b03909116907f8be0079c531659141344cd1fd0a4f28419497f9722a3daafe3b4186f6b6457e0908390a3600080546001600160a01b0319169055565b6000546001600160a01b031690565b6006805460408051602060026001851615610100026000190190941693909304601f810184900484028201840190925281815292918301828280156106345780601f1061060957610100808354040283529160200191610634565b6000610bbf8383611301565b9050806106e5576040805162461bcd60e51b815260206004820152601760248201527f5472616e73666572206469646e27742073756363656564000000000000000000604482015290519081900360640190fd5b60006001600160a01b038316610c5a5760405162461bcd60e51b81526004018080602001828103825260298152602001806114376029913960400191505060405180910390fd5b3360009081526003602090815260408083206001600160a01b038716845290915290205480610c8f818563ffffffff61125a16565b1080610cac5750600019610ca9828563ffffffff61125a16565b10155b15610ced57610cc4600019600163ffffffff6112bb16565b3360009081526003602090815260408083206001600160a01b0389168452909152902055610a14565b3360009081526003602090815260408083206001600160a01b03881684529091529020546109ef908463ffffffff61125a16565b6001600160a01b03918216600090815260036020908152604080832093909416825291909152205490565b60008251845114610d8e5760405162461bcd60e51b815260040180806020018281038252602b81526020018061140c602b913960400191505060405180910390fd5b8351606411610dda576040805162461bcd60e51b8152602060048201526013602482015272546f6f206d616e7920726563697069656e747360681b604482015290519081900360640190fd5b6000805b8551811015610e1757610e0d858281518110610df657fe5b60200260200101518361125a90919063ffffffff16565b9150600101610dde565b506b033b2e3c9fd0803ce80000008110610e6e576040805162461bcd60e51b8152602060048201526013602482015272084ead8d640ecc2d8eaca40e8dede40d0d2ced606b1b604482015290519081900360640190fd5b6000805b8651811015610ecf57610eab878281518110610e8a57fe5b6020026020010151878381518110610e9e57fe5b6020026020010151611301565b91508115610ec757610ec484600163ffffffff61125a16565b93505b600101610e72565b5060408051848152905185917f8ed71c3a6fb899bfe96968ade5a4119b380c0d642a775106eb80aa795450777e919081900360200190a250509392505050565b60008251845114610f515760405162461bcd60e51b815260040180806020018281038252602981526020018061148a6029913960400191505060405180910390fd5b8351606411610f9b576040805162461bcd60e51b8152602060048201526011602482015270546f6f206d616e79207370656e6465727360781b604482015290519081900360640190fd5b6000805b8551811015610fc157610fb7858281518110610df657fe5b9150600101610f9f565b506b033b2e3c9fd0803ce80000008110611018576040805162461bcd60e51b8152602060048201526013602482015272084ead8d640ecc2d8eaca40e8dede40d0d2ced606b1b604482015290519081900360640190fd5b6000805b86518110156110795761105587828151811061103457fe5b602002602001015187838151811061104857fe5b6020026020010151610c13565b915081156110715761106e84600163ffffffff61125a16565b93505b60010161101c565b5060408051848152905185917fca78741c6b48402cfa7be577db6559c46abb0f8ba9ce1468cf71297349370d9c919081900360200190a250509392505050565b6110c16112fd565b6000546001600160a01b03908116911614611123576040805162461bcd60e51b815260206004820181905260248201527f4f776e61626c653a2063616c6c6572206973206e6f7420746865206f776e6572604482015290519081900360640190fd5b6001600160a01b0381166111685760405162461bcd60e51b81526004018080602001828103825260268152602001806113e66026913960400191505060405180910390fd5b600080546040516001600160a01b03808516939216917f8be0079c531659141344cd1fd0a4f28419497f9722a3daafe3b4186f6b6457e091a3600080546001600160a01b0319166001600160a01b0392909216919091179055565b600081848411156112525760405162461bcd60e51b81526004018080602001828103825283818151815260200191508051906020019080838360005b838110156112175781810151838201526020016111ff565b50505050905090810190601f1680156112445780820380516001836020036101000a031916815260200191505b509250505060405180910390fd5b505050900390565b6000828201838110156112b4576040805162461bcd60e51b815260206004820152601b60248201527f536166654d6174683a206164646974696f6e206f766572666c6f770000000000604482015290519081900360640190fd5b9392505050565b60006112b483836040518060400160405280601e81526020017f536166654d6174683a207375627472616374696f6e206f766572666c6f7700008152506111c3565b3390565b60006001600160a01b038316611319575060006106e5565b6001600160a01b038316301415611332575060006106e5565b33600090815260026020526040902054821115611351575060006106e5565b33600090815260026020526040808220805485900390556001600160a01b0385168252902054611387908363ffffffff61125a16565b6001600160a01b0384166000818152600260209081526040918290209390935580518581529051919233927fddf252ad1be2c89b69c2b068fc378daa952ba7f163c4a11628f55a4df523b3ef9281900390910190a35060019291505056fe4f776e61626c653a206e6577206f776e657220697320746865207a65726f2061646472657373416d6f756e74206f6620726563697069656e747320616e642076616c75657320646f6e2774206d61746368546f6b656e207370656e64657220697320616e20756e696e697469616c697a6564206164647265737343616e27742073656e6420746f6b656e7320746f20756e696e697469616c697a65642061646472657373416d6f756e74206f66207370656e6465727320616e642076616c75657320646f6e2774206d61746368a26469706673582212209eb0c2f7fceaec0f10bbfe3af29e624ffad3c7e158430a5c86f8f745cbb1b52b64736f6c63430006020033",
  "source": "pragma solidity 0.6.2;\nimport \"./HMTokenInterface.sol\";\nimport \"./SafeMath.sol\";\nimport \"./Ownable.sol\";\n\ncontract HMToken is HMTokenInterface, Ownable {\n    using SafeMath for uint256;\n\n    /* This is a slight change to the ERC20 base standard.\n    function totalSupply() constant returns (uint256 supply);\n    is replaced with:\n    uint256 public totalSupply;\n    This automatically creates a getter function for the totalSupply.\n    This is moved to the base contract since public getter functions are not\n    currently recognised as an implementation of the matching abstract\n    function by the compiler.\n    */\n    /// total amount of tokens\n    uint256 public totalSupply;\n\n    uint256 private constant MAX_UINT256 = ~uint256(0);\n    uint256 private constant BULK_MAX_VALUE = 1000000000 * (10 ** 18);\n    uint32  private constant BULK_MAX_COUNT = 100;\n\n    event BulkTransfer(uint256 indexed _txId, uint256 _bulkCount);\n    event BulkApproval(uint256 indexed _txId, uint256 _bulkCount);\n\n    mapping (address => uint256) private balances;\n    mapping (address => mapping (address => uint256)) private allowed;\n\n    string public name;\n    uint8 public decimals;\n    string public symbol;\n\n    constructor(uint256 _totalSupply, string memory _name, uint8 _decimals, string memory _symbol) public {\n        totalSupply = _totalSupply * (10 ** uint256(_decimals));\n        name = _name;\n        decimals = _decimals;\n        symbol = _symbol;\n        balances[msg.sender] = totalSupply;\n    }\n\n    function transfer(address _to, uint256 _value) public override returns (bool success) {\n        success = transferQuiet(_to, _value);\n        require(success, \"Transfer didn't succeed\");\n        return success;\n    }\n\n    function transferFrom(address _spender, address _to, uint256 _value) public override returns (bool success) {\n        uint256 _allowance = allowed[_spender][msg.sender];\n        require(_allowance >= _value, \"Spender allowance too low\");\n        require(_to != address(0), \"Can't send tokens to uninitialized address\");\n\n        balances[_spender] = balances[_spender].sub(_value, \"Spender balance too low\");\n        balances[_to] = balances[_to].add(_value);\n\n        if (_allowance != MAX_UINT256) { // Special case to approve unlimited transfers\n            allowed[_spender][msg.sender] = allowed[_spender][msg.sender].sub(_value);\n        }\n\n        emit Transfer(_spender, _to, _value);\n        return true;\n    }\n\n    function balanceOf(address _owner) public view override returns (uint256 balance) {\n        return balances[_owner];\n    }\n\n    function approve(address _spender, uint256 _value) public override returns (bool success) {\n        require(_spender != address(0), \"Token spender is an uninitialized address\");\n\n        allowed[msg.sender][_spender] = _value;\n        emit Approval(msg.sender, _spender, _value); //solhint-disable-line indent, no-unused-vars\n        return true;\n    }\n\n    function increaseApproval(address _spender, uint _delta) public returns (bool success) {\n        require(_spender != address(0), \"Token spender is an uninitialized address\");\n\n        uint _oldValue = allowed[msg.sender][_spender];\n        if (_oldValue.add(_delta) < _oldValue || _oldValue.add(_delta) >= MAX_UINT256) { // Truncate upon overflow.\n            allowed[msg.sender][_spender] = MAX_UINT256.sub(1);\n        } else {\n            allowed[msg.sender][_spender] = allowed[msg.sender][_spender].add(_delta);\n        }\n        emit Approval(msg.sender, _spender, allowed[msg.sender][_spender]);\n        return true;\n    }\n\n    function decreaseApproval(address _spender, uint _delta) public returns (bool success) {\n        require(_spender != address(0), \"Token spender is an uninitialized address\");\n\n        uint _oldValue = allowed[msg.sender][_spender];\n        if (_delta > _oldValue) { // Truncate upon overflow.\n            allowed[msg.sender][_spender] = 0;\n        } else {\n            allowed[msg.sender][_spender] = allowed[msg.sender][_spender].sub(_delta);\n        }\n        emit Approval(msg.sender, _spender, allowed[msg.sender][_spender]);\n        return true;\n    }\n\n    function allowance(address _owner, address _spender) public view override returns (uint256 remaining) {\n        return allowed[_owner][_spender];\n    }\n\n    function transferBulk(address[] memory _tos, uint256[] memory _values, uint256 _txId) public override returns (uint256 _bulkCount) {\n        require(_tos.length == _values.length, \"Amount of recipients and values don't match\");\n        require(_tos.length < BULK_MAX_COUNT, \"Too many recipients\");\n\n        uint256 _bulkValue = 0;\n        for (uint j = 0; j < _tos.length; ++j) {\n            _bulkValue = _bulkValue.add(_values[j]);\n        }\n        require(_bulkValue < BULK_MAX_VALUE, \"Bulk value too high\");\n\n        bool _success;\n        for (uint i = 0; i < _tos.length; ++i) {\n            _success = transferQuiet(_tos[i], _values[i]);\n            if (_success) {\n                _bulkCount = _bulkCount.add(1);\n            }\n        }\n        emit BulkTransfer(_txId, _bulkCount);\n        return _bulkCount;\n    }\n\n    function approveBulk(address[] memory _spenders, uint256[] memory _values, uint256 _txId) public returns (uint256 _bulkCount) {\n        require(_spenders.length == _values.length, \"Amount of spenders and values don't match\");\n        require(_spenders.length < BULK_MAX_COUNT, \"Too many spenders\");\n\n        uint256 _bulkValue = 0;\n        for (uint j = 0; j < _spenders.length; ++j) {\n            _bulkValue = _bulkValue.add(_values[j]);\n        }\n        require(_bulkValue < BULK_MAX_VALUE, \"Bulk value too high\");\n\n        bool _success;\n        for (uint i = 0; i < _spenders.length; ++i) {\n            _success = increaseApproval(_spenders[i], _values[i]);\n            if (_success) {\n                _bulkCount = _bulkCount.add(1);\n            }\n        }\n        emit BulkApproval(_txId, _bulkCount);\n        return _bulkCount;\n    }\n\n    // Like transfer, but fails quietly.\n    function transferQuiet(address _to, uint256 _value) internal returns (bool success) {\n        if (_to == address(0)) return false; // Preclude burning tokens to uninitialized address.\n        if (_to == address(this)) return false; // Preclude sending tokens to the contract.\n        if (balances[msg.sender] < _value) return false;\n\n        balances[msg.sender] = balances[msg.sender] - _value;\n        balances[_to] = balances[_to].add(_value);\n\n        emit Transfer(msg.sender, _to, _value);\n        return true;\n    }\n}\n",
  "sourcePath": "/home/adrian/source/hmt-escrow/contracts/HMToken.sol",
  "compiler": {
    "name": "solc",
    "version": "0.6.2+commit.bacdbe57.Emscripten.clang"
  },
  "schemaVersion": "3.4.10",
  "updatedAt": "2022-10-31T13:16:23.275Z",
  "networkType": "ethereum",
  "devdoc": {
    "methods": {
      "owner()": {
        "details": "Returns the address of the current owner."
      },
      "renounceOwnership()": {
        "details": "Leaves the contract without owner. It will not be possible to call `onlyOwner` functions anymore. Can only be called by the current owner.     * NOTE: Renouncing ownership will leave the contract without an owner, thereby removing any functionality that is only available to the owner."
      },
      "transferOwnership(address)": {
        "details": "Transfers ownership of the contract to a new account (`newOwner`). Can only be called by the current owner."
      }
    }
  },
  "userdoc": {
    "methods": {}
  }
}