{
  "_format": "hh-sol-artifact-1",
  "contractName": "RewardPool",
  "sourceName": "contracts/RewardPool.sol",
  "abi": [
    {
      "inputs": [
        {
          "internalType": "address",
          "name": "_eip20",
          "type": "address"
        },
        {
          "internalType": "address",
          "name": "_staking",
          "type": "address"
        },
        {
          "internalType": "uint256",
          "name": "_fees",
          "type": "uint256"
        }
      ],
      "stateMutability": "nonpayable",
      "type": "constructor"
    },
    {
      "anonymous": false,
      "inputs": [
        {
          "indexed": true,
          "internalType": "address",
          "name": "escrowAddress",
          "type": "address"
        },
        {
          "indexed": true,
          "internalType": "address",
          "name": "slasher",
          "type": "address"
        },
        {
          "indexed": false,
          "internalType": "uint256",
          "name": "tokens",
          "type": "uint256"
        }
      ],
      "name": "RewardAdded",
      "type": "event"
    },
    {
      "inputs": [
        {
          "internalType": "address",
          "name": "_escrowAddress",
          "type": "address"
        },
        {
          "internalType": "address",
          "name": "_slasher",
          "type": "address"
        },
        {
          "internalType": "uint256",
          "name": "_tokens",
          "type": "uint256"
        }
      ],
      "name": "addReward",
      "outputs": [],
      "stateMutability": "nonpayable",
      "type": "function"
    },
    {
      "inputs": [
        {
          "internalType": "address",
          "name": "_escrowAddress",
          "type": "address"
        }
      ],
      "name": "distributeReward",
      "outputs": [],
      "stateMutability": "nonpayable",
      "type": "function"
    },
    {
      "inputs": [],
      "name": "eip20",
      "outputs": [
        {
          "internalType": "address",
          "name": "",
          "type": "address"
        }
      ],
      "stateMutability": "view",
      "type": "function"
    },
    {
      "inputs": [],
      "name": "fees",
      "outputs": [
        {
          "internalType": "uint256",
          "name": "",
          "type": "uint256"
        }
      ],
      "stateMutability": "view",
      "type": "function"
    },
    {
      "inputs": [
        {
          "internalType": "address",
          "name": "_escrowAddress",
          "type": "address"
        }
      ],
      "name": "getRewards",
      "outputs": [
        {
          "components": [
            {
              "internalType": "address",
              "name": "escrowAddress",
              "type": "address"
            },
            {
              "internalType": "address",
              "name": "slasher",
              "type": "address"
            },
            {
              "internalType": "uint256",
              "name": "tokens",
              "type": "uint256"
            }
          ],
          "internalType": "struct IRewardPool.Reward[]",
          "name": "",
          "type": "tuple[]"
        }
      ],
      "stateMutability": "view",
      "type": "function"
    },
    {
      "inputs": [
        {
          "internalType": "address",
          "name": "",
          "type": "address"
        },
        {
          "internalType": "uint256",
          "name": "",
          "type": "uint256"
        }
      ],
      "name": "rewards",
      "outputs": [
        {
          "internalType": "address",
          "name": "escrowAddress",
          "type": "address"
        },
        {
          "internalType": "address",
          "name": "slasher",
          "type": "address"
        },
        {
          "internalType": "uint256",
          "name": "tokens",
          "type": "uint256"
        }
      ],
      "stateMutability": "view",
      "type": "function"
    },
    {
      "inputs": [],
      "name": "staking",
      "outputs": [
        {
          "internalType": "address",
          "name": "",
          "type": "address"
        }
      ],
      "stateMutability": "view",
      "type": "function"
    }
  ],
  "bytecode": "0x60e06040523480156200001157600080fd5b5060405162001233380380620012338339818101604052810190620000379190620000e4565b8273ffffffffffffffffffffffffffffffffffffffff1660808173ffffffffffffffffffffffffffffffffffffffff1660601b815250508173ffffffffffffffffffffffffffffffffffffffff1660a08173ffffffffffffffffffffffffffffffffffffffff1660601b815250508060c08181525050505050620001ac565b600081519050620000c78162000178565b92915050565b600081519050620000de8162000192565b92915050565b600080600060608486031215620000fa57600080fd5b60006200010a86828701620000b6565b93505060206200011d86828701620000b6565b92505060406200013086828701620000cd565b9150509250925092565b600062000147826200014e565b9050919050565b600073ffffffffffffffffffffffffffffffffffffffff82169050919050565b6000819050919050565b62000183816200013a565b81146200018f57600080fd5b50565b6200019d816200016e565b8114620001a957600080fd5b50565b60805160601c60a05160601c60c051611035620001fe60003960008181610684015281816107bd01526107ec01526000818161050d015261074601526000818161033601526104e901526110356000f3fe608060405234801561001057600080fd5b506004361061007d5760003560e01c806379ee54f71161005b57806379ee54f7146100da5780639af1d35a1461010a578063b933ceac14610128578063d0ed26ae1461015a5761007d565b8063092193ab14610082578063196214d31461009e5780634cf088d9146100bc575b600080fd5b61009c60048036038101906100979190610aa2565b610176565b005b6100a66104e7565b6040516100b39190610cdc565b60405180910390f35b6100c461050b565b6040516100d19190610cdc565b60405180910390f35b6100f460048036038101906100ef9190610aa2565b61052f565b6040516101019190610d57565b60405180910390f35b610112610682565b60405161011f9190610dd9565b60405180910390f35b610142600480360381019061013d9190610b1a565b6106a6565b60405161015193929190610cf7565b60405180910390f35b610174600480360381019061016f9190610acb565b61072d565b005b3373ffffffffffffffffffffffffffffffffffffffff168173ffffffffffffffffffffffffffffffffffffffff16146101e4576040517f08c379a00000000000000000000000000000000000000000000000000000000081526004016101db90610db9565b60405180910390fd5b60008060008373ffffffffffffffffffffffffffffffffffffffff1673ffffffffffffffffffffffffffffffffffffffff168152602001908152602001600020805480602002602001604051908101604052809291908181526020016000905b8282101561032c57838290600052602060002090600302016040518060600160405290816000820160009054906101000a900473ffffffffffffffffffffffffffffffffffffffff1673ffffffffffffffffffffffffffffffffffffffff1673ffffffffffffffffffffffffffffffffffffffff1681526020016001820160009054906101000a900473ffffffffffffffffffffffffffffffffffffffff1673ffffffffffffffffffffffffffffffffffffffff1673ffffffffffffffffffffffffffffffffffffffff16815260200160028201548152505081526020019060010190610244565b50505050905060007f000000000000000000000000000000000000000000000000000000000000000090506000808473ffffffffffffffffffffffffffffffffffffffff1673ffffffffffffffffffffffffffffffffffffffff16815260200190815260200160002060006103a191906109d2565b60005b82518110156104e15760008382815181106103e8577f4e487b7100000000000000000000000000000000000000000000000000000000600052603260045260246000fd5b6020026020010151905060008373ffffffffffffffffffffffffffffffffffffffff1663a9059cbb836020015184604001516040518363ffffffff1660e01b8152600401610437929190610d2e565b602060405180830381600087803b15801561045157600080fd5b505af1158015610465573d6000803e3d6000fd5b505050506040513d601f19601f820116820180604052508101906104899190610b56565b9050806104cb576040517f08c379a00000000000000000000000000000000000000000000000000000000081526004016104c290610d79565b60405180910390fd5b50506001816104da9190610e3e565b90506103a4565b50505050565b7f000000000000000000000000000000000000000000000000000000000000000081565b7f000000000000000000000000000000000000000000000000000000000000000081565b60606000808373ffffffffffffffffffffffffffffffffffffffff1673ffffffffffffffffffffffffffffffffffffffff168152602001908152602001600020805480602002602001604051908101604052809291908181526020016000905b8282101561067757838290600052602060002090600302016040518060600160405290816000820160009054906101000a900473ffffffffffffffffffffffffffffffffffffffff1673ffffffffffffffffffffffffffffffffffffffff1673ffffffffffffffffffffffffffffffffffffffff1681526020016001820160009054906101000a900473ffffffffffffffffffffffffffffffffffffffff1673ffffffffffffffffffffffffffffffffffffffff1673ffffffffffffffffffffffffffffffffffffffff1681526020016002820154815250508152602001906001019061058f565b505050509050919050565b7f000000000000000000000000000000000000000000000000000000000000000081565b600060205281600052604060002081815481106106c257600080fd5b9060005260206000209060030201600091509150508060000160009054906101000a900473ffffffffffffffffffffffffffffffffffffffff16908060010160009054906101000a900473ffffffffffffffffffffffffffffffffffffffff16908060020154905083565b3373ffffffffffffffffffffffffffffffffffffffff167f000000000000000000000000000000000000000000000000000000000000000073ffffffffffffffffffffffffffffffffffffffff16146107bb576040517f08c379a00000000000000000000000000000000000000000000000000000000081526004016107b290610d99565b60405180910390fd5b7f00000000000000000000000000000000000000000000000000000000000000008110156107e8576109cd565b60007f0000000000000000000000000000000000000000000000000000000000000000826108169190610e94565b9050600060405180606001604052808673ffffffffffffffffffffffffffffffffffffffff1681526020018573ffffffffffffffffffffffffffffffffffffffff1681526020018381525090506000808673ffffffffffffffffffffffffffffffffffffffff1673ffffffffffffffffffffffffffffffffffffffff16815260200190815260200160002081908060018154018082558091505060019003906000526020600020906003020160009091909190915060008201518160000160006101000a81548173ffffffffffffffffffffffffffffffffffffffff021916908373ffffffffffffffffffffffffffffffffffffffff16021790555060208201518160010160006101000a81548173ffffffffffffffffffffffffffffffffffffffff021916908373ffffffffffffffffffffffffffffffffffffffff1602179055506040820151816002015550508373ffffffffffffffffffffffffffffffffffffffff168573ffffffffffffffffffffffffffffffffffffffff167f0f7cde3c0518e1cc590491be5861d70a2e333f7e65af2e1ebd91a3c9a3cc638d846040516109c29190610dd9565b60405180910390a350505b505050565b50805460008255600302906000526020600020908101906109f391906109f6565b50565b5b80821115610a5f57600080820160006101000a81549073ffffffffffffffffffffffffffffffffffffffff02191690556001820160006101000a81549073ffffffffffffffffffffffffffffffffffffffff02191690556002820160009055506003016109f7565b5090565b600081359050610a7281610fba565b92915050565b600081519050610a8781610fd1565b92915050565b600081359050610a9c81610fe8565b92915050565b600060208284031215610ab457600080fd5b6000610ac284828501610a63565b91505092915050565b600080600060608486031215610ae057600080fd5b6000610aee86828701610a63565b9350506020610aff86828701610a63565b9250506040610b1086828701610a8d565b9150509250925092565b60008060408385031215610b2d57600080fd5b6000610b3b85828601610a63565b9250506020610b4c85828601610a8d565b9150509250929050565b600060208284031215610b6857600080fd5b6000610b7684828501610a78565b91505092915050565b6000610b8b8383610c7c565b60608301905092915050565b610ba081610ec8565b82525050565b610baf81610ec8565b82525050565b6000610bc082610e04565b610bca8185610e1c565b9350610bd583610df4565b8060005b83811015610c06578151610bed8882610b7f565b9750610bf883610e0f565b925050600181019050610bd9565b5085935050505092915050565b6000610c20600f83610e2d565b9150610c2b82610f3f565b602082019050919050565b6000610c43601e83610e2d565b9150610c4e82610f68565b602082019050919050565b6000610c66601483610e2d565b9150610c7182610f91565b602082019050919050565b606082016000820151610c926000850182610b97565b506020820151610ca56020850182610b97565b506040820151610cb86040850182610cbe565b50505050565b610cc781610f06565b82525050565b610cd681610f06565b82525050565b6000602082019050610cf16000830184610ba6565b92915050565b6000606082019050610d0c6000830186610ba6565b610d196020830185610ba6565b610d266040830184610ccd565b949350505050565b6000604082019050610d436000830185610ba6565b610d506020830184610ccd565b9392505050565b60006020820190508181036000830152610d718184610bb5565b905092915050565b60006020820190508181036000830152610d9281610c13565b9050919050565b60006020820190508181036000830152610db281610c36565b9050919050565b60006020820190508181036000830152610dd281610c59565b9050919050565b6000602082019050610dee6000830184610ccd565b92915050565b6000819050602082019050919050565b600081519050919050565b6000602082019050919050565b600082825260208201905092915050565b600082825260208201905092915050565b6000610e4982610f06565b9150610e5483610f06565b9250827fffffffffffffffffffffffffffffffffffffffffffffffffffffffffffffffff03821115610e8957610e88610f10565b5b828201905092915050565b6000610e9f82610f06565b9150610eaa83610f06565b925082821015610ebd57610ebc610f10565b5b828203905092915050565b6000610ed382610ee6565b9050919050565b60008115159050919050565b600073ffffffffffffffffffffffffffffffffffffffff82169050919050565b6000819050919050565b7f4e487b7100000000000000000000000000000000000000000000000000000000600052601160045260246000fd5b7f5472616e73666572206661696c65640000000000000000000000000000000000600082015250565b7f43616c6c6572206973206e6f74207374616b696e6720636f6e74726163740000600082015250565b7f43616c6c6572206973206e6f7420657363726f77000000000000000000000000600082015250565b610fc381610ec8565b8114610fce57600080fd5b50565b610fda81610eda565b8114610fe557600080fd5b50565b610ff181610f06565b8114610ffc57600080fd5b5056fea264697066735822122018a6d4b7310ba3257e1700aa48ffb419ba2c5e3cde98352c07394fd685377d8964736f6c63430008040033",
  "linkReferences": {},
  "deployedLinkReferences": {}
}