{
  "abi": [
    {
      "inputs": [
        {
          "internalType": "contract IERC20",
          "name": "wrappedToken",
          "type": "address"
        }
      ],
      "stateMutability": "nonpayable",
      "type": "constructor"
    },
    {
      "anonymous": false,
      "inputs": [
        {
          "indexed": true,
          "internalType": "address",
          "name": "owner",
          "type": "address"
        },
        {
          "indexed": true,
          "internalType": "address",
          "name": "spender",
          "type": "address"
        },
        {
          "indexed": false,
          "internalType": "uint256",
          "name": "value",
          "type": "uint256"
        }
      ],
      "name": "Approval",
      "type": "event"
    },
    {
      "anonymous": false,
      "inputs": [
        {
          "indexed": true,
          "internalType": "address",
          "name": "delegator",
          "type": "address"
        },
        {
          "indexed": true,
          "internalType": "address",
          "name": "fromDelegate",
          "type": "address"
        },
        {
          "indexed": true,
          "internalType": "address",
          "name": "toDelegate",
          "type": "address"
        }
      ],
      "name": "DelegateChanged",
      "type": "event"
    },
    {
      "anonymous": false,
      "inputs": [
        {
          "indexed": true,
          "internalType": "address",
          "name": "delegate",
          "type": "address"
        },
        {
          "indexed": false,
          "internalType": "uint256",
          "name": "previousBalance",
          "type": "uint256"
        },
        {
          "indexed": false,
          "internalType": "uint256",
          "name": "newBalance",
          "type": "uint256"
        }
      ],
      "name": "DelegateVotesChanged",
      "type": "event"
    },
    {
      "anonymous": false,
      "inputs": [
        {
          "indexed": true,
          "internalType": "address",
          "name": "from",
          "type": "address"
        },
        {
          "indexed": true,
          "internalType": "address",
          "name": "to",
          "type": "address"
        },
        {
          "indexed": false,
          "internalType": "uint256",
          "name": "value",
          "type": "uint256"
        }
      ],
      "name": "Transfer",
      "type": "event"
    },
    {
      "inputs": [],
      "name": "DOMAIN_SEPARATOR",
      "outputs": [
        {
          "internalType": "bytes32",
          "name": "",
          "type": "bytes32"
        }
      ],
      "stateMutability": "view",
      "type": "function"
    },
    {
      "inputs": [
        {
          "internalType": "address",
          "name": "owner",
          "type": "address"
        },
        {
          "internalType": "address",
          "name": "spender",
          "type": "address"
        }
      ],
      "name": "allowance",
      "outputs": [
        {
          "internalType": "uint256",
          "name": "",
          "type": "uint256"
        }
      ],
      "stateMutability": "view",
      "type": "function"
    },
    {
      "inputs": [
        {
          "internalType": "address",
          "name": "spender",
          "type": "address"
        },
        {
          "internalType": "uint256",
          "name": "amount",
          "type": "uint256"
        }
      ],
      "name": "approve",
      "outputs": [
        {
          "internalType": "bool",
          "name": "",
          "type": "bool"
        }
      ],
      "stateMutability": "nonpayable",
      "type": "function"
    },
    {
      "inputs": [
        {
          "internalType": "address",
          "name": "account",
          "type": "address"
        }
      ],
      "name": "balanceOf",
      "outputs": [
        {
          "internalType": "uint256",
          "name": "",
          "type": "uint256"
        }
      ],
      "stateMutability": "view",
      "type": "function"
    },
    {
      "inputs": [
        {
          "internalType": "address",
          "name": "account",
          "type": "address"
        },
        {
          "internalType": "uint32",
          "name": "pos",
          "type": "uint32"
        }
      ],
      "name": "checkpoints",
      "outputs": [
        {
          "components": [
            {
              "internalType": "uint32",
              "name": "fromBlock",
              "type": "uint32"
            },
            {
              "internalType": "uint224",
              "name": "votes",
              "type": "uint224"
            }
          ],
          "internalType": "struct ERC20Votes.Checkpoint",
          "name": "",
          "type": "tuple"
        }
      ],
      "stateMutability": "view",
      "type": "function"
    },
    {
      "inputs": [],
      "name": "decimals",
      "outputs": [
        {
          "internalType": "uint8",
          "name": "",
          "type": "uint8"
        }
      ],
      "stateMutability": "view",
      "type": "function"
    },
    {
      "inputs": [
        {
          "internalType": "address",
          "name": "spender",
          "type": "address"
        },
        {
          "internalType": "uint256",
          "name": "subtractedValue",
          "type": "uint256"
        }
      ],
      "name": "decreaseAllowance",
      "outputs": [
        {
          "internalType": "bool",
          "name": "",
          "type": "bool"
        }
      ],
      "stateMutability": "nonpayable",
      "type": "function"
    },
    {
      "inputs": [
        {
          "internalType": "address",
          "name": "delegatee",
          "type": "address"
        }
      ],
      "name": "delegate",
      "outputs": [],
      "stateMutability": "nonpayable",
      "type": "function"
    },
    {
      "inputs": [
        {
          "internalType": "address",
          "name": "delegatee",
          "type": "address"
        },
        {
          "internalType": "uint256",
          "name": "nonce",
          "type": "uint256"
        },
        {
          "internalType": "uint256",
          "name": "expiry",
          "type": "uint256"
        },
        {
          "internalType": "uint8",
          "name": "v",
          "type": "uint8"
        },
        {
          "internalType": "bytes32",
          "name": "r",
          "type": "bytes32"
        },
        {
          "internalType": "bytes32",
          "name": "s",
          "type": "bytes32"
        }
      ],
      "name": "delegateBySig",
      "outputs": [],
      "stateMutability": "nonpayable",
      "type": "function"
    },
    {
      "inputs": [
        {
          "internalType": "address",
          "name": "account",
          "type": "address"
        }
      ],
      "name": "delegates",
      "outputs": [
        {
          "internalType": "address",
          "name": "",
          "type": "address"
        }
      ],
      "stateMutability": "view",
      "type": "function"
    },
    {
      "inputs": [
        {
          "internalType": "address",
          "name": "account",
          "type": "address"
        },
        {
          "internalType": "uint256",
          "name": "amount",
          "type": "uint256"
        }
      ],
      "name": "depositFor",
      "outputs": [
        {
          "internalType": "bool",
          "name": "",
          "type": "bool"
        }
      ],
      "stateMutability": "nonpayable",
      "type": "function"
    },
    {
      "inputs": [
        {
          "internalType": "uint256",
          "name": "blockNumber",
          "type": "uint256"
        }
      ],
      "name": "getPastTotalSupply",
      "outputs": [
        {
          "internalType": "uint256",
          "name": "",
          "type": "uint256"
        }
      ],
      "stateMutability": "view",
      "type": "function"
    },
    {
      "inputs": [
        {
          "internalType": "address",
          "name": "account",
          "type": "address"
        },
        {
          "internalType": "uint256",
          "name": "blockNumber",
          "type": "uint256"
        }
      ],
      "name": "getPastVotes",
      "outputs": [
        {
          "internalType": "uint256",
          "name": "",
          "type": "uint256"
        }
      ],
      "stateMutability": "view",
      "type": "function"
    },
    {
      "inputs": [
        {
          "internalType": "address",
          "name": "account",
          "type": "address"
        }
      ],
      "name": "getVotes",
      "outputs": [
        {
          "internalType": "uint256",
          "name": "",
          "type": "uint256"
        }
      ],
      "stateMutability": "view",
      "type": "function"
    },
    {
      "inputs": [
        {
          "internalType": "address",
          "name": "spender",
          "type": "address"
        },
        {
          "internalType": "uint256",
          "name": "addedValue",
          "type": "uint256"
        }
      ],
      "name": "increaseAllowance",
      "outputs": [
        {
          "internalType": "bool",
          "name": "",
          "type": "bool"
        }
      ],
      "stateMutability": "nonpayable",
      "type": "function"
    },
    {
      "inputs": [],
      "name": "name",
      "outputs": [
        {
          "internalType": "string",
          "name": "",
          "type": "string"
        }
      ],
      "stateMutability": "view",
      "type": "function"
    },
    {
      "inputs": [
        {
          "internalType": "address",
          "name": "owner",
          "type": "address"
        }
      ],
      "name": "nonces",
      "outputs": [
        {
          "internalType": "uint256",
          "name": "",
          "type": "uint256"
        }
      ],
      "stateMutability": "view",
      "type": "function"
    },
    {
      "inputs": [
        {
          "internalType": "address",
          "name": "account",
          "type": "address"
        }
      ],
      "name": "numCheckpoints",
      "outputs": [
        {
          "internalType": "uint32",
          "name": "",
          "type": "uint32"
        }
      ],
      "stateMutability": "view",
      "type": "function"
    },
    {
      "inputs": [
        {
          "internalType": "address",
          "name": "owner",
          "type": "address"
        },
        {
          "internalType": "address",
          "name": "spender",
          "type": "address"
        },
        {
          "internalType": "uint256",
          "name": "value",
          "type": "uint256"
        },
        {
          "internalType": "uint256",
          "name": "deadline",
          "type": "uint256"
        },
        {
          "internalType": "uint8",
          "name": "v",
          "type": "uint8"
        },
        {
          "internalType": "bytes32",
          "name": "r",
          "type": "bytes32"
        },
        {
          "internalType": "bytes32",
          "name": "s",
          "type": "bytes32"
        }
      ],
      "name": "permit",
      "outputs": [],
      "stateMutability": "nonpayable",
      "type": "function"
    },
    {
      "inputs": [],
      "name": "symbol",
      "outputs": [
        {
          "internalType": "string",
          "name": "",
          "type": "string"
        }
      ],
      "stateMutability": "view",
      "type": "function"
    },
    {
      "inputs": [],
      "name": "totalSupply",
      "outputs": [
        {
          "internalType": "uint256",
          "name": "",
          "type": "uint256"
        }
      ],
      "stateMutability": "view",
      "type": "function"
    },
    {
      "inputs": [
        {
          "internalType": "address",
          "name": "to",
          "type": "address"
        },
        {
          "internalType": "uint256",
          "name": "amount",
          "type": "uint256"
        }
      ],
      "name": "transfer",
      "outputs": [
        {
          "internalType": "bool",
          "name": "",
          "type": "bool"
        }
      ],
      "stateMutability": "nonpayable",
      "type": "function"
    },
    {
      "inputs": [
        {
          "internalType": "address",
          "name": "from",
          "type": "address"
        },
        {
          "internalType": "address",
          "name": "to",
          "type": "address"
        },
        {
          "internalType": "uint256",
          "name": "amount",
          "type": "uint256"
        }
      ],
      "name": "transferFrom",
      "outputs": [
        {
          "internalType": "bool",
          "name": "",
          "type": "bool"
        }
      ],
      "stateMutability": "nonpayable",
      "type": "function"
    },
    {
      "inputs": [],
      "name": "underlying",
      "outputs": [
        {
          "internalType": "contract IERC20",
          "name": "",
          "type": "address"
        }
      ],
      "stateMutability": "view",
      "type": "function"
    },
    {
      "inputs": [
        {
          "internalType": "address",
          "name": "account",
          "type": "address"
        },
        {
          "internalType": "uint256",
          "name": "amount",
          "type": "uint256"
        }
      ],
      "name": "withdrawTo",
      "outputs": [
        {
          "internalType": "bool",
          "name": "",
          "type": "bool"
        }
      ],
      "stateMutability": "nonpayable",
      "type": "function"
    }
  ],
  "bytecode": {
    "object": "0x6101606040523480156200001257600080fd5b506040516200267e3803806200267e833981016040819052620000359162000177565b80604051806040016040528060088152602001673b2426aa37b5b2b760c11b81525080604051806040016040528060018152602001603160f81b815250604051806040016040528060088152602001673b2426aa37b5b2b760c11b815250604051806040016040528060048152602001631d92135560e21b8152508160039081620000c191906200024e565b506004620000d082826200024e565b5050825160209384012082519284019290922060e08390526101008190524660a0818152604080517f8b73c3c69bb8fe3d512ecc4cf759cc79239f7b179b0ffacaa9a75d522b39400f818901819052818301979097526060810194909452608080850193909352308483018190528151808603909301835260c0948501909152815191909601209052929092526101205250506001600160a01b031661014052506200031a565b6000602082840312156200018a57600080fd5b81516001600160a01b0381168114620001a257600080fd5b9392505050565b634e487b7160e01b600052604160045260246000fd5b600181811c90821680620001d457607f821691505b602082108103620001f557634e487b7160e01b600052602260045260246000fd5b50919050565b601f8211156200024957600081815260208120601f850160051c81016020861015620002245750805b601f850160051c820191505b81811015620002455782815560010162000230565b5050505b505050565b81516001600160401b038111156200026a576200026a620001a9565b62000282816200027b8454620001bf565b84620001fb565b602080601f831160018114620002ba5760008415620002a15750858301515b600019600386901b1c1916600185901b17855562000245565b600085815260208120601f198616915b82811015620002eb57888601518255948401946001909101908401620002ca565b50858210156200030a5787850151600019600388901b60f8161c191681555b5050505050600190811b01905550565b60805160a05160c05160e0516101005161012051610140516122f46200038a600039600081816102aa015281816104b7015281816105110152610f1101526000611022015260006110710152600061104c01526000610fa501526000610fcf01526000610ff901526122f46000f3fe608060405234801561001057600080fd5b50600436106101735760003560e01c80636f307dc3116100de5780639ab24eb011610097578063c3cda52011610071578063c3cda52014610384578063d505accf14610397578063dd62ed3e146103aa578063f1127ed8146103bd57600080fd5b80639ab24eb01461034b578063a457c2d71461035e578063a9059cbb1461037157600080fd5b80636f307dc3146102a55780636fcfff45146102cc57806370a08231146102f45780637ecebe001461031d5780638e539e8c1461033057806395d89b411461034357600080fd5b8063313ce56711610130578063313ce567146102045780633644e5151461021e57806339509351146102265780633a46b1a814610239578063587cde1e1461024c5780635c19a95c1461029057600080fd5b806306fdde0314610178578063095ea7b31461019657806318160ddd146101b9578063205c2878146101cb57806323b872dd146101de5780632f4f21e2146101f1575b600080fd5b6101806103fa565b60405161018d9190611f62565b60405180910390f35b6101a96101a4366004611fac565b61048c565b604051901515815260200161018d565b6002545b60405190815260200161018d565b6101a96101d9366004611fac565b6104a6565b6101a96101ec366004611fd6565b6104e6565b6101a96101ff366004611fac565b61050a565b61020c610542565b60405160ff909116815260200161018d565b6101bd610551565b6101a9610234366004611fac565b61055b565b6101bd610247366004611fac565b61057d565b61027861025a366004612012565b6001600160a01b039081166000908152600760205260409020541690565b6040516001600160a01b03909116815260200161018d565b6102a361029e366004612012565b6105fc565b005b6102787f000000000000000000000000000000000000000000000000000000000000000081565b6102df6102da366004612012565b610609565b60405163ffffffff909116815260200161018d565b6101bd610302366004612012565b6001600160a01b031660009081526020819052604090205490565b6101bd61032b366004612012565b61062b565b6101bd61033e36600461202d565b610649565b6101806106a5565b6101bd610359366004612012565b6106b4565b6101a961036c366004611fac565b61073b565b6101a961037f366004611fac565b6107b6565b6102a3610392366004612055565b6107c4565b6102a36103a53660046120af565b6108fa565b6101bd6103b836600461211c565b610a5e565b6103d06103cb36600461214f565b610a89565b60408051825163ffffffff1681526020928301516001600160e01b0316928101929092520161018d565b6060600380546104099061218f565b80601f01602080910402602001604051908101604052809291908181526020018280546104359061218f565b80156104825780601f1061045757610100808354040283529160200191610482565b820191906000526020600020905b81548152906001019060200180831161046557829003601f168201915b5050505050905090565b60003361049a818585610b0d565b60019150505b92915050565b60006104b23383610c31565b6104dd7f00000000000000000000000000000000000000000000000000000000000000008484610c3f565b50600192915050565b6000336104f4858285610ca7565b6104ff858585610d21565b506001949350505050565b60006105387f0000000000000000000000000000000000000000000000000000000000000000333085610ecb565b6104dd8383610f03565b600061054c610f0d565b905090565b600061054c610f98565b60003361049a81858561056e8383610a5e565b61057891906121d9565b610b0d565b60004382106105d35760405162461bcd60e51b815260206004820152601f60248201527f4552433230566f7465733a20626c6f636b206e6f7420796574206d696e65640060448201526064015b60405180910390fd5b6001600160a01b03831660009081526008602052604090206105f590836110bf565b9392505050565b61060633826111b6565b50565b6001600160a01b0381166000908152600860205260408120546104a09061122f565b6001600160a01b0381166000908152600560205260408120546104a0565b600043821061069a5760405162461bcd60e51b815260206004820152601f60248201527f4552433230566f7465733a20626c6f636b206e6f7420796574206d696e65640060448201526064016105ca565b6104a06009836110bf565b6060600480546104099061218f565b6001600160a01b0381166000908152600860205260408120548015610728576001600160a01b03831660009081526008602052604090206106f66001836121ec565b81548110610706576107066121ff565b60009182526020909120015464010000000090046001600160e01b031661072b565b60005b6001600160e01b03169392505050565b600033816107498286610a5e565b9050838110156107a95760405162461bcd60e51b815260206004820152602560248201527f45524332303a2064656372656173656420616c6c6f77616e63652062656c6f77604482015264207a65726f60d81b60648201526084016105ca565b6104ff8286868403610b0d565b60003361049a818585610d21565b834211156108145760405162461bcd60e51b815260206004820152601d60248201527f4552433230566f7465733a207369676e6174757265206578706972656400000060448201526064016105ca565b604080517fe48329057bfd03d55e49b547132e39cffd9c1820ad7b9d4c5307691425d15adf60208201526001600160a01b03881691810191909152606081018690526080810185905260009061088e906108869060a00160405160208183030381529060405280519060200120611298565b8585856112e6565b905061089981611310565b86146108e75760405162461bcd60e51b815260206004820152601960248201527f4552433230566f7465733a20696e76616c6964206e6f6e63650000000000000060448201526064016105ca565b6108f181886111b6565b50505050505050565b8342111561094a5760405162461bcd60e51b815260206004820152601d60248201527f45524332305065726d69743a206578706972656420646561646c696e6500000060448201526064016105ca565b60007f6e71edae12b1b97f4d1f60370fef10105fa2faae0126114a169c64845d6126c98888886109798c611310565b6040805160208101969096526001600160a01b0394851690860152929091166060840152608083015260a082015260c0810186905260e00160405160208183030381529060405280519060200120905060006109d482611298565b905060006109e4828787876112e6565b9050896001600160a01b0316816001600160a01b031614610a475760405162461bcd60e51b815260206004820152601e60248201527f45524332305065726d69743a20696e76616c6964207369676e6174757265000060448201526064016105ca565b610a528a8a8a610b0d565b50505050505050505050565b6001600160a01b03918216600090815260016020908152604080832093909416825291909152205490565b60408051808201909152600080825260208201526001600160a01b0383166000908152600860205260409020805463ffffffff8416908110610acd57610acd6121ff565b60009182526020918290206040805180820190915291015463ffffffff8116825264010000000090046001600160e01b0316918101919091529392505050565b6001600160a01b038316610b6f5760405162461bcd60e51b8152602060048201526024808201527f45524332303a20617070726f76652066726f6d20746865207a65726f206164646044820152637265737360e01b60648201526084016105ca565b6001600160a01b038216610bd05760405162461bcd60e51b815260206004820152602260248201527f45524332303a20617070726f766520746f20746865207a65726f206164647265604482015261737360f01b60648201526084016105ca565b6001600160a01b0383811660008181526001602090815260408083209487168084529482529182902085905590518481527f8c5be1e5ebec7d5bd14f71427d1e84f3dd0314c0f7b2291e5b200ac8c7c3b925910160405180910390a3505050565b610c3b8282611338565b5050565b6040516001600160a01b038316602482015260448101829052610ca290849063a9059cbb60e01b906064015b60408051601f198184030181529190526020810180516001600160e01b03166001600160e01b031990931692909217909152611350565b505050565b6000610cb38484610a5e565b90506000198114610d1b5781811015610d0e5760405162461bcd60e51b815260206004820152601d60248201527f45524332303a20696e73756666696369656e7420616c6c6f77616e636500000060448201526064016105ca565b610d1b8484848403610b0d565b50505050565b6001600160a01b038316610d855760405162461bcd60e51b815260206004820152602560248201527f45524332303a207472616e736665722066726f6d20746865207a65726f206164604482015264647265737360d81b60648201526084016105ca565b6001600160a01b038216610de75760405162461bcd60e51b815260206004820152602360248201527f45524332303a207472616e7366657220746f20746865207a65726f206164647260448201526265737360e81b60648201526084016105ca565b6001600160a01b03831660009081526020819052604090205481811015610e5f5760405162461bcd60e51b815260206004820152602660248201527f45524332303a207472616e7366657220616d6f756e7420657863656564732062604482015265616c616e636560d01b60648201526084016105ca565b6001600160a01b03848116600081815260208181526040808320878703905593871680835291849020805487019055925185815290927fddf252ad1be2c89b69c2b068fc378daa952ba7f163c4a11628f55a4df523b3ef910160405180910390a3610d1b848484611422565b6040516001600160a01b0380851660248301528316604482015260648101829052610d1b9085906323b872dd60e01b90608401610c6b565b610c3b828261142d565b60007f00000000000000000000000000000000000000000000000000000000000000006001600160a01b031663313ce5676040518163ffffffff1660e01b8152600401602060405180830381865afa925050508015610f89575060408051601f3d908101601f19168201909252610f8691810190612215565b60015b610f935750601290565b919050565b6000306001600160a01b037f000000000000000000000000000000000000000000000000000000000000000016148015610ff157507f000000000000000000000000000000000000000000000000000000000000000046145b1561101b57507f000000000000000000000000000000000000000000000000000000000000000090565b50604080517f00000000000000000000000000000000000000000000000000000000000000006020808301919091527f0000000000000000000000000000000000000000000000000000000000000000828401527f000000000000000000000000000000000000000000000000000000000000000060608301524660808301523060a0808401919091528351808403909101815260c0909201909252805191012090565b8154600090818160058111156111195760006110da846114b7565b6110e490856121ec565b600088815260209020909150869082015463ffffffff16111561110957809150611117565b6111148160016121d9565b92505b505b8082101561116657600061112d838361159f565b600088815260209020909150869082015463ffffffff16111561115257809150611160565b61115d8160016121d9565b92505b50611119565b80156111a0576111898661117b6001846121ec565b600091825260209091200190565b5464010000000090046001600160e01b03166111a3565b60005b6001600160e01b03169695505050505050565b6001600160a01b038281166000818152600760208181526040808420805485845282862054949093528787166001600160a01b03198416811790915590519190951694919391928592917f3134e8a2e6d97e929a7e54011ea5485d7d196dd5f0ba4d4ef95803e8e3fc257f9190a4610d1b8284836115ba565b600063ffffffff8211156112945760405162461bcd60e51b815260206004820152602660248201527f53616665436173743a2076616c756520646f65736e27742066697420696e203360448201526532206269747360d01b60648201526084016105ca565b5090565b60006104a06112a5610f98565b8360405161190160f01b6020820152602281018390526042810182905260009060620160405160208183030381529060405280519060200120905092915050565b60008060006112f7878787876116f7565b91509150611304816117bb565b5090505b949350505050565b6001600160a01b03811660009081526005602052604090208054600181018255905b50919050565b6113428282611905565b610d1b6009611a3e83611a4a565b60006113a5826040518060400160405280602081526020017f5361666545524332303a206c6f772d6c6576656c2063616c6c206661696c6564815250856001600160a01b0316611b9e9092919063ffffffff16565b805190915015610ca257808060200190518101906113c39190612232565b610ca25760405162461bcd60e51b815260206004820152602a60248201527f5361666545524332303a204552433230206f7065726174696f6e20646964206e6044820152691bdd081cdd58d8d9595960b21b60648201526084016105ca565b610ca2838383611bad565b6114378282611bdf565b6002546001600160e01b0310156114a95760405162461bcd60e51b815260206004820152603060248201527f4552433230566f7465733a20746f74616c20737570706c79207269736b73206f60448201526f766572666c6f77696e6720766f74657360801b60648201526084016105ca565b610d1b6009611ca683611a4a565b6000816000036114c957506000919050565b600060016114d684611cb2565b901c6001901b905060018184816114ef576114ef612254565b048201901c9050600181848161150757611507612254565b048201901c9050600181848161151f5761151f612254565b048201901c9050600181848161153757611537612254565b048201901c9050600181848161154f5761154f612254565b048201901c9050600181848161156757611567612254565b048201901c9050600181848161157f5761157f612254565b048201901c90506105f58182858161159957611599612254565b04611d46565b60006115ae600284841861226a565b6105f5908484166121d9565b816001600160a01b0316836001600160a01b0316141580156115dc5750600081115b15610ca2576001600160a01b0383161561166a576001600160a01b0383166000908152600860205260408120819061161790611a3e85611a4a565b91509150846001600160a01b03167fdec2bacdd2f05b59de34da9b523dff8be42e5e38e818c82fdb0bae774387a724838360405161165f929190918252602082015260400190565b60405180910390a250505b6001600160a01b03821615610ca2576001600160a01b038216600090815260086020526040812081906116a090611ca685611a4a565b91509150836001600160a01b03167fdec2bacdd2f05b59de34da9b523dff8be42e5e38e818c82fdb0bae774387a72483836040516116e8929190918252602082015260400190565b60405180910390a25050505050565b6000807f7fffffffffffffffffffffffffffffff5d576e7357a4501ddfe92f46681b20a083111561172e57506000905060036117b2565b6040805160008082526020820180845289905260ff881692820192909252606081018690526080810185905260019060a0016020604051602081039080840390855afa158015611782573d6000803e3d6000fd5b5050604051601f1901519150506001600160a01b0381166117ab576000600192509250506117b2565b9150600090505b94509492505050565b60008160048111156117cf576117cf61228c565b036117d75750565b60018160048111156117eb576117eb61228c565b036118385760405162461bcd60e51b815260206004820152601860248201527f45434453413a20696e76616c6964207369676e6174757265000000000000000060448201526064016105ca565b600281600481111561184c5761184c61228c565b036118995760405162461bcd60e51b815260206004820152601f60248201527f45434453413a20696e76616c6964207369676e6174757265206c656e6774680060448201526064016105ca565b60038160048111156118ad576118ad61228c565b036106065760405162461bcd60e51b815260206004820152602260248201527f45434453413a20696e76616c6964207369676e6174757265202773272076616c604482015261756560f01b60648201526084016105ca565b6001600160a01b0382166119655760405162461bcd60e51b815260206004820152602160248201527f45524332303a206275726e2066726f6d20746865207a65726f206164647265736044820152607360f81b60648201526084016105ca565b6001600160a01b038216600090815260208190526040902054818110156119d95760405162461bcd60e51b815260206004820152602260248201527f45524332303a206275726e20616d6f756e7420657863656564732062616c616e604482015261636560f01b60648201526084016105ca565b6001600160a01b0383166000818152602081815260408083208686039055600280548790039055518581529192917fddf252ad1be2c89b69c2b068fc378daa952ba7f163c4a11628f55a4df523b3ef910160405180910390a3610ca283600084611422565b60006105f582846121ec565b82546000908190818115611a9757611a678761117b6001856121ec565b60408051808201909152905463ffffffff8116825264010000000090046001600160e01b03166020820152611aac565b60408051808201909152600080825260208201525b905080602001516001600160e01b03169350611acc84868863ffffffff16565b9250600082118015611ae45750805163ffffffff1643145b15611b2957611af283611d5c565b611b018861117b6001866121ec565b80546001600160e01b03929092166401000000000263ffffffff909216919091179055611b94565b866040518060400160405280611b3e4361122f565b63ffffffff168152602001611b5286611d5c565b6001600160e01b0390811690915282546001810184556000938452602093849020835194909301519091166401000000000263ffffffff909316929092179101555b5050935093915050565b60606113088484600085611dc5565b6001600160a01b03838116600090815260076020526040808220548584168352912054610ca2929182169116836115ba565b6001600160a01b038216611c355760405162461bcd60e51b815260206004820152601f60248201527f45524332303a206d696e7420746f20746865207a65726f20616464726573730060448201526064016105ca565b8060026000828254611c4791906121d9565b90915550506001600160a01b038216600081815260208181526040808320805486019055518481527fddf252ad1be2c89b69c2b068fc378daa952ba7f163c4a11628f55a4df523b3ef910160405180910390a3610c3b60008383611422565b60006105f582846121d9565b600080608083901c15611cc757608092831c92015b604083901c15611cd957604092831c92015b602083901c15611ceb57602092831c92015b601083901c15611cfd57601092831c92015b600883901c15611d0f57600892831c92015b600483901c15611d2157600492831c92015b600283901c15611d3357600292831c92015b600183901c156104a05760010192915050565b6000818310611d5557816105f5565b5090919050565b60006001600160e01b038211156112945760405162461bcd60e51b815260206004820152602760248201527f53616665436173743a2076616c756520646f65736e27742066697420696e20326044820152663234206269747360c81b60648201526084016105ca565b606082471015611e265760405162461bcd60e51b815260206004820152602660248201527f416464726573733a20696e73756666696369656e742062616c616e636520666f6044820152651c8818d85b1b60d21b60648201526084016105ca565b600080866001600160a01b03168587604051611e4291906122a2565b60006040518083038185875af1925050503d8060008114611e7f576040519150601f19603f3d011682016040523d82523d6000602084013e611e84565b606091505b5091509150611e9587838387611ea0565b979650505050505050565b60608315611f0f578251600003611f08576001600160a01b0385163b611f085760405162461bcd60e51b815260206004820152601d60248201527f416464726573733a2063616c6c20746f206e6f6e2d636f6e747261637400000060448201526064016105ca565b5081611308565b6113088383815115611f245781518083602001fd5b8060405162461bcd60e51b81526004016105ca9190611f62565b60005b83811015611f59578181015183820152602001611f41565b50506000910152565b6020815260008251806020840152611f81816040850160208701611f3e565b601f01601f19169190910160400192915050565b80356001600160a01b0381168114610f9357600080fd5b60008060408385031215611fbf57600080fd5b611fc883611f95565b946020939093013593505050565b600080600060608486031215611feb57600080fd5b611ff484611f95565b925061200260208501611f95565b9150604084013590509250925092565b60006020828403121561202457600080fd5b6105f582611f95565b60006020828403121561203f57600080fd5b5035919050565b60ff8116811461060657600080fd5b60008060008060008060c0878903121561206e57600080fd5b61207787611f95565b95506020870135945060408701359350606087013561209581612046565b9598949750929560808101359460a0909101359350915050565b600080600080600080600060e0888a0312156120ca57600080fd5b6120d388611f95565b96506120e160208901611f95565b9550604088013594506060880135935060808801356120ff81612046565b9699959850939692959460a0840135945060c09093013592915050565b6000806040838503121561212f57600080fd5b61213883611f95565b915061214660208401611f95565b90509250929050565b6000806040838503121561216257600080fd5b61216b83611f95565b9150602083013563ffffffff8116811461218457600080fd5b809150509250929050565b600181811c908216806121a357607f821691505b60208210810361133257634e487b7160e01b600052602260045260246000fd5b634e487b7160e01b600052601160045260246000fd5b808201808211156104a0576104a06121c3565b818103818111156104a0576104a06121c3565b634e487b7160e01b600052603260045260246000fd5b60006020828403121561222757600080fd5b81516105f581612046565b60006020828403121561224457600080fd5b815180151581146105f557600080fd5b634e487b7160e01b600052601260045260246000fd5b60008261228757634e487b7160e01b600052601260045260246000fd5b500490565b634e487b7160e01b600052602160045260246000fd5b600082516122b4818460208701611f3e565b919091019291505056fea2646970667358221220c9886e6bbc953bef01a8b12a8e0d3dfbb79d26bc7bdc77bd7f0b5ab76273f8da64736f6c63430008140033",
    "linkReferences": {}
  },
  "methodIdentifiers": {
    "DOMAIN_SEPARATOR()": "3644e515",
    "allowance(address,address)": "dd62ed3e",
    "approve(address,uint256)": "095ea7b3",
    "balanceOf(address)": "70a08231",
    "checkpoints(address,uint32)": "f1127ed8",
    "decimals()": "313ce567",
    "decreaseAllowance(address,uint256)": "a457c2d7",
    "delegate(address)": "5c19a95c",
    "delegateBySig(address,uint256,uint256,uint8,bytes32,bytes32)": "c3cda520",
    "delegates(address)": "587cde1e",
    "depositFor(address,uint256)": "2f4f21e2",
    "getPastTotalSupply(uint256)": "8e539e8c",
    "getPastVotes(address,uint256)": "3a46b1a8",
    "getVotes(address)": "9ab24eb0",
    "increaseAllowance(address,uint256)": "39509351",
    "name()": "06fdde03",
    "nonces(address)": "7ecebe00",
    "numCheckpoints(address)": "6fcfff45",
    "permit(address,address,uint256,uint256,uint8,bytes32,bytes32)": "d505accf",
    "symbol()": "95d89b41",
    "totalSupply()": "18160ddd",
    "transfer(address,uint256)": "a9059cbb",
    "transferFrom(address,address,uint256)": "23b872dd",
    "underlying()": "6f307dc3",
    "withdrawTo(address,uint256)": "205c2878"
  },
  "id": 66
}