{
  "_format": "hh-sol-artifact-1",
  "contractName": "Escrow",
  "sourceName": "contracts/Escrow.sol",
  "abi": [
    {
      "inputs": [
        {
          "internalType": "address",
          "name": "_eip20",
          "type": "address"
        },
        {
          "internalType": "address payable",
          "name": "_canceler",
          "type": "address"
        },
        {
          "internalType": "uint256",
          "name": "_duration",
          "type": "uint256"
        },
        {
          "internalType": "address[]",
          "name": "_handlers",
          "type": "address[]"
        }
      ],
      "stateMutability": "nonpayable",
      "type": "constructor"
    },
    {
      "anonymous": false,
      "inputs": [
        {
          "indexed": true,
          "internalType": "uint256",
          "name": "_txId",
          "type": "uint256"
        },
        {
          "indexed": false,
          "internalType": "uint256",
          "name": "_bulkCount",
          "type": "uint256"
        }
      ],
      "name": "BulkTransfer",
      "type": "event"
    },
    {
      "anonymous": false,
      "inputs": [
        {
          "indexed": false,
          "internalType": "string",
          "name": "_url",
          "type": "string"
        },
        {
          "indexed": false,
          "internalType": "string",
          "name": "_hash",
          "type": "string"
        }
      ],
      "name": "IntermediateStorage",
      "type": "event"
    },
    {
      "anonymous": false,
      "inputs": [
        {
          "indexed": false,
          "internalType": "string",
          "name": "manifest",
          "type": "string"
        },
        {
          "indexed": false,
          "internalType": "string",
          "name": "hash",
          "type": "string"
        }
      ],
      "name": "Pending",
      "type": "event"
    },
    {
      "inputs": [],
      "name": "abort",
      "outputs": [],
      "stateMutability": "nonpayable",
      "type": "function"
    },
    {
      "inputs": [
        {
          "internalType": "address[]",
          "name": "_handlers",
          "type": "address[]"
        }
      ],
      "name": "addTrustedHandlers",
      "outputs": [],
      "stateMutability": "nonpayable",
      "type": "function"
    },
    {
      "inputs": [
        {
          "internalType": "address",
          "name": "",
          "type": "address"
        }
      ],
      "name": "areTrustedHandlers",
      "outputs": [
        {
          "internalType": "bool",
          "name": "",
          "type": "bool"
        }
      ],
      "stateMutability": "view",
      "type": "function"
    },
    {
      "inputs": [],
      "name": "bulkPaid",
      "outputs": [
        {
          "internalType": "bool",
          "name": "",
          "type": "bool"
        }
      ],
      "stateMutability": "view",
      "type": "function"
    },
    {
      "inputs": [
        {
          "internalType": "address[]",
          "name": "_recipients",
          "type": "address[]"
        },
        {
          "internalType": "uint256[]",
          "name": "_amounts",
          "type": "uint256[]"
        },
        {
          "internalType": "string",
          "name": "_url",
          "type": "string"
        },
        {
          "internalType": "string",
          "name": "_hash",
          "type": "string"
        },
        {
          "internalType": "uint256",
          "name": "_txId",
          "type": "uint256"
        }
      ],
      "name": "bulkPayOut",
      "outputs": [
        {
          "internalType": "bool",
          "name": "",
          "type": "bool"
        }
      ],
      "stateMutability": "nonpayable",
      "type": "function"
    },
    {
      "inputs": [],
      "name": "cancel",
      "outputs": [
        {
          "internalType": "bool",
          "name": "",
          "type": "bool"
        }
      ],
      "stateMutability": "nonpayable",
      "type": "function"
    },
    {
      "inputs": [],
      "name": "canceler",
      "outputs": [
        {
          "internalType": "address payable",
          "name": "",
          "type": "address"
        }
      ],
      "stateMutability": "view",
      "type": "function"
    },
    {
      "inputs": [],
      "name": "complete",
      "outputs": [],
      "stateMutability": "nonpayable",
      "type": "function"
    },
    {
      "inputs": [],
      "name": "duration",
      "outputs": [
        {
          "internalType": "uint256",
          "name": "",
          "type": "uint256"
        }
      ],
      "stateMutability": "view",
      "type": "function"
    },
    {
      "inputs": [],
      "name": "eip20",
      "outputs": [
        {
          "internalType": "address",
          "name": "",
          "type": "address"
        }
      ],
      "stateMutability": "view",
      "type": "function"
    },
    {
      "inputs": [
        {
          "internalType": "uint256",
          "name": "",
          "type": "uint256"
        }
      ],
      "name": "finalAmounts",
      "outputs": [
        {
          "internalType": "uint256",
          "name": "",
          "type": "uint256"
        }
      ],
      "stateMutability": "view",
      "type": "function"
    },
    {
      "inputs": [],
      "name": "finalResultsHash",
      "outputs": [
        {
          "internalType": "string",
          "name": "",
          "type": "string"
        }
      ],
      "stateMutability": "view",
      "type": "function"
    },
    {
      "inputs": [],
      "name": "finalResultsUrl",
      "outputs": [
        {
          "internalType": "string",
          "name": "",
          "type": "string"
        }
      ],
      "stateMutability": "view",
      "type": "function"
    },
    {
      "inputs": [],
      "name": "getBalance",
      "outputs": [
        {
          "internalType": "uint256",
          "name": "",
          "type": "uint256"
        }
      ],
      "stateMutability": "view",
      "type": "function"
    },
    {
      "inputs": [],
      "name": "getStatus",
      "outputs": [
        {
          "internalType": "enum Escrow.EscrowStatuses",
          "name": "",
          "type": "uint8"
        }
      ],
      "stateMutability": "view",
      "type": "function"
    },
    {
      "inputs": [],
      "name": "launcher",
      "outputs": [
        {
          "internalType": "address",
          "name": "",
          "type": "address"
        }
      ],
      "stateMutability": "view",
      "type": "function"
    },
    {
      "inputs": [],
      "name": "manifestHash",
      "outputs": [
        {
          "internalType": "string",
          "name": "",
          "type": "string"
        }
      ],
      "stateMutability": "view",
      "type": "function"
    },
    {
      "inputs": [],
      "name": "manifestUrl",
      "outputs": [
        {
          "internalType": "string",
          "name": "",
          "type": "string"
        }
      ],
      "stateMutability": "view",
      "type": "function"
    },
    {
      "inputs": [],
      "name": "recordingOracle",
      "outputs": [
        {
          "internalType": "address",
          "name": "",
          "type": "address"
        }
      ],
      "stateMutability": "view",
      "type": "function"
    },
    {
      "inputs": [],
      "name": "recordingOracleStake",
      "outputs": [
        {
          "internalType": "uint256",
          "name": "",
          "type": "uint256"
        }
      ],
      "stateMutability": "view",
      "type": "function"
    },
    {
      "inputs": [],
      "name": "reputationOracle",
      "outputs": [
        {
          "internalType": "address",
          "name": "",
          "type": "address"
        }
      ],
      "stateMutability": "view",
      "type": "function"
    },
    {
      "inputs": [],
      "name": "reputationOracleStake",
      "outputs": [
        {
          "internalType": "uint256",
          "name": "",
          "type": "uint256"
        }
      ],
      "stateMutability": "view",
      "type": "function"
    },
    {
      "inputs": [
        {
          "internalType": "address",
          "name": "_reputationOracle",
          "type": "address"
        },
        {
          "internalType": "address",
          "name": "_recordingOracle",
          "type": "address"
        },
        {
          "internalType": "uint256",
          "name": "_reputationOracleStake",
          "type": "uint256"
        },
        {
          "internalType": "uint256",
          "name": "_recordingOracleStake",
          "type": "uint256"
        },
        {
          "internalType": "string",
          "name": "_url",
          "type": "string"
        },
        {
          "internalType": "string",
          "name": "_hash",
          "type": "string"
        }
      ],
      "name": "setup",
      "outputs": [],
      "stateMutability": "nonpayable",
      "type": "function"
    },
    {
      "inputs": [],
      "name": "staking",
      "outputs": [
        {
          "internalType": "address",
          "name": "",
          "type": "address"
        }
      ],
      "stateMutability": "view",
      "type": "function"
    },
    {
      "inputs": [],
      "name": "status",
      "outputs": [
        {
          "internalType": "enum Escrow.EscrowStatuses",
          "name": "",
          "type": "uint8"
        }
      ],
      "stateMutability": "view",
      "type": "function"
    },
    {
      "inputs": [
        {
          "internalType": "string",
          "name": "_url",
          "type": "string"
        },
        {
          "internalType": "string",
          "name": "_hash",
          "type": "string"
        }
      ],
      "name": "storeResults",
      "outputs": [],
      "stateMutability": "nonpayable",
      "type": "function"
    }
  ],
  "bytecode": "0x60806040523480156200001157600080fd5b506040516200471c3803806200471c8339818101604052810190620000379190620004cf565b83600760006101000a81548173ffffffffffffffffffffffffffffffffffffffff021916908373ffffffffffffffffffffffffffffffffffffffff16021790555060008060006101000a81548160ff02191690836005811115620000c4577f4e487b7100000000000000000000000000000000000000000000000000000000600052602160045260246000fd5b0217905550620000e342836200023660201b620024981790919060201c565b600c8190555033600260006101000a81548173ffffffffffffffffffffffffffffffffffffffff021916908373ffffffffffffffffffffffffffffffffffffffff16021790555082600360006101000a81548173ffffffffffffffffffffffffffffffffffffffff021916908373ffffffffffffffffffffffffffffffffffffffff1602179055506001600f60008573ffffffffffffffffffffffffffffffffffffffff1673ffffffffffffffffffffffffffffffffffffffff16815260200190815260200160002060006101000a81548160ff0219169083151502179055506001600f60003373ffffffffffffffffffffffffffffffffffffffff1673ffffffffffffffffffffffffffffffffffffffff16815260200190815260200160002060006101000a81548160ff0219169083151502179055506200022c816200029960201b60201c565b50505050620008b7565b60008082846200024791906200064f565b9050838110156200028f576040517f08c379a00000000000000000000000000000000000000000000000000000000081526004016200028690620005a2565b60405180910390fd5b8091505092915050565b600f60003373ffffffffffffffffffffffffffffffffffffffff1673ffffffffffffffffffffffffffffffffffffffff16815260200190815260200160002060009054906101000a900460ff1662000328576040517f08c379a00000000000000000000000000000000000000000000000000000000081526004016200031f90620005c4565b60405180910390fd5b60005b8151811015620003e4576001600f600084848151811062000375577f4e487b7100000000000000000000000000000000000000000000000000000000600052603260045260246000fd5b602002602001015173ffffffffffffffffffffffffffffffffffffffff1673ffffffffffffffffffffffffffffffffffffffff16815260200190815260200160002060006101000a81548160ff0219169083151502179055508080620003db9062000734565b9150506200032b565b5050565b6000620003ff620003f9846200060f565b620005e6565b905080838252602082019050828560208602820111156200041f57600080fd5b60005b858110156200045357816200043888826200045d565b84526020840193506020830192505060018101905062000422565b5050509392505050565b6000815190506200046e8162000869565b92915050565b600081519050620004858162000883565b92915050565b600082601f8301126200049d57600080fd5b8151620004af848260208601620003e8565b91505092915050565b600081519050620004c9816200089d565b92915050565b60008060008060808587031215620004e657600080fd5b6000620004f6878288016200045d565b9450506020620005098782880162000474565b93505060406200051c87828801620004b8565b925050606085015167ffffffffffffffff8111156200053a57600080fd5b62000548878288016200048b565b91505092959194509250565b600062000563601b836200063e565b91506200057082620007f1565b602082019050919050565b60006200058a602b836200063e565b915062000597826200081a565b604082019050919050565b60006020820190508181036000830152620005bd8162000554565b9050919050565b60006020820190508181036000830152620005df816200057b565b9050919050565b6000620005f262000605565b9050620006008282620006fe565b919050565b6000604051905090565b600067ffffffffffffffff8211156200062d576200062c620007b1565b5b602082029050602081019050919050565b600082825260208201905092915050565b60006200065c82620006f4565b91506200066983620006f4565b9250827fffffffffffffffffffffffffffffffffffffffffffffffffffffffffffffffff03821115620006a157620006a062000782565b5b828201905092915050565b6000620006b982620006d4565b9050919050565b6000620006cd82620006d4565b9050919050565b600073ffffffffffffffffffffffffffffffffffffffff82169050919050565b6000819050919050565b6200070982620007e0565b810181811067ffffffffffffffff821117156200072b576200072a620007b1565b5b80604052505050565b60006200074182620006f4565b91507fffffffffffffffffffffffffffffffffffffffffffffffffffffffffffffffff82141562000777576200077662000782565b5b600182019050919050565b7f4e487b7100000000000000000000000000000000000000000000000000000000600052601160045260246000fd5b7f4e487b7100000000000000000000000000000000000000000000000000000000600052604160045260246000fd5b6000601f19601f8301169050919050565b7f536166654d6174683a206164646974696f6e206f766572666c6f770000000000600082015250565b7f416464726573732063616c6c696e672063616e6e6f742061646420747275737460008201527f65642068616e646c657273000000000000000000000000000000000000000000602082015250565b6200087481620006ac565b81146200088057600080fd5b50565b6200088e81620006c0565b81146200089a57600080fd5b50565b620008a881620006f4565b8114620008b457600080fd5b50565b613e5580620008c76000396000f3fe608060405234801561001057600080fd5b506004361061018e5760003560e01c8063697e4b87116100de578063bb19d62f11610097578063ea8a1af011610071578063ea8a1af01461041f578063f17171e91461043d578063f926657e1461046d578063fad844c1146104895761018e565b8063bb19d62f146103b3578063cc06cfa9146103d1578063d65281f0146103ef5761018e565b8063697e4b87146102f15780639753e4321461030d578063992d454d1461032b5780639c48b102146103495780639eb262f314610367578063b63d1a00146103835761018e565b8063200d2ed21161014b57806343aba9c21161012557806343aba9c21461028d5780634cf088d9146102ab5780634e69d560146102c9578063522e1177146102e75761018e565b8063200d2ed214610247578063337f3f321461026557806335a063b4146102835761018e565b80630529198f146101935780630f46c9aa146101b15780630fb5a6b4146101cf57806312065fe0146101ed57806316eebd1e1461020b578063196214d314610229575b600080fd5b61019b6104a7565b6040516101a89190613578565b60405180910390f35b6101b96104ad565b6040516101c691906132a8565b60405180910390f35b6101d761053b565b6040516101e49190613578565b60405180910390f35b6101f5610541565b6040516102029190613578565b60405180910390f35b6102136105f3565b60405161022091906131ea565b60405180910390f35b610231610619565b60405161023e91906131ea565b60405180910390f35b61024f61063f565b60405161025c919061328d565b60405180910390f35b61026d610650565b60405161027a91906132a8565b60405180910390f35b61028b6106de565b005b610295610940565b6040516102a291906132a8565b60405180910390f35b6102b36109ce565b6040516102c091906131ea565b60405180910390f35b6102d16109f4565b6040516102de919061328d565b60405180910390f35b6102ef610a0a565b005b61030b60048036038101906103069190612da3565b610d4e565b005b610315610fa3565b60405161032291906131ea565b60405180910390f35b610333610fc9565b6040516103409190613205565b60405180910390f35b610351610fef565b60405161035e91906132a8565b60405180910390f35b610381600480360381019061037c9190612c62565b61107d565b005b61039d60048036038101906103989190612ca3565b6111c4565b6040516103aa9190613272565b60405180910390f35b6103bb611b6a565b6040516103c89190613578565b60405180910390f35b6103d9611b70565b6040516103e69190613272565b60405180910390f35b61040960048036038101906104049190612e0f565b611b83565b6040516104169190613578565b60405180910390f35b610427611ba7565b6040516104349190613272565b60405180910390f35b61045760048036038101906104529190612b57565b611f35565b6040516104649190613272565b60405180910390f35b61048760048036038101906104829190612ba9565b611f55565b005b610491612472565b60405161049e91906131ea565b60405180910390f35b60065481565b600b80546104ba9061387e565b80601f01602080910402602001604051908101604052809291908181526020018280546104e69061387e565b80156105335780601f1061050857610100808354040283529160200191610533565b820191906000526020600020905b81548152906001019060200180831161051657829003601f168201915b505050505081565b600c5481565b6000600760009054906101000a900473ffffffffffffffffffffffffffffffffffffffff1673ffffffffffffffffffffffffffffffffffffffff166370a08231306040518263ffffffff1660e01b815260040161059e91906131ea565b60206040518083038186803b1580156105b657600080fd5b505afa1580156105ca573d6000803e3d6000fd5b505050506040513d601f19601f820116820180604052508101906105ee9190612e38565b905090565b600260009054906101000a900473ffffffffffffffffffffffffffffffffffffffff1681565b600760009054906101000a900473ffffffffffffffffffffffffffffffffffffffff1681565b60008054906101000a900460ff1681565b6009805461065d9061387e565b80601f01602080910402602001604051908101604052809291908181526020018280546106899061387e565b80156106d65780601f106106ab576101008083540402835291602001916106d6565b820191906000526020600020905b8154815290600101906020018083116106b957829003601f168201915b505050505081565b600f60003373ffffffffffffffffffffffffffffffffffffffff1673ffffffffffffffffffffffffffffffffffffffff16815260200190815260200160002060009054906101000a900460ff1661076a576040517f08c379a0000000000000000000000000000000000000000000000000000000008152600401610761906134d8565b60405180910390fd5b600460058111156107a4577f4e487b7100000000000000000000000000000000000000000000000000000000600052602160045260246000fd5b60008054906101000a900460ff1660058111156107ea577f4e487b7100000000000000000000000000000000000000000000000000000000600052602160045260246000fd5b141561082b576040517f08c379a000000000000000000000000000000000000000000000000000000000815260040161082290613518565b60405180910390fd5b60036005811115610865577f4e487b7100000000000000000000000000000000000000000000000000000000600052602160045260246000fd5b60008054906101000a900460ff1660058111156108ab577f4e487b7100000000000000000000000000000000000000000000000000000000600052602160045260246000fd5b14156108ec576040517f08c379a00000000000000000000000000000000000000000000000000000000081526004016108e390613418565b60405180910390fd5b60006108f6610541565b1461090557610903611ba7565b505b600360009054906101000a900473ffffffffffffffffffffffffffffffffffffffff1673ffffffffffffffffffffffffffffffffffffffff16ff5b600a805461094d9061387e565b80601f01602080910402602001604051908101604052809291908181526020018280546109799061387e565b80156109c65780601f1061099b576101008083540402835291602001916109c6565b820191906000526020600020905b8154815290600101906020018083116109a957829003601f168201915b505050505081565b600460009054906101000a900473ffffffffffffffffffffffffffffffffffffffff1681565b60008060009054906101000a900460ff16905090565b42600c5411610a4e576040517f08c379a0000000000000000000000000000000000000000000000000000000008152600401610a4590613538565b60405180910390fd5b600060019054906101000a900473ffffffffffffffffffffffffffffffffffffffff1673ffffffffffffffffffffffffffffffffffffffff163373ffffffffffffffffffffffffffffffffffffffff161480610af35750600f60003373ffffffffffffffffffffffffffffffffffffffff1673ffffffffffffffffffffffffffffffffffffffff16815260200190815260200160002060009054906101000a900460ff165b610b32576040517f08c379a0000000000000000000000000000000000000000000000000000000008152600401610b29906134b8565b60405180910390fd5b60036005811115610b6c577f4e487b7100000000000000000000000000000000000000000000000000000000600052602160045260246000fd5b60008054906101000a900460ff166005811115610bb2577f4e487b7100000000000000000000000000000000000000000000000000000000600052602160045260246000fd5b14610bf2576040517f08c379a0000000000000000000000000000000000000000000000000000000008152600401610be990613358565b60405180910390fd5b60046000806101000a81548160ff02191690836005811115610c3d577f4e487b7100000000000000000000000000000000000000000000000000000000600052602160045260246000fd5b0217905550600460009054906101000a900473ffffffffffffffffffffffffffffffffffffffff1673ffffffffffffffffffffffffffffffffffffffff166366666aa96040518163ffffffff1660e01b815260040160206040518083038186803b158015610caa57600080fd5b505afa158015610cbe573d6000803e3d6000fd5b505050506040513d601f19601f82011682018060405250810190610ce29190612b80565b73ffffffffffffffffffffffffffffffffffffffff1663092193ab306040518263ffffffff1660e01b8152600401610d1a91906131ea565b600060405180830381600087803b158015610d3457600080fd5b505af1158015610d48573d6000803e3d6000fd5b50505050565b600f60003373ffffffffffffffffffffffffffffffffffffffff1673ffffffffffffffffffffffffffffffffffffffff16815260200190815260200160002060009054906101000a900460ff16610dda576040517f08c379a0000000000000000000000000000000000000000000000000000000008152600401610dd1906134d8565b60405180910390fd5b42600c5411610e1e576040517f08c379a0000000000000000000000000000000000000000000000000000000008152600401610e1590613538565b60405180910390fd5b60016005811115610e58577f4e487b7100000000000000000000000000000000000000000000000000000000600052602160045260246000fd5b60008054906101000a900460ff166005811115610e9e577f4e487b7100000000000000000000000000000000000000000000000000000000600052602160045260246000fd5b1480610f27575060026005811115610edf577f4e487b7100000000000000000000000000000000000000000000000000000000600052602160045260246000fd5b60008054906101000a900460ff166005811115610f25577f4e487b7100000000000000000000000000000000000000000000000000000000600052602160045260246000fd5b145b610f66576040517f08c379a0000000000000000000000000000000000000000000000000000000008152600401610f5d90613378565b60405180910390fd5b7fb20e0717219840fd5684a80bec782e8babb56ea224f677561b791a61192605c18282604051610f979291906132ca565b60405180910390a15050565b600160009054906101000a900473ffffffffffffffffffffffffffffffffffffffff1681565b600360009054906101000a900473ffffffffffffffffffffffffffffffffffffffff1681565b60088054610ffc9061387e565b80601f01602080910402602001604051908101604052809291908181526020018280546110289061387e565b80156110755780601f1061104a57610100808354040283529160200191611075565b820191906000526020600020905b81548152906001019060200180831161105857829003601f168201915b505050505081565b600f60003373ffffffffffffffffffffffffffffffffffffffff1673ffffffffffffffffffffffffffffffffffffffff16815260200190815260200160002060009054906101000a900460ff16611109576040517f08c379a000000000000000000000000000000000000000000000000000000000815260040161110090613458565b60405180910390fd5b60005b81518110156111c0576001600f6000848481518110611154577f4e487b7100000000000000000000000000000000000000000000000000000000600052603260045260246000fd5b602002602001015173ffffffffffffffffffffffffffffffffffffffff1673ffffffffffffffffffffffffffffffffffffffff16815260200190815260200160002060006101000a81548160ff02191690831515021790555080806111b8906138e1565b91505061110c565b5050565b6000600f60003373ffffffffffffffffffffffffffffffffffffffff1673ffffffffffffffffffffffffffffffffffffffff16815260200190815260200160002060009054906101000a900460ff16611252576040517f08c379a0000000000000000000000000000000000000000000000000000000008152600401611249906134d8565b60405180910390fd5b600061125c610541565b141561129d576040517f08c379a000000000000000000000000000000000000000000000000000000000815260040161129490613558565b60405180910390fd5b600060058111156112d7577f4e487b7100000000000000000000000000000000000000000000000000000000600052602160045260246000fd5b60008054906101000a900460ff16600581111561131d577f4e487b7100000000000000000000000000000000000000000000000000000000600052602160045260246000fd5b141561135e576040517f08c379a000000000000000000000000000000000000000000000000000000000815260040161135590613398565b60405180910390fd5b60036005811115611398577f4e487b7100000000000000000000000000000000000000000000000000000000600052602160045260246000fd5b60008054906101000a900460ff1660058111156113de577f4e487b7100000000000000000000000000000000000000000000000000000000600052602160045260246000fd5b141561141f576040517f08c379a000000000000000000000000000000000000000000000000000000000815260040161141690613418565b60405180910390fd5b42600c5411611463576040517f08c379a000000000000000000000000000000000000000000000000000000000815260040161145a90613538565b60405180910390fd5b84518651146114a7576040517f08c379a000000000000000000000000000000000000000000000000000000000815260040161149e90613478565b60405180910390fd5b606463ffffffff168651106114f1576040517f08c379a00000000000000000000000000000000000000000000000000000000081526004016114e890613438565b60405180910390fd5b60006114fb610541565b90506000600e60006101000a81548160ff0219169083151502179055506000805b87518110156115865787818151811061155e577f4e487b7100000000000000000000000000000000000000000000000000000000600052603260045260246000fd5b6020026020010151826115719190613672565b9150808061157e906138e1565b91505061151c565b506b033b2e3c9fd0803ce800000081106115d5576040517f08c379a00000000000000000000000000000000000000000000000000000000081526004016115cc906134f8565b60405180910390fd5b808210156115f657600e60009054906101000a900460ff1692505050611b61565b600080865114158061160a57506000875114155b905080156116415786600a9080519060200190611628929190612896565b5085600b908051906020019061163f929190612896565b505b60008061164d8a6124f6565b915091506000600760009054906101000a900473ffffffffffffffffffffffffffffffffffffffff16905060005b8c518110156117a7578173ffffffffffffffffffffffffffffffffffffffff1663a9059cbb8e83815181106116d9577f4e487b7100000000000000000000000000000000000000000000000000000000600052603260045260246000fd5b6020026020010151600d848154811061171b577f4e487b7100000000000000000000000000000000000000000000000000000000600052603260045260246000fd5b90600052602060002001546040518363ffffffff1660e01b8152600401611743929190613249565b602060405180830381600087803b15801561175d57600080fd5b505af1158015611771573d6000803e3d6000fd5b505050506040513d601f19601f820116820180604052508101906117959190612d7a565b50806117a0906138e1565b905061167b565b50600d60006117b6919061291c565b8073ffffffffffffffffffffffffffffffffffffffff1663a9059cbb600060019054906101000a900473ffffffffffffffffffffffffffffffffffffffff16856040518363ffffffff1660e01b8152600401611813929190613249565b602060405180830381600087803b15801561182d57600080fd5b505af1158015611841573d6000803e3d6000fd5b505050506040513d601f19601f820116820180604052508101906118659190612d7a565b801561191c57508073ffffffffffffffffffffffffffffffffffffffff1663a9059cbb600160009054906101000a900473ffffffffffffffffffffffffffffffffffffffff16846040518363ffffffff1660e01b81526004016118c9929190613249565b602060405180830381600087803b1580156118e357600080fd5b505af11580156118f7573d6000803e3d6000fd5b505050506040513d601f19601f8201168201806040525081019061191b9190612d7a565b5b600e60006101000a81548160ff02191690831515021790555061193d610541565b9550600e60009054906101000a900460ff1615611b0f576001600581111561198e577f4e487b7100000000000000000000000000000000000000000000000000000000600052602160045260246000fd5b60008054906101000a900460ff1660058111156119d4577f4e487b7100000000000000000000000000000000000000000000000000000000600052602160045260246000fd5b1415611a2b5760026000806101000a81548160ff02191690836005811115611a25577f4e487b7100000000000000000000000000000000000000000000000000000000600052602160045260246000fd5b02179055505b600086148015611ab8575060026005811115611a70577f4e487b7100000000000000000000000000000000000000000000000000000000600052602160045260246000fd5b60008054906101000a900460ff166005811115611ab6577f4e487b7100000000000000000000000000000000000000000000000000000000600052602160045260246000fd5b145b15611b0e5760036000806101000a81548160ff02191690836005811115611b08577f4e487b7100000000000000000000000000000000000000000000000000000000600052602160045260246000fd5b02179055505b5b877f8ed71c3a6fb899bfe96968ade5a4119b380c0d642a775106eb80aa795450777e8d51604051611b409190613578565b60405180910390a2600e60009054906101000a900460ff1696505050505050505b95945050505050565b60055481565b600e60009054906101000a900460ff1681565b600d8181548110611b9357600080fd5b906000526020600020016000915090505481565b6000600f60003373ffffffffffffffffffffffffffffffffffffffff1673ffffffffffffffffffffffffffffffffffffffff16815260200190815260200160002060009054906101000a900460ff16611c35576040517f08c379a0000000000000000000000000000000000000000000000000000000008152600401611c2c906134d8565b60405180910390fd5b6000611c3f610541565b1415611c80576040517f08c379a0000000000000000000000000000000000000000000000000000000008152600401611c7790613558565b60405180910390fd5b60046005811115611cba577f4e487b7100000000000000000000000000000000000000000000000000000000600052602160045260246000fd5b60008054906101000a900460ff166005811115611d00577f4e487b7100000000000000000000000000000000000000000000000000000000600052602160045260246000fd5b1415611d41576040517f08c379a0000000000000000000000000000000000000000000000000000000008152600401611d3890613518565b60405180910390fd5b60036005811115611d7b577f4e487b7100000000000000000000000000000000000000000000000000000000600052602160045260246000fd5b60008054906101000a900460ff166005811115611dc1577f4e487b7100000000000000000000000000000000000000000000000000000000600052602160045260246000fd5b1415611e02576040517f08c379a0000000000000000000000000000000000000000000000000000000008152600401611df990613418565b60405180910390fd5b6000600760009054906101000a900473ffffffffffffffffffffffffffffffffffffffff1673ffffffffffffffffffffffffffffffffffffffff1663a9059cbb600360009054906101000a900473ffffffffffffffffffffffffffffffffffffffff16611e6d610541565b6040518363ffffffff1660e01b8152600401611e8a929190613220565b602060405180830381600087803b158015611ea457600080fd5b505af1158015611eb8573d6000803e3d6000fd5b505050506040513d601f19601f82011682018060405250810190611edc9190612d7a565b905060056000806101000a81548160ff02191690836005811115611f29577f4e487b7100000000000000000000000000000000000000000000000000000000600052602160045260246000fd5b02179055508091505090565b600f6020528060005260406000206000915054906101000a900460ff1681565b600f60003373ffffffffffffffffffffffffffffffffffffffff1673ffffffffffffffffffffffffffffffffffffffff16815260200190815260200160002060009054906101000a900460ff16611fe1576040517f08c379a0000000000000000000000000000000000000000000000000000000008152600401611fd8906134d8565b60405180910390fd5b42600c5411612025576040517f08c379a000000000000000000000000000000000000000000000000000000000815260040161201c90613538565b60405180910390fd5b600073ffffffffffffffffffffffffffffffffffffffff168673ffffffffffffffffffffffffffffffffffffffff161415612095576040517f08c379a000000000000000000000000000000000000000000000000000000000815260040161208c90613338565b60405180910390fd5b600073ffffffffffffffffffffffffffffffffffffffff168573ffffffffffffffffffffffffffffffffffffffff161415612105576040517f08c379a00000000000000000000000000000000000000000000000000000000081526004016120fc90613338565b60405180910390fd5b600061211a848661249890919063ffffffff16565b90506000811015801561212e575060648111155b61216d576040517f08c379a0000000000000000000000000000000000000000000000000000000008152600401612164906133b8565b60405180910390fd5b600060058111156121a7577f4e487b7100000000000000000000000000000000000000000000000000000000600052602160045260246000fd5b60008054906101000a900460ff1660058111156121ed577f4e487b7100000000000000000000000000000000000000000000000000000000600052602160045260246000fd5b1461222d576040517f08c379a0000000000000000000000000000000000000000000000000000000008152600401612224906133d8565b60405180910390fd5b86600060016101000a81548173ffffffffffffffffffffffffffffffffffffffff021916908373ffffffffffffffffffffffffffffffffffffffff16021790555085600160006101000a81548173ffffffffffffffffffffffffffffffffffffffff021916908373ffffffffffffffffffffffffffffffffffffffff1602179055506001600f60008060019054906101000a900473ffffffffffffffffffffffffffffffffffffffff1673ffffffffffffffffffffffffffffffffffffffff1673ffffffffffffffffffffffffffffffffffffffff16815260200190815260200160002060006101000a81548160ff0219169083151502179055506001600f6000600160009054906101000a900473ffffffffffffffffffffffffffffffffffffffff1673ffffffffffffffffffffffffffffffffffffffff1673ffffffffffffffffffffffffffffffffffffffff16815260200190815260200160002060006101000a81548160ff021916908315150217905550846005819055508360068190555082600890805190602001906123c6929190612896565b5081600990805190602001906123dd929190612896565b5060016000806101000a81548160ff02191690836005811115612429577f4e487b7100000000000000000000000000000000000000000000000000000000600052602160045260246000fd5b02179055507f8ec464ac0c8e44e17130cd1ffb09967fa6f2c33339289678a59ea0112cfc2aa960086009604051612461929190613301565b60405180910390a150505050505050565b600060019054906101000a900473ffffffffffffffffffffffffffffffffffffffff1681565b60008082846124a79190613672565b9050838110156124ec576040517f08c379a00000000000000000000000000000000000000000000000000000000081526004016124e3906133f8565b60405180910390fd5b8091505092915050565b60008060008060005b85518110156126b2576000612572606461256489858151811061254b577f4e487b7100000000000000000000000000000000000000000000000000000000600052603260045260246000fd5b60200260200101516005546126c090919063ffffffff16565b61273b90919063ffffffff16565b905060006125de60646125d08a86815181106125b7577f4e487b7100000000000000000000000000000000000000000000000000000000600052603260045260246000fd5b60200260200101516006546126c090919063ffffffff16565b61273b90919063ffffffff16565b9050600061264782612639858c8881518110612623577f4e487b7100000000000000000000000000000000000000000000000000000000600052603260045260246000fd5b602002602001015161278590919063ffffffff16565b61278590919063ffffffff16565b905061265c838761249890919063ffffffff16565b9550612671828661249890919063ffffffff16565b9450600d81908060018154018082558091505060019003906000526020600020016000909190919091505550505080806126aa906138e1565b9150506124ff565b508181935093505050915091565b6000808314156126d35760009050612735565b600082846126e191906136f9565b90508284826126f091906136c8565b14612730576040517f08c379a000000000000000000000000000000000000000000000000000000000815260040161272790613498565b60405180910390fd5b809150505b92915050565b600061277d83836040518060400160405280601a81526020017f536166654d6174683a206469766973696f6e206279207a65726f0000000000008152506127cf565b905092915050565b60006127c783836040518060400160405280601e81526020017f536166654d6174683a207375627472616374696f6e206f766572666c6f770000815250612832565b905092915050565b60008083118290612816576040517f08c379a000000000000000000000000000000000000000000000000000000000815260040161280d91906132a8565b60405180910390fd5b506000838561282591906136c8565b9050809150509392505050565b600083831115829061287a576040517f08c379a000000000000000000000000000000000000000000000000000000000815260040161287191906132a8565b60405180910390fd5b50600083856128899190613753565b9050809150509392505050565b8280546128a29061387e565b90600052602060002090601f0160209004810192826128c4576000855561290b565b82601f106128dd57805160ff191683800117855561290b565b8280016001018555821561290b579182015b8281111561290a5782518255916020019190600101906128ef565b5b509050612918919061293d565b5090565b508054600082559060005260206000209081019061293a919061293d565b50565b5b8082111561295657600081600090555060010161293e565b5090565b600061296d612968846135b8565b613593565b9050808382526020820190508285602086028201111561298c57600080fd5b60005b858110156129bc57816129a28882612a70565b84526020840193506020830192505060018101905061298f565b5050509392505050565b60006129d96129d4846135e4565b613593565b905080838252602082019050828560208602820111156129f857600080fd5b60005b85811015612a285781612a0e8882612b2d565b8452602084019350602083019250506001810190506129fb565b5050509392505050565b6000612a45612a4084613610565b613593565b905082815260208101848484011115612a5d57600080fd5b612a6884828561383c565b509392505050565b600081359050612a7f81613dda565b92915050565b600081519050612a9481613dda565b92915050565b600082601f830112612aab57600080fd5b8135612abb84826020860161295a565b91505092915050565b600082601f830112612ad557600080fd5b8135612ae58482602086016129c6565b91505092915050565b600081519050612afd81613df1565b92915050565b600082601f830112612b1457600080fd5b8135612b24848260208601612a32565b91505092915050565b600081359050612b3c81613e08565b92915050565b600081519050612b5181613e08565b92915050565b600060208284031215612b6957600080fd5b6000612b7784828501612a70565b91505092915050565b600060208284031215612b9257600080fd5b6000612ba084828501612a85565b91505092915050565b60008060008060008060c08789031215612bc257600080fd5b6000612bd089828a01612a70565b9650506020612be189828a01612a70565b9550506040612bf289828a01612b2d565b9450506060612c0389828a01612b2d565b935050608087013567ffffffffffffffff811115612c2057600080fd5b612c2c89828a01612b03565b92505060a087013567ffffffffffffffff811115612c4957600080fd5b612c5589828a01612b03565b9150509295509295509295565b600060208284031215612c7457600080fd5b600082013567ffffffffffffffff811115612c8e57600080fd5b612c9a84828501612a9a565b91505092915050565b600080600080600060a08688031215612cbb57600080fd5b600086013567ffffffffffffffff811115612cd557600080fd5b612ce188828901612a9a565b955050602086013567ffffffffffffffff811115612cfe57600080fd5b612d0a88828901612ac4565b945050604086013567ffffffffffffffff811115612d2757600080fd5b612d3388828901612b03565b935050606086013567ffffffffffffffff811115612d5057600080fd5b612d5c88828901612b03565b9250506080612d6d88828901612b2d565b9150509295509295909350565b600060208284031215612d8c57600080fd5b6000612d9a84828501612aee565b91505092915050565b60008060408385031215612db657600080fd5b600083013567ffffffffffffffff811115612dd057600080fd5b612ddc85828601612b03565b925050602083013567ffffffffffffffff811115612df957600080fd5b612e0585828601612b03565b9150509250929050565b600060208284031215612e2157600080fd5b6000612e2f84828501612b2d565b91505092915050565b600060208284031215612e4a57600080fd5b6000612e5884828501612b42565b91505092915050565b612e6a816137f4565b82525050565b612e7981613799565b82525050565b612e8881613787565b82525050565b612e97816137ab565b82525050565b612ea681613806565b82525050565b6000612eb782613656565b612ec18185613661565b9350612ed181856020860161384b565b612eda81613a15565b840191505092915050565b60008154612ef28161387e565b612efc8186613661565b94506001821660008114612f175760018114612f2957612f5c565b60ff1983168652602086019350612f5c565b612f3285613641565b60005b83811015612f5457815481890152600182019150602081019050612f35565b808801955050505b50505092915050565b6000612f72602083613661565b9150612f7d82613a26565b602082019050919050565b6000612f95601883613661565b9150612fa082613a4f565b602082019050919050565b6000612fb8602d83613661565b9150612fc382613a78565b604082019050919050565b6000612fdb601f83613661565b9150612fe682613ac7565b602082019050919050565b6000612ffe601383613661565b915061300982613af0565b602082019050919050565b6000613021602383613661565b915061302c82613b19565b604082019050919050565b6000613044601b83613661565b915061304f82613b68565b602082019050919050565b6000613067601b83613661565b915061307282613b91565b602082019050919050565b600061308a601383613661565b915061309582613bba565b602082019050919050565b60006130ad602b83613661565b91506130b882613be3565b604082019050919050565b60006130d0602b83613661565b91506130db82613c32565b604082019050919050565b60006130f3602183613661565b91506130fe82613c81565b604082019050919050565b6000613116601e83613661565b915061312182613cd0565b602082019050919050565b6000613139601b83613661565b915061314482613cf9565b602082019050919050565b600061315c601383613661565b915061316782613d22565b602082019050919050565b600061317f601f83613661565b915061318a82613d4b565b602082019050919050565b60006131a2601083613661565b91506131ad82613d74565b602082019050919050565b60006131c5601b83613661565b91506131d082613d9d565b602082019050919050565b6131e4816137ea565b82525050565b60006020820190506131ff6000830184612e7f565b92915050565b600060208201905061321a6000830184612e70565b92915050565b60006040820190506132356000830185612e61565b61324260208301846131db565b9392505050565b600060408201905061325e6000830185612e7f565b61326b60208301846131db565b9392505050565b60006020820190506132876000830184612e8e565b92915050565b60006020820190506132a26000830184612e9d565b92915050565b600060208201905081810360008301526132c28184612eac565b905092915050565b600060408201905081810360008301526132e48185612eac565b905081810360208301526132f88184612eac565b90509392505050565b6000604082019050818103600083015261331b8185612ee5565b9050818103602083015261332f8184612ee5565b90509392505050565b6000602082019050818103600083015261335181612f65565b9050919050565b6000602082019050818103600083015261337181612f88565b9050919050565b6000602082019050818103600083015261339181612fab565b9050919050565b600060208201905081810360008301526133b181612fce565b9050919050565b600060208201905081810360008301526133d181612ff1565b9050919050565b600060208201905081810360008301526133f181613014565b9050919050565b6000602082019050818103600083015261341181613037565b9050919050565b600060208201905081810360008301526134318161305a565b9050919050565b600060208201905081810360008301526134518161307d565b9050919050565b60006020820190508181036000830152613471816130a0565b9050919050565b60006020820190508181036000830152613491816130c3565b9050919050565b600060208201905081810360008301526134b1816130e6565b9050919050565b600060208201905081810360008301526134d181613109565b9050919050565b600060208201905081810360008301526134f18161312c565b9050919050565b600060208201905081810360008301526135118161314f565b9050919050565b6000602082019050818103600083015261353181613172565b9050919050565b6000602082019050818103600083015261355181613195565b9050919050565b60006020820190508181036000830152613571816131b8565b9050919050565b600060208201905061358d60008301846131db565b92915050565b600061359d6135ae565b90506135a982826138b0565b919050565b6000604051905090565b600067ffffffffffffffff8211156135d3576135d26139e6565b5b602082029050602081019050919050565b600067ffffffffffffffff8211156135ff576135fe6139e6565b5b602082029050602081019050919050565b600067ffffffffffffffff82111561362b5761362a6139e6565b5b61363482613a15565b9050602081019050919050565b60008190508160005260206000209050919050565b600081519050919050565b600082825260208201905092915050565b600061367d826137ea565b9150613688836137ea565b9250827fffffffffffffffffffffffffffffffffffffffffffffffffffffffffffffffff038211156136bd576136bc61392a565b5b828201905092915050565b60006136d3826137ea565b91506136de836137ea565b9250826136ee576136ed613959565b5b828204905092915050565b6000613704826137ea565b915061370f836137ea565b9250817fffffffffffffffffffffffffffffffffffffffffffffffffffffffffffffffff04831182151516156137485761374761392a565b5b828202905092915050565b600061375e826137ea565b9150613769836137ea565b92508282101561377c5761377b61392a565b5b828203905092915050565b6000613792826137ca565b9050919050565b60006137a4826137ca565b9050919050565b60008115159050919050565b60008190506137c582613dc6565b919050565b600073ffffffffffffffffffffffffffffffffffffffff82169050919050565b6000819050919050565b60006137ff82613818565b9050919050565b6000613811826137b7565b9050919050565b60006138238261382a565b9050919050565b6000613835826137ca565b9050919050565b82818337600083830152505050565b60005b8381101561386957808201518184015260208101905061384e565b83811115613878576000848401525b50505050565b6000600282049050600182168061389657607f821691505b602082108114156138aa576138a96139b7565b5b50919050565b6138b982613a15565b810181811067ffffffffffffffff821117156138d8576138d76139e6565b5b80604052505050565b60006138ec826137ea565b91507fffffffffffffffffffffffffffffffffffffffffffffffffffffffffffffffff82141561391f5761391e61392a565b5b600182019050919050565b7f4e487b7100000000000000000000000000000000000000000000000000000000600052601160045260246000fd5b7f4e487b7100000000000000000000000000000000000000000000000000000000600052601260045260246000fd5b7f4e487b7100000000000000000000000000000000000000000000000000000000600052602160045260246000fd5b7f4e487b7100000000000000000000000000000000000000000000000000000000600052602260045260246000fd5b7f4e487b7100000000000000000000000000000000000000000000000000000000600052604160045260246000fd5b6000601f19601f8301169050919050565b7f496e76616c6964206f72206d697373696e6720746f6b656e207370656e646572600082015250565b7f457363726f77206e6f7420696e20506169642073746174650000000000000000600082015250565b7f457363726f77206e6f7420696e2050656e64696e67206f72205061727469616c60008201527f2073746174757320737461746500000000000000000000000000000000000000602082015250565b7f457363726f7720696e204c61756e636865642073746174757320737461746500600082015250565b7f5374616b65206f7574206f6620626f756e647300000000000000000000000000600082015250565b7f457363726f77206e6f7420696e204c61756e636865642073746174757320737460008201527f6174650000000000000000000000000000000000000000000000000000000000602082015250565b7f536166654d6174683a206164646974696f6e206f766572666c6f770000000000600082015250565b7f457363726f7720696e2050616964207374617475732073746174650000000000600082015250565b7f546f6f206d616e7920726563697069656e747300000000000000000000000000600082015250565b7f416464726573732063616c6c696e672063616e6e6f742061646420747275737460008201527f65642068616e646c657273000000000000000000000000000000000000000000602082015250565b7f416d6f756e74206f6620726563697069656e747320616e642076616c7565732060008201527f646f6e2774206d61746368000000000000000000000000000000000000000000602082015250565b7f536166654d6174683a206d756c7469706c69636174696f6e206f766572666c6f60008201527f7700000000000000000000000000000000000000000000000000000000000000602082015250565b7f416464726573732063616c6c696e67206973206e6f7420747275737465640000600082015250565b7f416464726573732063616c6c696e67206e6f7420747275737465640000000000600082015250565b7f42756c6b2076616c756520746f6f206869676800000000000000000000000000600082015250565b7f457363726f7720696e20436f6d706c6574652073746174757320737461746500600082015250565b7f436f6e7472616374206578706972656400000000000000000000000000000000600082015250565b7f454950323020636f6e7472616374206f7574206f662066756e64730000000000600082015250565b60068110613dd757613dd6613988565b5b50565b613de381613787565b8114613dee57600080fd5b50565b613dfa816137ab565b8114613e0557600080fd5b50565b613e11816137ea565b8114613e1c57600080fd5b5056fea2646970667358221220346f9a2df9a615203429627043353162cdbfb64f60e2780f1501c73196f51bac64736f6c63430008040033",
  "linkReferences": {},
  "deployedLinkReferences": {}
}