{
  "_format": "hh-sol-artifact-1",
  "contractName": "HMToken",
  "sourceName": "contracts/HMToken.sol",
  "abi": [
    {
      "inputs": [
        {
          "internalType": "uint256",
          "name": "_totalSupply",
          "type": "uint256"
        },
        {
          "internalType": "string",
          "name": "_name",
          "type": "string"
        },
        {
          "internalType": "uint8",
          "name": "_decimals",
          "type": "uint8"
        },
        {
          "internalType": "string",
          "name": "_symbol",
          "type": "string"
        }
      ],
      "stateMutability": "nonpayable",
      "type": "constructor"
    },
    {
      "anonymous": false,
      "inputs": [
        {
          "indexed": true,
          "internalType": "address",
          "name": "_owner",
          "type": "address"
        },
        {
          "indexed": true,
          "internalType": "address",
          "name": "_spender",
          "type": "address"
        },
        {
          "indexed": false,
          "internalType": "uint256",
          "name": "_value",
          "type": "uint256"
        }
      ],
      "name": "Approval",
      "type": "event"
    },
    {
      "anonymous": false,
      "inputs": [
        {
          "indexed": true,
          "internalType": "uint256",
          "name": "_txId",
          "type": "uint256"
        },
        {
          "indexed": false,
          "internalType": "uint256",
          "name": "_bulkCount",
          "type": "uint256"
        }
      ],
      "name": "BulkApproval",
      "type": "event"
    },
    {
      "anonymous": false,
      "inputs": [
        {
          "indexed": true,
          "internalType": "uint256",
          "name": "_txId",
          "type": "uint256"
        },
        {
          "indexed": false,
          "internalType": "uint256",
          "name": "_bulkCount",
          "type": "uint256"
        }
      ],
      "name": "BulkTransfer",
      "type": "event"
    },
    {
      "anonymous": false,
      "inputs": [
        {
          "indexed": true,
          "internalType": "address",
          "name": "previousOwner",
          "type": "address"
        },
        {
          "indexed": true,
          "internalType": "address",
          "name": "newOwner",
          "type": "address"
        }
      ],
      "name": "OwnershipTransferred",
      "type": "event"
    },
    {
      "anonymous": false,
      "inputs": [
        {
          "indexed": true,
          "internalType": "address",
          "name": "_from",
          "type": "address"
        },
        {
          "indexed": true,
          "internalType": "address",
          "name": "_to",
          "type": "address"
        },
        {
          "indexed": false,
          "internalType": "uint256",
          "name": "_value",
          "type": "uint256"
        }
      ],
      "name": "Transfer",
      "type": "event"
    },
    {
      "inputs": [
        {
          "internalType": "address",
          "name": "_owner",
          "type": "address"
        },
        {
          "internalType": "address",
          "name": "_spender",
          "type": "address"
        }
      ],
      "name": "allowance",
      "outputs": [
        {
          "internalType": "uint256",
          "name": "remaining",
          "type": "uint256"
        }
      ],
      "stateMutability": "view",
      "type": "function"
    },
    {
      "inputs": [
        {
          "internalType": "address",
          "name": "_spender",
          "type": "address"
        },
        {
          "internalType": "uint256",
          "name": "_value",
          "type": "uint256"
        }
      ],
      "name": "approve",
      "outputs": [
        {
          "internalType": "bool",
          "name": "success",
          "type": "bool"
        }
      ],
      "stateMutability": "nonpayable",
      "type": "function"
    },
    {
      "inputs": [
        {
          "internalType": "address[]",
          "name": "_spenders",
          "type": "address[]"
        },
        {
          "internalType": "uint256[]",
          "name": "_values",
          "type": "uint256[]"
        },
        {
          "internalType": "uint256",
          "name": "_txId",
          "type": "uint256"
        }
      ],
      "name": "approveBulk",
      "outputs": [
        {
          "internalType": "uint256",
          "name": "_bulkCount",
          "type": "uint256"
        }
      ],
      "stateMutability": "nonpayable",
      "type": "function"
    },
    {
      "inputs": [
        {
          "internalType": "address",
          "name": "_owner",
          "type": "address"
        }
      ],
      "name": "balanceOf",
      "outputs": [
        {
          "internalType": "uint256",
          "name": "balance",
          "type": "uint256"
        }
      ],
      "stateMutability": "view",
      "type": "function"
    },
    {
      "inputs": [],
      "name": "decimals",
      "outputs": [
        {
          "internalType": "uint8",
          "name": "",
          "type": "uint8"
        }
      ],
      "stateMutability": "view",
      "type": "function"
    },
    {
      "inputs": [
        {
          "internalType": "address",
          "name": "_spender",
          "type": "address"
        },
        {
          "internalType": "uint256",
          "name": "_delta",
          "type": "uint256"
        }
      ],
      "name": "decreaseApproval",
      "outputs": [
        {
          "internalType": "bool",
          "name": "success",
          "type": "bool"
        }
      ],
      "stateMutability": "nonpayable",
      "type": "function"
    },
    {
      "inputs": [
        {
          "internalType": "address",
          "name": "_spender",
          "type": "address"
        },
        {
          "internalType": "uint256",
          "name": "_delta",
          "type": "uint256"
        }
      ],
      "name": "increaseApproval",
      "outputs": [
        {
          "internalType": "bool",
          "name": "success",
          "type": "bool"
        }
      ],
      "stateMutability": "nonpayable",
      "type": "function"
    },
    {
      "inputs": [],
      "name": "name",
      "outputs": [
        {
          "internalType": "string",
          "name": "",
          "type": "string"
        }
      ],
      "stateMutability": "view",
      "type": "function"
    },
    {
      "inputs": [],
      "name": "owner",
      "outputs": [
        {
          "internalType": "address",
          "name": "",
          "type": "address"
        }
      ],
      "stateMutability": "view",
      "type": "function"
    },
    {
      "inputs": [],
      "name": "renounceOwnership",
      "outputs": [],
      "stateMutability": "nonpayable",
      "type": "function"
    },
    {
      "inputs": [],
      "name": "symbol",
      "outputs": [
        {
          "internalType": "string",
          "name": "",
          "type": "string"
        }
      ],
      "stateMutability": "view",
      "type": "function"
    },
    {
      "inputs": [],
      "name": "totalSupply",
      "outputs": [
        {
          "internalType": "uint256",
          "name": "",
          "type": "uint256"
        }
      ],
      "stateMutability": "view",
      "type": "function"
    },
    {
      "inputs": [
        {
          "internalType": "address",
          "name": "_to",
          "type": "address"
        },
        {
          "internalType": "uint256",
          "name": "_value",
          "type": "uint256"
        }
      ],
      "name": "transfer",
      "outputs": [
        {
          "internalType": "bool",
          "name": "success",
          "type": "bool"
        }
      ],
      "stateMutability": "nonpayable",
      "type": "function"
    },
    {
      "inputs": [
        {
          "internalType": "address[]",
          "name": "_tos",
          "type": "address[]"
        },
        {
          "internalType": "uint256[]",
          "name": "_values",
          "type": "uint256[]"
        },
        {
          "internalType": "uint256",
          "name": "_txId",
          "type": "uint256"
        }
      ],
      "name": "transferBulk",
      "outputs": [
        {
          "internalType": "uint256",
          "name": "_bulkCount",
          "type": "uint256"
        }
      ],
      "stateMutability": "nonpayable",
      "type": "function"
    },
    {
      "inputs": [
        {
          "internalType": "address",
          "name": "_spender",
          "type": "address"
        },
        {
          "internalType": "address",
          "name": "_to",
          "type": "address"
        },
        {
          "internalType": "uint256",
          "name": "_value",
          "type": "uint256"
        }
      ],
      "name": "transferFrom",
      "outputs": [
        {
          "internalType": "bool",
          "name": "success",
          "type": "bool"
        }
      ],
      "stateMutability": "nonpayable",
      "type": "function"
    },
    {
      "inputs": [
        {
          "internalType": "address",
          "name": "newOwner",
          "type": "address"
        }
      ],
      "name": "transferOwnership",
      "outputs": [],
      "stateMutability": "nonpayable",
      "type": "function"
    }
  ],
  "bytecode": "0x60806040523480156200001157600080fd5b506040516200328738038062003287833981810160405281019062000037919062000301565b600062000049620001a960201b60201c565b9050806000806101000a81548173ffffffffffffffffffffffffffffffffffffffff021916908373ffffffffffffffffffffffffffffffffffffffff1602179055508073ffffffffffffffffffffffffffffffffffffffff16600073ffffffffffffffffffffffffffffffffffffffff167f8be0079c531659141344cd1fd0a4f28419497f9722a3daafe3b4186f6b6457e060405160405180910390a3508160ff16600a620000f9919062000459565b8462000106919062000596565b600181905550826004908051906020019062000124929190620001b1565b5081600560006101000a81548160ff021916908360ff160217905550806006908051906020019062000158929190620001b1565b50600154600260003373ffffffffffffffffffffffffffffffffffffffff1673ffffffffffffffffffffffffffffffffffffffff16815260200190815260200160002081905550505050506200078f565b600033905090565b828054620001bf9062000644565b90600052602060002090601f016020900481019282620001e357600085556200022f565b82601f10620001fe57805160ff19168380011785556200022f565b828001600101855582156200022f579182015b828111156200022e57825182559160200191906001019062000211565b5b5090506200023e919062000242565b5090565b5b808211156200025d57600081600090555060010162000243565b5090565b6000620002786200027284620003c8565b6200039f565b9050828152602081018484840111156200029157600080fd5b6200029e8482856200060e565b509392505050565b600082601f830112620002b857600080fd5b8151620002ca84826020860162000261565b91505092915050565b600081519050620002e4816200075b565b92915050565b600081519050620002fb8162000775565b92915050565b600080600080608085870312156200031857600080fd5b60006200032887828801620002d3565b945050602085015167ffffffffffffffff8111156200034657600080fd5b6200035487828801620002a6565b93505060406200036787828801620002ea565b925050606085015167ffffffffffffffff8111156200038557600080fd5b6200039387828801620002a6565b91505092959194509250565b6000620003ab620003be565b9050620003b982826200067a565b919050565b6000604051905090565b600067ffffffffffffffff821115620003e657620003e56200070e565b5b620003f1826200073d565b9050602081019050919050565b6000808291508390505b60018511156200045057808604811115620004285762000427620006b0565b5b6001851615620004385780820291505b808102905062000448856200074e565b945062000408565b94509492505050565b60006200046682620005f7565b91506200047383620005f7565b9250620004a27fffffffffffffffffffffffffffffffffffffffffffffffffffffffffffffffff8484620004aa565b905092915050565b600082620004bc57600190506200058f565b81620004cc57600090506200058f565b8160018114620004e55760028114620004f05762000526565b60019150506200058f565b60ff841115620005055762000504620006b0565b5b8360020a9150848211156200051f576200051e620006b0565b5b506200058f565b5060208310610133831016604e8410600b8410161715620005605782820a9050838111156200055a5762000559620006b0565b5b6200058f565b6200056f8484846001620003fe565b92509050818404811115620005895762000588620006b0565b5b81810290505b9392505050565b6000620005a382620005f7565b9150620005b083620005f7565b9250817fffffffffffffffffffffffffffffffffffffffffffffffffffffffffffffffff0483118215151615620005ec57620005eb620006b0565b5b828202905092915050565b6000819050919050565b600060ff82169050919050565b60005b838110156200062e57808201518184015260208101905062000611565b838111156200063e576000848401525b50505050565b600060028204905060018216806200065d57607f821691505b60208210811415620006745762000673620006df565b5b50919050565b62000685826200073d565b810181811067ffffffffffffffff82111715620006a757620006a66200070e565b5b80604052505050565b7f4e487b7100000000000000000000000000000000000000000000000000000000600052601160045260246000fd5b7f4e487b7100000000000000000000000000000000000000000000000000000000600052602260045260246000fd5b7f4e487b7100000000000000000000000000000000000000000000000000000000600052604160045260246000fd5b6000601f19601f8301169050919050565b60008160011c9050919050565b6200076681620005f7565b81146200077257600080fd5b50565b620007808162000601565b81146200078c57600080fd5b50565b612ae8806200079f6000396000f3fe608060405234801561001057600080fd5b50600436106101005760003560e01c80638da5cb5b11610097578063dd62ed3e11610066578063dd62ed3e146102c5578063e816d8d8146102f5578063e8f71d1b14610325578063f2fde38b1461035557610100565b80638da5cb5b1461022957806395d89b4114610247578063a9059cbb14610265578063d73dd6231461029557610100565b8063313ce567116100d3578063313ce567146101a157806366188463146101bf57806370a08231146101ef578063715018a61461021f57610100565b806306fdde0314610105578063095ea7b31461012357806318160ddd1461015357806323b872dd14610171575b600080fd5b61010d610371565b60405161011a919061230d565b60405180910390f35b61013d60048036038101906101389190612003565b6103ff565b60405161014a91906122f2565b60405180910390f35b61015b610560565b60405161016891906124af565b60405180910390f35b61018b60048036038101906101869190611fb4565b610566565b60405161019891906122f2565b60405180910390f35b6101a9610986565b6040516101b691906124ca565b60405180910390f35b6101d960048036038101906101d49190612003565b610999565b6040516101e691906122f2565b60405180910390f35b61020960048036038101906102049190611f4f565b610d16565b60405161021691906124af565b60405180910390f35b610227610d5f565b005b610231610eb2565b60405161023e91906122d7565b60405180910390f35b61024f610edb565b60405161025c919061230d565b60405180910390f35b61027f600480360381019061027a9190612003565b610f69565b60405161028c91906122f2565b60405180910390f35b6102af60048036038101906102aa9190612003565b610fbd565b6040516102bc91906122f2565b60405180910390f35b6102df60048036038101906102da9190611f78565b61137f565b6040516102ec91906124af565b60405180910390f35b61030f600480360381019061030a919061203f565b611406565b60405161031c91906124af565b60405180910390f35b61033f600480360381019061033a919061203f565b611665565b60405161034c91906124af565b60405180910390f35b61036f600480360381019061036a9190611f4f565b6118c4565b005b6004805461037e90612690565b80601f01602080910402602001604051908101604052809291908181526020018280546103aa90612690565b80156103f75780601f106103cc576101008083540402835291602001916103f7565b820191906000526020600020905b8154815290600101906020018083116103da57829003601f168201915b505050505081565b60008073ffffffffffffffffffffffffffffffffffffffff168373ffffffffffffffffffffffffffffffffffffffff161415610470576040517f08c379a0000000000000000000000000000000000000000000000000000000008152600401610467906123ef565b60405180910390fd5b81600360003373ffffffffffffffffffffffffffffffffffffffff1673ffffffffffffffffffffffffffffffffffffffff16815260200190815260200160002060008573ffffffffffffffffffffffffffffffffffffffff1673ffffffffffffffffffffffffffffffffffffffff168152602001908152602001600020819055508273ffffffffffffffffffffffffffffffffffffffff163373ffffffffffffffffffffffffffffffffffffffff167f8c5be1e5ebec7d5bd14f71427d1e84f3dd0314c0f7b2291e5b200ac8c7c3b9258460405161054e91906124af565b60405180910390a36001905092915050565b60015481565b600080600360008673ffffffffffffffffffffffffffffffffffffffff1673ffffffffffffffffffffffffffffffffffffffff16815260200190815260200160002060003373ffffffffffffffffffffffffffffffffffffffff1673ffffffffffffffffffffffffffffffffffffffff1681526020019081526020016000205490508281101561062b576040517f08c379a00000000000000000000000000000000000000000000000000000000081526004016106229061232f565b60405180910390fd5b600073ffffffffffffffffffffffffffffffffffffffff168473ffffffffffffffffffffffffffffffffffffffff16141561069b576040517f08c379a00000000000000000000000000000000000000000000000000000000081526004016106929061244f565b60405180910390fd5b610724836040518060400160405280601781526020017f5370656e6465722062616c616e636520746f6f206c6f77000000000000000000815250600260008973ffffffffffffffffffffffffffffffffffffffff1673ffffffffffffffffffffffffffffffffffffffff16815260200190815260200160002054611a869092919063ffffffff16565b600260008773ffffffffffffffffffffffffffffffffffffffff1673ffffffffffffffffffffffffffffffffffffffff168152602001908152602001600020819055506107b983600260008773ffffffffffffffffffffffffffffffffffffffff1673ffffffffffffffffffffffffffffffffffffffff16815260200190815260200160002054611aea90919063ffffffff16565b600260008673ffffffffffffffffffffffffffffffffffffffff1673ffffffffffffffffffffffffffffffffffffffff1681526020019081526020016000208190555060001981146109155761089483600360008873ffffffffffffffffffffffffffffffffffffffff1673ffffffffffffffffffffffffffffffffffffffff16815260200190815260200160002060003373ffffffffffffffffffffffffffffffffffffffff1673ffffffffffffffffffffffffffffffffffffffff16815260200190815260200160002054611b4890919063ffffffff16565b600360008773ffffffffffffffffffffffffffffffffffffffff1673ffffffffffffffffffffffffffffffffffffffff16815260200190815260200160002060003373ffffffffffffffffffffffffffffffffffffffff1673ffffffffffffffffffffffffffffffffffffffff168152602001908152602001600020819055505b8373ffffffffffffffffffffffffffffffffffffffff168573ffffffffffffffffffffffffffffffffffffffff167fddf252ad1be2c89b69c2b068fc378daa952ba7f163c4a11628f55a4df523b3ef8560405161097291906124af565b60405180910390a360019150509392505050565b600560009054906101000a900460ff1681565b60008073ffffffffffffffffffffffffffffffffffffffff168373ffffffffffffffffffffffffffffffffffffffff161415610a0a576040517f08c379a0000000000000000000000000000000000000000000000000000000008152600401610a01906123ef565b60405180910390fd5b6000600360003373ffffffffffffffffffffffffffffffffffffffff1673ffffffffffffffffffffffffffffffffffffffff16815260200190815260200160002060008573ffffffffffffffffffffffffffffffffffffffff1673ffffffffffffffffffffffffffffffffffffffff16815260200190815260200160002054905080831115610b1a576000600360003373ffffffffffffffffffffffffffffffffffffffff1673ffffffffffffffffffffffffffffffffffffffff16815260200190815260200160002060008673ffffffffffffffffffffffffffffffffffffffff1673ffffffffffffffffffffffffffffffffffffffff16815260200190815260200160002081905550610c2a565b610ba983600360003373ffffffffffffffffffffffffffffffffffffffff1673ffffffffffffffffffffffffffffffffffffffff16815260200190815260200160002060008773ffffffffffffffffffffffffffffffffffffffff1673ffffffffffffffffffffffffffffffffffffffff16815260200190815260200160002054611b4890919063ffffffff16565b600360003373ffffffffffffffffffffffffffffffffffffffff1673ffffffffffffffffffffffffffffffffffffffff16815260200190815260200160002060008673ffffffffffffffffffffffffffffffffffffffff1673ffffffffffffffffffffffffffffffffffffffff168152602001908152602001600020819055505b8373ffffffffffffffffffffffffffffffffffffffff163373ffffffffffffffffffffffffffffffffffffffff167f8c5be1e5ebec7d5bd14f71427d1e84f3dd0314c0f7b2291e5b200ac8c7c3b925600360003373ffffffffffffffffffffffffffffffffffffffff1673ffffffffffffffffffffffffffffffffffffffff16815260200190815260200160002060008873ffffffffffffffffffffffffffffffffffffffff1673ffffffffffffffffffffffffffffffffffffffff16815260200190815260200160002054604051610d0391906124af565b60405180910390a3600191505092915050565b6000600260008373ffffffffffffffffffffffffffffffffffffffff1673ffffffffffffffffffffffffffffffffffffffff168152602001908152602001600020549050919050565b610d67611b92565b73ffffffffffffffffffffffffffffffffffffffff1660008054906101000a900473ffffffffffffffffffffffffffffffffffffffff1673ffffffffffffffffffffffffffffffffffffffff1614610df4576040517f08c379a0000000000000000000000000000000000000000000000000000000008152600401610deb9061240f565b60405180910390fd5b600073ffffffffffffffffffffffffffffffffffffffff1660008054906101000a900473ffffffffffffffffffffffffffffffffffffffff1673ffffffffffffffffffffffffffffffffffffffff167f8be0079c531659141344cd1fd0a4f28419497f9722a3daafe3b4186f6b6457e060405160405180910390a360008060006101000a81548173ffffffffffffffffffffffffffffffffffffffff021916908373ffffffffffffffffffffffffffffffffffffffff160217905550565b60008060009054906101000a900473ffffffffffffffffffffffffffffffffffffffff16905090565b60068054610ee890612690565b80601f0160208091040260200160405190810160405280929190818152602001828054610f1490612690565b8015610f615780601f10610f3657610100808354040283529160200191610f61565b820191906000526020600020905b815481529060010190602001808311610f4457829003601f168201915b505050505081565b6000610f758383611b9a565b905080610fb7576040517f08c379a0000000000000000000000000000000000000000000000000000000008152600401610fae9061234f565b60405180910390fd5b92915050565b60008073ffffffffffffffffffffffffffffffffffffffff168373ffffffffffffffffffffffffffffffffffffffff16141561102e576040517f08c379a0000000000000000000000000000000000000000000000000000000008152600401611025906123ef565b60405180910390fd5b6000600360003373ffffffffffffffffffffffffffffffffffffffff1673ffffffffffffffffffffffffffffffffffffffff16815260200190815260200160002060008573ffffffffffffffffffffffffffffffffffffffff1673ffffffffffffffffffffffffffffffffffffffff168152602001908152602001600020549050806110c38483611aea90919063ffffffff16565b10806110e357506000196110e08483611aea90919063ffffffff16565b10155b15611183576110fe6001600019611b4890919063ffffffff16565b600360003373ffffffffffffffffffffffffffffffffffffffff1673ffffffffffffffffffffffffffffffffffffffff16815260200190815260200160002060008673ffffffffffffffffffffffffffffffffffffffff1673ffffffffffffffffffffffffffffffffffffffff16815260200190815260200160002081905550611293565b61121283600360003373ffffffffffffffffffffffffffffffffffffffff1673ffffffffffffffffffffffffffffffffffffffff16815260200190815260200160002060008773ffffffffffffffffffffffffffffffffffffffff1673ffffffffffffffffffffffffffffffffffffffff16815260200190815260200160002054611aea90919063ffffffff16565b600360003373ffffffffffffffffffffffffffffffffffffffff1673ffffffffffffffffffffffffffffffffffffffff16815260200190815260200160002060008673ffffffffffffffffffffffffffffffffffffffff1673ffffffffffffffffffffffffffffffffffffffff168152602001908152602001600020819055505b8373ffffffffffffffffffffffffffffffffffffffff163373ffffffffffffffffffffffffffffffffffffffff167f8c5be1e5ebec7d5bd14f71427d1e84f3dd0314c0f7b2291e5b200ac8c7c3b925600360003373ffffffffffffffffffffffffffffffffffffffff1673ffffffffffffffffffffffffffffffffffffffff16815260200190815260200160002060008873ffffffffffffffffffffffffffffffffffffffff1673ffffffffffffffffffffffffffffffffffffffff1681526020019081526020016000205460405161136c91906124af565b60405180910390a3600191505092915050565b6000600360008473ffffffffffffffffffffffffffffffffffffffff1673ffffffffffffffffffffffffffffffffffffffff16815260200190815260200160002060008373ffffffffffffffffffffffffffffffffffffffff1673ffffffffffffffffffffffffffffffffffffffff16815260200190815260200160002054905092915050565b6000825184511461144c576040517f08c379a0000000000000000000000000000000000000000000000000000000008152600401611443906123cf565b60405180910390fd5b606463ffffffff16845110611496576040517f08c379a000000000000000000000000000000000000000000000000000000000815260040161148d906123af565b60405180910390fd5b6000805b8551811015611509576114f68582815181106114df577f4e487b7100000000000000000000000000000000000000000000000000000000600052603260045260246000fd5b602002602001015183611aea90919063ffffffff16565b915080611502906126f3565b905061149a565b506b033b2e3c9fd0803ce80000008110611558576040517f08c379a000000000000000000000000000000000000000000000000000000000815260040161154f9061242f565b60405180910390fd5b600080600090505b8651811015611623576115f38782815181106115a5577f4e487b7100000000000000000000000000000000000000000000000000000000600052603260045260246000fd5b60200260200101518783815181106115e6577f4e487b7100000000000000000000000000000000000000000000000000000000600052603260045260246000fd5b6020026020010151611b9a565b915081156116125761160f600185611aea90919063ffffffff16565b93505b8061161c906126f3565b9050611560565b50837f8ed71c3a6fb899bfe96968ade5a4119b380c0d642a775106eb80aa795450777e8460405161165491906124af565b60405180910390a250509392505050565b600082518451146116ab576040517f08c379a00000000000000000000000000000000000000000000000000000000081526004016116a29061248f565b60405180910390fd5b606463ffffffff168451106116f5576040517f08c379a00000000000000000000000000000000000000000000000000000000081526004016116ec9061246f565b60405180910390fd5b6000805b85518110156117685761175585828151811061173e577f4e487b7100000000000000000000000000000000000000000000000000000000600052603260045260246000fd5b602002602001015183611aea90919063ffffffff16565b915080611761906126f3565b90506116f9565b506b033b2e3c9fd0803ce800000081106117b7576040517f08c379a00000000000000000000000000000000000000000000000000000000081526004016117ae9061242f565b60405180910390fd5b600080600090505b865181101561188257611852878281518110611804577f4e487b7100000000000000000000000000000000000000000000000000000000600052603260045260246000fd5b6020026020010151878381518110611845577f4e487b7100000000000000000000000000000000000000000000000000000000600052603260045260246000fd5b6020026020010151610fbd565b915081156118715761186e600185611aea90919063ffffffff16565b93505b8061187b906126f3565b90506117bf565b50837fca78741c6b48402cfa7be577db6559c46abb0f8ba9ce1468cf71297349370d9c846040516118b391906124af565b60405180910390a250509392505050565b6118cc611b92565b73ffffffffffffffffffffffffffffffffffffffff1660008054906101000a900473ffffffffffffffffffffffffffffffffffffffff1673ffffffffffffffffffffffffffffffffffffffff1614611959576040517f08c379a00000000000000000000000000000000000000000000000000000000081526004016119509061240f565b60405180910390fd5b600073ffffffffffffffffffffffffffffffffffffffff168173ffffffffffffffffffffffffffffffffffffffff1614156119c9576040517f08c379a00000000000000000000000000000000000000000000000000000000081526004016119c09061236f565b60405180910390fd5b8073ffffffffffffffffffffffffffffffffffffffff1660008054906101000a900473ffffffffffffffffffffffffffffffffffffffff1673ffffffffffffffffffffffffffffffffffffffff167f8be0079c531659141344cd1fd0a4f28419497f9722a3daafe3b4186f6b6457e060405160405180910390a3806000806101000a81548173ffffffffffffffffffffffffffffffffffffffff021916908373ffffffffffffffffffffffffffffffffffffffff16021790555050565b6000838311158290611ace576040517f08c379a0000000000000000000000000000000000000000000000000000000008152600401611ac5919061230d565b60405180910390fd5b5060008385611add91906125d4565b9050809150509392505050565b6000808284611af9919061257e565b905083811015611b3e576040517f08c379a0000000000000000000000000000000000000000000000000000000008152600401611b359061238f565b60405180910390fd5b8091505092915050565b6000611b8a83836040518060400160405280601e81526020017f536166654d6174683a207375627472616374696f6e206f766572666c6f770000815250611a86565b905092915050565b600033905090565b60008073ffffffffffffffffffffffffffffffffffffffff168373ffffffffffffffffffffffffffffffffffffffff161415611bd95760009050611df3565b3073ffffffffffffffffffffffffffffffffffffffff168373ffffffffffffffffffffffffffffffffffffffff161415611c165760009050611df3565b81600260003373ffffffffffffffffffffffffffffffffffffffff1673ffffffffffffffffffffffffffffffffffffffff168152602001908152602001600020541015611c665760009050611df3565b81600260003373ffffffffffffffffffffffffffffffffffffffff1673ffffffffffffffffffffffffffffffffffffffff16815260200190815260200160002054611cb191906125d4565b600260003373ffffffffffffffffffffffffffffffffffffffff1673ffffffffffffffffffffffffffffffffffffffff16815260200190815260200160002081905550611d4682600260008673ffffffffffffffffffffffffffffffffffffffff1673ffffffffffffffffffffffffffffffffffffffff16815260200190815260200160002054611aea90919063ffffffff16565b600260008573ffffffffffffffffffffffffffffffffffffffff1673ffffffffffffffffffffffffffffffffffffffff168152602001908152602001600020819055508273ffffffffffffffffffffffffffffffffffffffff163373ffffffffffffffffffffffffffffffffffffffff167fddf252ad1be2c89b69c2b068fc378daa952ba7f163c4a11628f55a4df523b3ef84604051611de691906124af565b60405180910390a3600190505b92915050565b6000611e0c611e078461250a565b6124e5565b90508083825260208201905082856020860282011115611e2b57600080fd5b60005b85811015611e5b5781611e418882611ed1565b845260208401935060208301925050600181019050611e2e565b5050509392505050565b6000611e78611e7384612536565b6124e5565b90508083825260208201905082856020860282011115611e9757600080fd5b60005b85811015611ec75781611ead8882611f3a565b845260208401935060208301925050600181019050611e9a565b5050509392505050565b600081359050611ee081612a84565b92915050565b600082601f830112611ef757600080fd5b8135611f07848260208601611df9565b91505092915050565b600082601f830112611f2157600080fd5b8135611f31848260208601611e65565b91505092915050565b600081359050611f4981612a9b565b92915050565b600060208284031215611f6157600080fd5b6000611f6f84828501611ed1565b91505092915050565b60008060408385031215611f8b57600080fd5b6000611f9985828601611ed1565b9250506020611faa85828601611ed1565b9150509250929050565b600080600060608486031215611fc957600080fd5b6000611fd786828701611ed1565b9350506020611fe886828701611ed1565b9250506040611ff986828701611f3a565b9150509250925092565b6000806040838503121561201657600080fd5b600061202485828601611ed1565b925050602061203585828601611f3a565b9150509250929050565b60008060006060848603121561205457600080fd5b600084013567ffffffffffffffff81111561206e57600080fd5b61207a86828701611ee6565b935050602084013567ffffffffffffffff81111561209757600080fd5b6120a386828701611f10565b92505060406120b486828701611f3a565b9150509250925092565b6120c781612608565b82525050565b6120d68161261a565b82525050565b60006120e782612562565b6120f1818561256d565b935061210181856020860161265d565b61210a816127c9565b840191505092915050565b600061212260198361256d565b915061212d826127da565b602082019050919050565b600061214560178361256d565b915061215082612803565b602082019050919050565b600061216860268361256d565b91506121738261282c565b604082019050919050565b600061218b601b8361256d565b91506121968261287b565b602082019050919050565b60006121ae60138361256d565b91506121b9826128a4565b602082019050919050565b60006121d1602b8361256d565b91506121dc826128cd565b604082019050919050565b60006121f460298361256d565b91506121ff8261291c565b604082019050919050565b600061221760208361256d565b91506122228261296b565b602082019050919050565b600061223a60138361256d565b915061224582612994565b602082019050919050565b600061225d602a8361256d565b9150612268826129bd565b604082019050919050565b600061228060118361256d565b915061228b82612a0c565b602082019050919050565b60006122a360298361256d565b91506122ae82612a35565b604082019050919050565b6122c281612646565b82525050565b6122d181612650565b82525050565b60006020820190506122ec60008301846120be565b92915050565b600060208201905061230760008301846120cd565b92915050565b6000602082019050818103600083015261232781846120dc565b905092915050565b6000602082019050818103600083015261234881612115565b9050919050565b6000602082019050818103600083015261236881612138565b9050919050565b600060208201905081810360008301526123888161215b565b9050919050565b600060208201905081810360008301526123a88161217e565b9050919050565b600060208201905081810360008301526123c8816121a1565b9050919050565b600060208201905081810360008301526123e8816121c4565b9050919050565b60006020820190508181036000830152612408816121e7565b9050919050565b600060208201905081810360008301526124288161220a565b9050919050565b600060208201905081810360008301526124488161222d565b9050919050565b6000602082019050818103600083015261246881612250565b9050919050565b6000602082019050818103600083015261248881612273565b9050919050565b600060208201905081810360008301526124a881612296565b9050919050565b60006020820190506124c460008301846122b9565b92915050565b60006020820190506124df60008301846122c8565b92915050565b60006124ef612500565b90506124fb82826126c2565b919050565b6000604051905090565b600067ffffffffffffffff8211156125255761252461279a565b5b602082029050602081019050919050565b600067ffffffffffffffff8211156125515761255061279a565b5b602082029050602081019050919050565b600081519050919050565b600082825260208201905092915050565b600061258982612646565b915061259483612646565b9250827fffffffffffffffffffffffffffffffffffffffffffffffffffffffffffffffff038211156125c9576125c861273c565b5b828201905092915050565b60006125df82612646565b91506125ea83612646565b9250828210156125fd576125fc61273c565b5b828203905092915050565b600061261382612626565b9050919050565b60008115159050919050565b600073ffffffffffffffffffffffffffffffffffffffff82169050919050565b6000819050919050565b600060ff82169050919050565b60005b8381101561267b578082015181840152602081019050612660565b8381111561268a576000848401525b50505050565b600060028204905060018216806126a857607f821691505b602082108114156126bc576126bb61276b565b5b50919050565b6126cb826127c9565b810181811067ffffffffffffffff821117156126ea576126e961279a565b5b80604052505050565b60006126fe82612646565b91507fffffffffffffffffffffffffffffffffffffffffffffffffffffffffffffffff8214156127315761273061273c565b5b600182019050919050565b7f4e487b7100000000000000000000000000000000000000000000000000000000600052601160045260246000fd5b7f4e487b7100000000000000000000000000000000000000000000000000000000600052602260045260246000fd5b7f4e487b7100000000000000000000000000000000000000000000000000000000600052604160045260246000fd5b6000601f19601f8301169050919050565b7f5370656e64657220616c6c6f77616e636520746f6f206c6f7700000000000000600082015250565b7f5472616e73666572206469646e27742073756363656564000000000000000000600082015250565b7f4f776e61626c653a206e6577206f776e657220697320746865207a65726f206160008201527f6464726573730000000000000000000000000000000000000000000000000000602082015250565b7f536166654d6174683a206164646974696f6e206f766572666c6f770000000000600082015250565b7f546f6f206d616e7920726563697069656e747300000000000000000000000000600082015250565b7f416d6f756e74206f6620726563697069656e747320616e642076616c7565732060008201527f646f6e2774206d61746368000000000000000000000000000000000000000000602082015250565b7f546f6b656e207370656e64657220697320616e20756e696e697469616c697a6560008201527f6420616464726573730000000000000000000000000000000000000000000000602082015250565b7f4f776e61626c653a2063616c6c6572206973206e6f7420746865206f776e6572600082015250565b7f42756c6b2076616c756520746f6f206869676800000000000000000000000000600082015250565b7f43616e27742073656e6420746f6b656e7320746f20756e696e697469616c697a60008201527f6564206164647265737300000000000000000000000000000000000000000000602082015250565b7f546f6f206d616e79207370656e64657273000000000000000000000000000000600082015250565b7f416d6f756e74206f66207370656e6465727320616e642076616c75657320646f60008201527f6e2774206d617463680000000000000000000000000000000000000000000000602082015250565b612a8d81612608565b8114612a9857600080fd5b50565b612aa481612646565b8114612aaf57600080fd5b5056fea2646970667358221220bbca681ac62cca5ada65da99d3cd5e2bf28efe7b292f6ea91b62e2f64b354a0564736f6c63430008040033",
  "linkReferences": {},
  "deployedLinkReferences": {}
}