{
  "_format": "hh-sol-artifact-1",
  "contractName": "KVStore",
  "sourceName": "contracts/KVStore.sol",
  "abi": [
    {
      "anonymous": false,
      "inputs": [
        {
          "indexed": true,
          "internalType": "address",
          "name": "sender",
          "type": "address"
        },
        {
          "indexed": false,
          "internalType": "string",
          "name": "key",
          "type": "string"
        },
        {
          "indexed": false,
          "internalType": "string",
          "name": "value",
          "type": "string"
        }
      ],
      "name": "DataSaved",
      "type": "event"
    },
    {
      "inputs": [
        {
          "internalType": "address",
          "name": "_account",
          "type": "address"
        },
        {
          "internalType": "string",
          "name": "_key",
          "type": "string"
        }
      ],
      "name": "get",
      "outputs": [
        {
          "internalType": "string",
          "name": "",
          "type": "string"
        }
      ],
      "stateMutability": "view",
      "type": "function"
    },
    {
      "inputs": [
        {
          "internalType": "string",
          "name": "_key",
          "type": "string"
        },
        {
          "internalType": "string",
          "name": "_value",
          "type": "string"
        }
      ],
      "name": "set",
      "outputs": [],
      "stateMutability": "nonpayable",
      "type": "function"
    }
  ],
  "bytecode": "0x608060405234801561001057600080fd5b5061061b806100206000396000f3fe608060405234801561001057600080fd5b50600436106100365760003560e01c8063e942b5161461003b578063fc2525ab14610050575b600080fd5b61004e6100493660046103f0565b610079565b005b61006361005e366004610454565b610190565b604051610070919061052d565b60405180910390f35b6103e882511115801561008f57506103e8815111155b6100f9576040517f08c379a000000000000000000000000000000000000000000000000000000000815260206004820152601560248201527f4d6178696d756d20737472696e67206c656e6774680000000000000000000000604482015260640160405180910390fd5b3360009081526020819052604090819020905182919061011a908590610547565b9081526020016040518091039020908051906020019061013b92919061027d565b503373ffffffffffffffffffffffffffffffffffffffff167f111b8e1131df198b5697ae35ffda8583f6aaa59f09dcc58a8461f8cc12bf883b8383604051610184929190610563565b60405180910390a25050565b60606000808473ffffffffffffffffffffffffffffffffffffffff1673ffffffffffffffffffffffffffffffffffffffff168152602001908152602001600020826040516101de9190610547565b908152602001604051809103902080546101f790610591565b80601f016020809104026020016040519081016040528092919081815260200182805461022390610591565b80156102705780601f1061024557610100808354040283529160200191610270565b820191906000526020600020905b81548152906001019060200180831161025357829003601f168201915b5050505050905092915050565b82805461028990610591565b90600052602060002090601f0160209004810192826102ab57600085556102f1565b82601f106102c457805160ff19168380011785556102f1565b828001600101855582156102f1579182015b828111156102f15782518255916020019190600101906102d6565b506102fd929150610301565b5090565b5b808211156102fd5760008155600101610302565b7f4e487b7100000000000000000000000000000000000000000000000000000000600052604160045260246000fd5b600082601f83011261035657600080fd5b813567ffffffffffffffff8082111561037157610371610316565b604051601f83017fffffffffffffffffffffffffffffffffffffffffffffffffffffffffffffffe0908116603f011681019082821181831017156103b7576103b7610316565b816040528381528660208588010111156103d057600080fd5b836020870160208301376000602085830101528094505050505092915050565b6000806040838503121561040357600080fd5b823567ffffffffffffffff8082111561041b57600080fd5b61042786838701610345565b9350602085013591508082111561043d57600080fd5b5061044a85828601610345565b9150509250929050565b6000806040838503121561046757600080fd5b823573ffffffffffffffffffffffffffffffffffffffff8116811461048b57600080fd5b9150602083013567ffffffffffffffff8111156104a757600080fd5b61044a85828601610345565b60005b838110156104ce5781810151838201526020016104b6565b838111156104dd576000848401525b50505050565b600081518084526104fb8160208601602086016104b3565b601f017fffffffffffffffffffffffffffffffffffffffffffffffffffffffffffffffe0169290920160200192915050565b60208152600061054060208301846104e3565b9392505050565b600082516105598184602087016104b3565b9190910192915050565b60408152600061057660408301856104e3565b828103602084015261058881856104e3565b95945050505050565b600181811c908216806105a557607f821691505b602082108114156105df577f4e487b7100000000000000000000000000000000000000000000000000000000600052602260045260246000fd5b5091905056fea26469706673582212209ce50de3d031e663a36c2862418ca4f4428ae8e9c888e0db32a8f39da69293cf64736f6c63430008090033",
  "linkReferences": {},
  "deployedLinkReferences": {}
}