{
  "_format": "hh-sol-artifact-1",
  "contractName": "HMToken",
  "sourceName": "contracts/HMToken.sol",
  "abi": [
    {
      "inputs": [
        {
          "internalType": "uint256",
          "name": "_totalSupply",
          "type": "uint256"
        },
        {
          "internalType": "string",
          "name": "_name",
          "type": "string"
        },
        {
          "internalType": "uint8",
          "name": "_decimals",
          "type": "uint8"
        },
        {
          "internalType": "string",
          "name": "_symbol",
          "type": "string"
        }
      ],
      "stateMutability": "nonpayable",
      "type": "constructor"
    },
    {
      "anonymous": false,
      "inputs": [
        {
          "indexed": true,
          "internalType": "address",
          "name": "_owner",
          "type": "address"
        },
        {
          "indexed": true,
          "internalType": "address",
          "name": "_spender",
          "type": "address"
        },
        {
          "indexed": false,
          "internalType": "uint256",
          "name": "_value",
          "type": "uint256"
        }
      ],
      "name": "Approval",
      "type": "event"
    },
    {
      "anonymous": false,
      "inputs": [
        {
          "indexed": true,
          "internalType": "uint256",
          "name": "_txId",
          "type": "uint256"
        },
        {
          "indexed": false,
          "internalType": "uint256",
          "name": "_bulkCount",
          "type": "uint256"
        }
      ],
      "name": "BulkApproval",
      "type": "event"
    },
    {
      "anonymous": false,
      "inputs": [
        {
          "indexed": true,
          "internalType": "uint256",
          "name": "_txId",
          "type": "uint256"
        },
        {
          "indexed": false,
          "internalType": "uint256",
          "name": "_bulkCount",
          "type": "uint256"
        }
      ],
      "name": "BulkTransfer",
      "type": "event"
    },
    {
      "anonymous": false,
      "inputs": [
        {
          "indexed": true,
          "internalType": "address",
          "name": "previousOwner",
          "type": "address"
        },
        {
          "indexed": true,
          "internalType": "address",
          "name": "newOwner",
          "type": "address"
        }
      ],
      "name": "OwnershipTransferred",
      "type": "event"
    },
    {
      "anonymous": false,
      "inputs": [
        {
          "indexed": true,
          "internalType": "address",
          "name": "_from",
          "type": "address"
        },
        {
          "indexed": true,
          "internalType": "address",
          "name": "_to",
          "type": "address"
        },
        {
          "indexed": false,
          "internalType": "uint256",
          "name": "_value",
          "type": "uint256"
        }
      ],
      "name": "Transfer",
      "type": "event"
    },
    {
      "inputs": [
        {
          "internalType": "address",
          "name": "_owner",
          "type": "address"
        },
        {
          "internalType": "address",
          "name": "_spender",
          "type": "address"
        }
      ],
      "name": "allowance",
      "outputs": [
        {
          "internalType": "uint256",
          "name": "remaining",
          "type": "uint256"
        }
      ],
      "stateMutability": "view",
      "type": "function"
    },
    {
      "inputs": [
        {
          "internalType": "address",
          "name": "_spender",
          "type": "address"
        },
        {
          "internalType": "uint256",
          "name": "_value",
          "type": "uint256"
        }
      ],
      "name": "approve",
      "outputs": [
        {
          "internalType": "bool",
          "name": "success",
          "type": "bool"
        }
      ],
      "stateMutability": "nonpayable",
      "type": "function"
    },
    {
      "inputs": [
        {
          "internalType": "address",
          "name": "_owner",
          "type": "address"
        }
      ],
      "name": "balanceOf",
      "outputs": [
        {
          "internalType": "uint256",
          "name": "balance",
          "type": "uint256"
        }
      ],
      "stateMutability": "view",
      "type": "function"
    },
    {
      "inputs": [],
      "name": "decimals",
      "outputs": [
        {
          "internalType": "uint8",
          "name": "",
          "type": "uint8"
        }
      ],
      "stateMutability": "view",
      "type": "function"
    },
    {
      "inputs": [
        {
          "internalType": "address",
          "name": "_spender",
          "type": "address"
        },
        {
          "internalType": "uint256",
          "name": "_delta",
          "type": "uint256"
        }
      ],
      "name": "decreaseApproval",
      "outputs": [
        {
          "internalType": "bool",
          "name": "success",
          "type": "bool"
        }
      ],
      "stateMutability": "nonpayable",
      "type": "function"
    },
    {
      "inputs": [
        {
          "internalType": "address",
          "name": "_spender",
          "type": "address"
        },
        {
          "internalType": "uint256",
          "name": "_delta",
          "type": "uint256"
        }
      ],
      "name": "increaseApproval",
      "outputs": [
        {
          "internalType": "bool",
          "name": "success",
          "type": "bool"
        }
      ],
      "stateMutability": "nonpayable",
      "type": "function"
    },
    {
      "inputs": [
        {
          "internalType": "address[]",
          "name": "_spenders",
          "type": "address[]"
        },
        {
          "internalType": "uint256[]",
          "name": "_values",
          "type": "uint256[]"
        },
        {
          "internalType": "uint256",
          "name": "_txId",
          "type": "uint256"
        }
      ],
      "name": "increaseApprovalBulk",
      "outputs": [
        {
          "internalType": "uint256",
          "name": "_bulkCount",
          "type": "uint256"
        }
      ],
      "stateMutability": "nonpayable",
      "type": "function"
    },
    {
      "inputs": [],
      "name": "name",
      "outputs": [
        {
          "internalType": "string",
          "name": "",
          "type": "string"
        }
      ],
      "stateMutability": "view",
      "type": "function"
    },
    {
      "inputs": [],
      "name": "owner",
      "outputs": [
        {
          "internalType": "address",
          "name": "",
          "type": "address"
        }
      ],
      "stateMutability": "view",
      "type": "function"
    },
    {
      "inputs": [],
      "name": "renounceOwnership",
      "outputs": [],
      "stateMutability": "nonpayable",
      "type": "function"
    },
    {
      "inputs": [],
      "name": "symbol",
      "outputs": [
        {
          "internalType": "string",
          "name": "",
          "type": "string"
        }
      ],
      "stateMutability": "view",
      "type": "function"
    },
    {
      "inputs": [],
      "name": "totalSupply",
      "outputs": [
        {
          "internalType": "uint256",
          "name": "",
          "type": "uint256"
        }
      ],
      "stateMutability": "view",
      "type": "function"
    },
    {
      "inputs": [
        {
          "internalType": "address",
          "name": "_to",
          "type": "address"
        },
        {
          "internalType": "uint256",
          "name": "_value",
          "type": "uint256"
        }
      ],
      "name": "transfer",
      "outputs": [
        {
          "internalType": "bool",
          "name": "success",
          "type": "bool"
        }
      ],
      "stateMutability": "nonpayable",
      "type": "function"
    },
    {
      "inputs": [
        {
          "internalType": "address[]",
          "name": "_tos",
          "type": "address[]"
        },
        {
          "internalType": "uint256[]",
          "name": "_values",
          "type": "uint256[]"
        },
        {
          "internalType": "uint256",
          "name": "_txId",
          "type": "uint256"
        }
      ],
      "name": "transferBulk",
      "outputs": [
        {
          "internalType": "uint256",
          "name": "_bulkCount",
          "type": "uint256"
        }
      ],
      "stateMutability": "nonpayable",
      "type": "function"
    },
    {
      "inputs": [
        {
          "internalType": "address",
          "name": "_spender",
          "type": "address"
        },
        {
          "internalType": "address",
          "name": "_to",
          "type": "address"
        },
        {
          "internalType": "uint256",
          "name": "_value",
          "type": "uint256"
        }
      ],
      "name": "transferFrom",
      "outputs": [
        {
          "internalType": "bool",
          "name": "success",
          "type": "bool"
        }
      ],
      "stateMutability": "nonpayable",
      "type": "function"
    },
    {
      "inputs": [
        {
          "internalType": "address",
          "name": "newOwner",
          "type": "address"
        }
      ],
      "name": "transferOwnership",
      "outputs": [],
      "stateMutability": "nonpayable",
      "type": "function"
    }
  ],
  "bytecode": "0x60806040523480156200001157600080fd5b5060405162001dfc38038062001dfc83398101604081905262000034916200027a565b6200003f33620000b7565b6200004f60ff8316600a6200041e565b6200005b908562000433565b60015582516200007390600490602086019062000107565b506005805460ff191660ff841617905580516200009890600690602084019062000107565b5050600154336000908152600260205260409020555062000492915050565b600080546001600160a01b038381166001600160a01b0319831681178455604051919092169283917f8be0079c531659141344cd1fd0a4f28419497f9722a3daafe3b4186f6b6457e09190a35050565b828054620001159062000455565b90600052602060002090601f01602090048101928262000139576000855562000184565b82601f106200015457805160ff191683800117855562000184565b8280016001018555821562000184579182015b828111156200018457825182559160200191906001019062000167565b506200019292915062000196565b5090565b5b8082111562000192576000815560010162000197565b634e487b7160e01b600052604160045260246000fd5b600082601f830112620001d557600080fd5b81516001600160401b0380821115620001f257620001f2620001ad565b604051601f8301601f19908116603f011681019082821181831017156200021d576200021d620001ad565b816040528381526020925086838588010111156200023a57600080fd5b600091505b838210156200025e57858201830151818301840152908201906200023f565b83821115620002705760008385830101525b9695505050505050565b600080600080608085870312156200029157600080fd5b845160208601519094506001600160401b0380821115620002b157600080fd5b620002bf88838901620001c3565b94506040870151915060ff82168214620002d857600080fd5b606087015191935080821115620002ee57600080fd5b50620002fd87828801620001c3565b91505092959194509250565b634e487b7160e01b600052601160045260246000fd5b600181815b808511156200036057816000190482111562000344576200034462000309565b808516156200035257918102915b93841c939080029062000324565b509250929050565b600082620003795750600162000418565b81620003885750600062000418565b8160018114620003a15760028114620003ac57620003cc565b600191505062000418565b60ff841115620003c057620003c062000309565b50506001821b62000418565b5060208310610133831016604e8410600b8410161715620003f1575081810a62000418565b620003fd83836200031f565b806000190482111562000414576200041462000309565b0290505b92915050565b60006200042c838362000368565b9392505050565b600081600019048311821515161562000450576200045062000309565b500290565b600181811c908216806200046a57607f821691505b602082108114156200048c57634e487b7160e01b600052602260045260246000fd5b50919050565b61195a80620004a26000396000f3fe608060405234801561001057600080fd5b50600436106101005760003560e01c8063715018a611610097578063d73dd62311610066578063d73dd62314610238578063dd62ed3e1461024b578063e816d8d814610291578063f2fde38b146102a457600080fd5b8063715018a6146101eb5780638da5cb5b146101f557806395d89b411461021d578063a9059cbb1461022557600080fd5b80632776c640116100d35780632776c64014610170578063313ce5671461018357806366188463146101a257806370a08231146101b557600080fd5b806306fdde0314610105578063095ea7b31461012357806318160ddd1461014657806323b872dd1461015d575b600080fd5b61010d6102b7565b60405161011a91906114e4565b60405180910390f35b610136610131366004611580565b610345565b604051901515815260200161011a565b61014f60015481565b60405190815260200161011a565b61013661016b3660046115aa565b610462565b61014f61017e3660046116f3565b610815565b6005546101909060ff1681565b60405160ff909116815260200161011a565b6101366101b0366004611580565b610a87565b61014f6101c33660046117bc565b73ffffffffffffffffffffffffffffffffffffffff1660009081526002602052604090205490565b6101f3610c79565b005b60005460405173ffffffffffffffffffffffffffffffffffffffff909116815260200161011a565b61010d610c8d565b610136610233366004611580565b610c9a565b610136610246366004611580565b610d0f565b61014f6102593660046117d7565b73ffffffffffffffffffffffffffffffffffffffff918216600090815260036020908152604080832093909416825291909152205490565b61014f61029f3660046116f3565b610ec5565b6101f36102b23660046117bc565b61110f565b600480546102c49061180a565b80601f01602080910402602001604051908101604052809291908181526020018280546102f09061180a565b801561033d5780601f106103125761010080835404028352916020019161033d565b820191906000526020600020905b81548152906001019060200180831161032057829003601f168201915b505050505081565b600073ffffffffffffffffffffffffffffffffffffffff83166103ef576040517f08c379a000000000000000000000000000000000000000000000000000000000815260206004820152602960248201527f546f6b656e207370656e64657220697320616e20756e696e697469616c697a6560448201527f642061646472657373000000000000000000000000000000000000000000000060648201526084015b60405180910390fd5b33600081815260036020908152604080832073ffffffffffffffffffffffffffffffffffffffff881680855290835292819020869055518581529192917f8c5be1e5ebec7d5bd14f71427d1e84f3dd0314c0f7b2291e5b200ac8c7c3b92591015b60405180910390a35060015b92915050565b600073ffffffffffffffffffffffffffffffffffffffff8416610507576040517f08c379a000000000000000000000000000000000000000000000000000000000815260206004820152602a60248201527f43616e27742073656e6420746f6b656e7320746f20756e696e697469616c697a60448201527f656420616464726573730000000000000000000000000000000000000000000060648201526084016103e6565b73ffffffffffffffffffffffffffffffffffffffff84166000908152600360209081526040808320338452909152902054828110156105a2576040517f08c379a000000000000000000000000000000000000000000000000000000000815260206004820152601960248201527f5370656e64657220616c6c6f77616e636520746f6f206c6f770000000000000060448201526064016103e6565b73ffffffffffffffffffffffffffffffffffffffff8416610645576040517f08c379a000000000000000000000000000000000000000000000000000000000815260206004820152602a60248201527f43616e27742073656e6420746f6b656e7320746f20756e696e697469616c697a60448201527f656420616464726573730000000000000000000000000000000000000000000060648201526084016103e6565b604080518082018252601781527f5370656e6465722062616c616e636520746f6f206c6f7700000000000000000060208083019190915273ffffffffffffffffffffffffffffffffffffffff88166000908152600290915291909120546106ad9185906111c6565b73ffffffffffffffffffffffffffffffffffffffff80871660009081526002602052604080822093909355908616815220546106e9908461121a565b73ffffffffffffffffffffffffffffffffffffffff85166000908152600260205260409020557fffffffffffffffffffffffffffffffffffffffffffffffffffffffffffffffff81146107a35773ffffffffffffffffffffffffffffffffffffffff85166000908152600360209081526040808320338452909152902054610771908461129a565b73ffffffffffffffffffffffffffffffffffffffff861660009081526003602090815260408083203384529091529020555b8373ffffffffffffffffffffffffffffffffffffffff168573ffffffffffffffffffffffffffffffffffffffff167fddf252ad1be2c89b69c2b068fc378daa952ba7f163c4a11628f55a4df523b3ef8560405161080291815260200190565b60405180910390a3506001949350505050565b600082518451146108a8576040517f08c379a000000000000000000000000000000000000000000000000000000000815260206004820152602960248201527f416d6f756e74206f66207370656e6465727320616e642076616c75657320646f60448201527f6e2774206d61746368000000000000000000000000000000000000000000000060648201526084016103e6565b8351606411610913576040517f08c379a000000000000000000000000000000000000000000000000000000000815260206004820152601160248201527f546f6f206d616e79207370656e6465727300000000000000000000000000000060448201526064016103e6565b6000805b855181101561095e5761094c8582815181106109355761093561185e565b60200260200101518361121a90919063ffffffff16565b9150610957816118bc565b9050610917565b506b033b2e3c9fd0803ce800000081106109d4576040517f08c379a000000000000000000000000000000000000000000000000000000000815260206004820152601360248201527f42756c6b2076616c756520746f6f20686967680000000000000000000000000060448201526064016103e6565b6000805b8651811015610a4357610a1d8782815181106109f6576109f661185e565b6020026020010151878381518110610a1057610a1061185e565b6020026020010151610d0f565b91508115610a3357610a3084600161121a565b93505b610a3c816118bc565b90506109d8565b50837fca78741c6b48402cfa7be577db6559c46abb0f8ba9ce1468cf71297349370d9c84604051610a7691815260200190565b60405180910390a250509392505050565b600073ffffffffffffffffffffffffffffffffffffffff8316610b2c576040517f08c379a000000000000000000000000000000000000000000000000000000000815260206004820152602960248201527f546f6b656e207370656e64657220697320616e20756e696e697469616c697a6560448201527f642061646472657373000000000000000000000000000000000000000000000060648201526084016103e6565b33600090815260036020908152604080832073ffffffffffffffffffffffffffffffffffffffff8716845290915290205480831115610b9b5733600090815260036020908152604080832073ffffffffffffffffffffffffffffffffffffffff88168452909152812055610c08565b33600090815260036020908152604080832073ffffffffffffffffffffffffffffffffffffffff88168452909152902054610bd6908461129a565b33600090815260036020908152604080832073ffffffffffffffffffffffffffffffffffffffff891684529091529020555b33600081815260036020908152604080832073ffffffffffffffffffffffffffffffffffffffff8916808552908352928190205490519081529192917f8c5be1e5ebec7d5bd14f71427d1e84f3dd0314c0f7b2291e5b200ac8c7c3b925910160405180910390a35060019392505050565b610c816112dc565b610c8b600061135d565b565b600680546102c49061180a565b6000610ca683836113d2565b90508061045c576040517f08c379a000000000000000000000000000000000000000000000000000000000815260206004820152601760248201527f5472616e73666572206469646e2774207375636365656400000000000000000060448201526064016103e6565b600073ffffffffffffffffffffffffffffffffffffffff8316610db4576040517f08c379a000000000000000000000000000000000000000000000000000000000815260206004820152602960248201527f546f6b656e207370656e64657220697320616e20756e696e697469616c697a6560448201527f642061646472657373000000000000000000000000000000000000000000000060648201526084016103e6565b33600090815260036020908152604080832073ffffffffffffffffffffffffffffffffffffffff8716845290915290205480610df084826118f5565b1080610e2457507fffffffffffffffffffffffffffffffffffffffffffffffffffffffffffffffff610e2284836118f5565b145b15610e8a57610e547fffffffffffffffffffffffffffffffffffffffffffffffffffffffffffffffff600161129a565b33600090815260036020908152604080832073ffffffffffffffffffffffffffffffffffffffff89168452909152902055610c08565b33600090815260036020908152604080832073ffffffffffffffffffffffffffffffffffffffff88168452909152902054610bd6908461121a565b60008251845114610f58576040517f08c379a000000000000000000000000000000000000000000000000000000000815260206004820152602b60248201527f416d6f756e74206f6620726563697069656e747320616e642076616c7565732060448201527f646f6e2774206d6174636800000000000000000000000000000000000000000060648201526084016103e6565b8351606411610fc3576040517f08c379a000000000000000000000000000000000000000000000000000000000815260206004820152601360248201527f546f6f206d616e7920726563697069656e74730000000000000000000000000060448201526064016103e6565b6000805b8551811015610ff757610fe58582815181106109355761093561185e565b9150610ff0816118bc565b9050610fc7565b506b033b2e3c9fd0803ce8000000811061106d576040517f08c379a000000000000000000000000000000000000000000000000000000000815260206004820152601360248201527f42756c6b2076616c756520746f6f20686967680000000000000000000000000060448201526064016103e6565b6000805b86518110156110dc576110b687828151811061108f5761108f61185e565b60200260200101518783815181106110a9576110a961185e565b60200260200101516113d2565b915081156110cc576110c984600161121a565b93505b6110d5816118bc565b9050611071565b50837f8ed71c3a6fb899bfe96968ade5a4119b380c0d642a775106eb80aa795450777e84604051610a7691815260200190565b6111176112dc565b73ffffffffffffffffffffffffffffffffffffffff81166111ba576040517f08c379a000000000000000000000000000000000000000000000000000000000815260206004820152602660248201527f4f776e61626c653a206e6577206f776e657220697320746865207a65726f206160448201527f646472657373000000000000000000000000000000000000000000000000000060648201526084016103e6565b6111c38161135d565b50565b60008184841115611204576040517f08c379a00000000000000000000000000000000000000000000000000000000081526004016103e691906114e4565b506000611211848661190d565b95945050505050565b60008061122783856118f5565b905083811015611293576040517f08c379a000000000000000000000000000000000000000000000000000000000815260206004820152601b60248201527f536166654d6174683a206164646974696f6e206f766572666c6f77000000000060448201526064016103e6565b9392505050565b600061129383836040518060400160405280601e81526020017f536166654d6174683a207375627472616374696f6e206f766572666c6f7700008152506111c6565b60005473ffffffffffffffffffffffffffffffffffffffff163314610c8b576040517f08c379a000000000000000000000000000000000000000000000000000000000815260206004820181905260248201527f4f776e61626c653a2063616c6c6572206973206e6f7420746865206f776e657260448201526064016103e6565b6000805473ffffffffffffffffffffffffffffffffffffffff8381167fffffffffffffffffffffffff0000000000000000000000000000000000000000831681178455604051919092169283917f8be0079c531659141344cd1fd0a4f28419497f9722a3daafe3b4186f6b6457e09190a35050565b600073ffffffffffffffffffffffffffffffffffffffff8316158061140c575073ffffffffffffffffffffffffffffffffffffffff831630145b8061142557503360009081526002602052604090205482115b156114325750600061045c565b3360009081526002602052604090205461144d90839061190d565b336000908152600260205260408082209290925573ffffffffffffffffffffffffffffffffffffffff851681522054611486908361121a565b73ffffffffffffffffffffffffffffffffffffffff84166000818152600260205260409081902092909255905133907fddf252ad1be2c89b69c2b068fc378daa952ba7f163c4a11628f55a4df523b3ef906104509086815260200190565b600060208083528351808285015260005b81811015611511578581018301518582016040015282016114f5565b81811115611523576000604083870101525b50601f017fffffffffffffffffffffffffffffffffffffffffffffffffffffffffffffffe016929092016040019392505050565b803573ffffffffffffffffffffffffffffffffffffffff8116811461157b57600080fd5b919050565b6000806040838503121561159357600080fd5b61159c83611557565b946020939093013593505050565b6000806000606084860312156115bf57600080fd5b6115c884611557565b92506115d660208501611557565b9150604084013590509250925092565b7f4e487b7100000000000000000000000000000000000000000000000000000000600052604160045260246000fd5b604051601f82017fffffffffffffffffffffffffffffffffffffffffffffffffffffffffffffffe016810167ffffffffffffffff8111828210171561165c5761165c6115e6565b604052919050565b600067ffffffffffffffff82111561167e5761167e6115e6565b5060051b60200190565b600082601f83011261169957600080fd5b813560206116ae6116a983611664565b611615565b82815260059290921b840181019181810190868411156116cd57600080fd5b8286015b848110156116e857803583529183019183016116d1565b509695505050505050565b60008060006060848603121561170857600080fd5b833567ffffffffffffffff8082111561172057600080fd5b818601915086601f83011261173457600080fd5b813560206117446116a983611664565b82815260059290921b8401810191818101908a84111561176357600080fd5b948201945b838610156117885761177986611557565b82529482019490820190611768565b9750508701359250508082111561179e57600080fd5b506117ab86828701611688565b925050604084013590509250925092565b6000602082840312156117ce57600080fd5b61129382611557565b600080604083850312156117ea57600080fd5b6117f383611557565b915061180160208401611557565b90509250929050565b600181811c9082168061181e57607f821691505b60208210811415611858577f4e487b7100000000000000000000000000000000000000000000000000000000600052602260045260246000fd5b50919050565b7f4e487b7100000000000000000000000000000000000000000000000000000000600052603260045260246000fd5b7f4e487b7100000000000000000000000000000000000000000000000000000000600052601160045260246000fd5b60007fffffffffffffffffffffffffffffffffffffffffffffffffffffffffffffffff8214156118ee576118ee61188d565b5060010190565b600082198211156119085761190861188d565b500190565b60008282101561191f5761191f61188d565b50039056fea26469706673582212201e533fb3f97472cc331bf848c0dea610a472b950a0fb8ed88a9a6a018a3ea47964736f6c63430008090033",
  "linkReferences": {},
  "deployedLinkReferences": {}
}