{
  "_format": "hh-sol-artifact-1",
  "contractName": "ReputationV0",
  "sourceName": "contracts/test/ReputationV0.sol",
  "abi": [
    {
      "anonymous": false,
      "inputs": [
        {
          "indexed": false,
          "internalType": "address",
          "name": "previousAdmin",
          "type": "address"
        },
        {
          "indexed": false,
          "internalType": "address",
          "name": "newAdmin",
          "type": "address"
        }
      ],
      "name": "AdminChanged",
      "type": "event"
    },
    {
      "anonymous": false,
      "inputs": [
        {
          "indexed": true,
          "internalType": "address",
          "name": "beacon",
          "type": "address"
        }
      ],
      "name": "BeaconUpgraded",
      "type": "event"
    },
    {
      "anonymous": false,
      "inputs": [
        {
          "indexed": false,
          "internalType": "uint8",
          "name": "version",
          "type": "uint8"
        }
      ],
      "name": "Initialized",
      "type": "event"
    },
    {
      "anonymous": false,
      "inputs": [
        {
          "indexed": true,
          "internalType": "address",
          "name": "previousOwner",
          "type": "address"
        },
        {
          "indexed": true,
          "internalType": "address",
          "name": "newOwner",
          "type": "address"
        }
      ],
      "name": "OwnershipTransferred",
      "type": "event"
    },
    {
      "anonymous": false,
      "inputs": [
        {
          "indexed": true,
          "internalType": "address",
          "name": "implementation",
          "type": "address"
        }
      ],
      "name": "Upgraded",
      "type": "event"
    },
    {
      "inputs": [
        {
          "components": [
            {
              "internalType": "address",
              "name": "workerAddress",
              "type": "address"
            },
            {
              "internalType": "int256",
              "name": "reputation",
              "type": "int256"
            }
          ],
          "internalType": "struct ReputationV0.Worker[]",
          "name": "_workers",
          "type": "tuple[]"
        }
      ],
      "name": "addReputations",
      "outputs": [],
      "stateMutability": "nonpayable",
      "type": "function"
    },
    {
      "inputs": [
        {
          "internalType": "address[]",
          "name": "_workers",
          "type": "address[]"
        }
      ],
      "name": "getReputations",
      "outputs": [
        {
          "components": [
            {
              "internalType": "address",
              "name": "workerAddress",
              "type": "address"
            },
            {
              "internalType": "int256",
              "name": "reputation",
              "type": "int256"
            }
          ],
          "internalType": "struct ReputationV0.Worker[]",
          "name": "",
          "type": "tuple[]"
        }
      ],
      "stateMutability": "view",
      "type": "function"
    },
    {
      "inputs": [
        {
          "internalType": "address",
          "name": "_staking",
          "type": "address"
        },
        {
          "internalType": "uint256",
          "name": "_minimumStake",
          "type": "uint256"
        }
      ],
      "name": "initialize",
      "outputs": [],
      "stateMutability": "payable",
      "type": "function"
    },
    {
      "inputs": [],
      "name": "minimumStake",
      "outputs": [
        {
          "internalType": "uint256",
          "name": "",
          "type": "uint256"
        }
      ],
      "stateMutability": "view",
      "type": "function"
    },
    {
      "inputs": [],
      "name": "owner",
      "outputs": [
        {
          "internalType": "address",
          "name": "",
          "type": "address"
        }
      ],
      "stateMutability": "view",
      "type": "function"
    },
    {
      "inputs": [],
      "name": "proxiableUUID",
      "outputs": [
        {
          "internalType": "bytes32",
          "name": "",
          "type": "bytes32"
        }
      ],
      "stateMutability": "view",
      "type": "function"
    },
    {
      "inputs": [],
      "name": "renounceOwnership",
      "outputs": [],
      "stateMutability": "nonpayable",
      "type": "function"
    },
    {
      "inputs": [
        {
          "internalType": "address",
          "name": "",
          "type": "address"
        }
      ],
      "name": "reputations",
      "outputs": [
        {
          "internalType": "int256",
          "name": "",
          "type": "int256"
        }
      ],
      "stateMutability": "view",
      "type": "function"
    },
    {
      "inputs": [
        {
          "internalType": "uint256",
          "name": "_minimumStake",
          "type": "uint256"
        }
      ],
      "name": "setMinimumStake",
      "outputs": [],
      "stateMutability": "nonpayable",
      "type": "function"
    },
    {
      "inputs": [],
      "name": "staking",
      "outputs": [
        {
          "internalType": "address",
          "name": "",
          "type": "address"
        }
      ],
      "stateMutability": "view",
      "type": "function"
    },
    {
      "inputs": [
        {
          "internalType": "address",
          "name": "newOwner",
          "type": "address"
        }
      ],
      "name": "transferOwnership",
      "outputs": [],
      "stateMutability": "nonpayable",
      "type": "function"
    },
    {
      "inputs": [
        {
          "internalType": "address",
          "name": "newImplementation",
          "type": "address"
        }
      ],
      "name": "upgradeTo",
      "outputs": [],
      "stateMutability": "nonpayable",
      "type": "function"
    },
    {
      "inputs": [
        {
          "internalType": "address",
          "name": "newImplementation",
          "type": "address"
        },
        {
          "internalType": "bytes",
          "name": "data",
          "type": "bytes"
        }
      ],
      "name": "upgradeToAndCall",
      "outputs": [],
      "stateMutability": "payable",
      "type": "function"
    }
  ],
  "bytecode": "0x60a06040523060805234801561001457600080fd5b5060805161218261004c600039600081816102d50152818161038a015281816104dd0152818161058d01526106d601526121826000f3fe6080604052600436106100d25760003560e01c8063715018a61161007f578063cd6dc68711610059578063cd6dc68714610233578063ec5ffac214610246578063f2fde38b1461025c578063fe78c0c01461027c57600080fd5b8063715018a6146101d35780638a1e7ce3146101e85780638da5cb5b1461020857600080fd5b80634cf088d9116100b05780634cf088d9146101595780634f1ef286146101ab57806352d1902d146101be57600080fd5b806306fa15a7146100d7578063233e9903146101175780633659cfe614610139575b600080fd5b3480156100e357600080fd5b506101046100f2366004611b32565b60cb6020526000908152604090205481565b6040519081526020015b60405180910390f35b34801561012357600080fd5b50610137610132366004611b4d565b6102a9565b005b34801561014557600080fd5b50610137610154366004611b32565b6102bd565b34801561016557600080fd5b5060c9546101869073ffffffffffffffffffffffffffffffffffffffff1681565b60405173ffffffffffffffffffffffffffffffffffffffff909116815260200161010e565b6101376101b9366004611c0d565b6104c5565b3480156101ca57600080fd5b506101046106bc565b3480156101df57600080fd5b506101376107a8565b3480156101f457600080fd5b50610137610203366004611cf5565b6107bc565b34801561021457600080fd5b5060335473ffffffffffffffffffffffffffffffffffffffff16610186565b610137610241366004611db7565b610cd9565b34801561025257600080fd5b5061010460ca5481565b34801561026857600080fd5b50610137610277366004611b32565b610e76565b34801561028857600080fd5b5061029c610297366004611de1565b610f2a565b60405161010e9190611e6e565b6102b161106f565b6102ba816110f0565b50565b3073ffffffffffffffffffffffffffffffffffffffff7f0000000000000000000000000000000000000000000000000000000000000000161415610388576040517f08c379a000000000000000000000000000000000000000000000000000000000815260206004820152602c60248201527f46756e6374696f6e206d7573742062652063616c6c6564207468726f7567682060448201527f64656c656761746563616c6c000000000000000000000000000000000000000060648201526084015b60405180910390fd5b7f000000000000000000000000000000000000000000000000000000000000000073ffffffffffffffffffffffffffffffffffffffff166103fd7f360894a13ba1a3210667c828492db98dca3e2076cc3735a920a3ca505d382bbc5473ffffffffffffffffffffffffffffffffffffffff1690565b73ffffffffffffffffffffffffffffffffffffffff16146104a0576040517f08c379a000000000000000000000000000000000000000000000000000000000815260206004820152602c60248201527f46756e6374696f6e206d7573742062652063616c6c6564207468726f7567682060448201527f6163746976652070726f78790000000000000000000000000000000000000000606482015260840161037f565b6104a98161115f565b604080516000808252602082019092526102ba91839190611167565b3073ffffffffffffffffffffffffffffffffffffffff7f000000000000000000000000000000000000000000000000000000000000000016141561058b576040517f08c379a000000000000000000000000000000000000000000000000000000000815260206004820152602c60248201527f46756e6374696f6e206d7573742062652063616c6c6564207468726f7567682060448201527f64656c656761746563616c6c0000000000000000000000000000000000000000606482015260840161037f565b7f000000000000000000000000000000000000000000000000000000000000000073ffffffffffffffffffffffffffffffffffffffff166106007f360894a13ba1a3210667c828492db98dca3e2076cc3735a920a3ca505d382bbc5473ffffffffffffffffffffffffffffffffffffffff1690565b73ffffffffffffffffffffffffffffffffffffffff16146106a3576040517f08c379a000000000000000000000000000000000000000000000000000000000815260206004820152602c60248201527f46756e6374696f6e206d7573742062652063616c6c6564207468726f7567682060448201527f6163746976652070726f78790000000000000000000000000000000000000000606482015260840161037f565b6106ac8261115f565b6106b882826001611167565b5050565b60003073ffffffffffffffffffffffffffffffffffffffff7f00000000000000000000000000000000000000000000000000000000000000001614610783576040517f08c379a000000000000000000000000000000000000000000000000000000000815260206004820152603860248201527f555550535570677261646561626c653a206d757374206e6f742062652063616c60448201527f6c6564207468726f7567682064656c656761746563616c6c0000000000000000606482015260840161037f565b507f360894a13ba1a3210667c828492db98dca3e2076cc3735a920a3ca505d382bbc90565b6107b061106f565b6107ba6000611375565b565b60c9546040517fa23c44b100000000000000000000000000000000000000000000000000000000815233600482015260009173ffffffffffffffffffffffffffffffffffffffff169063a23c44b19060240160806040518083038186803b15801561082657600080fd5b505afa15801561083a573d6000803e3d6000fd5b505050506040513d601f19601f8201168201806040525081019061085e9190611ed3565b905060ca5461086c826113ec565b116108f9576040517f08c379a000000000000000000000000000000000000000000000000000000000815260206004820152603060248201527f4e6565647320746f207374616b6520484d5420746f6b656e7320746f206d6f6460448201527f6966792072657075746174696f6e732e00000000000000000000000000000000606482015260840161037f565b60005b8251811015610cd457606461099384838151811061091c5761091c611f39565b60200260200101516020015160cb600087868151811061093e5761093e611f39565b60200260200101516000015173ffffffffffffffffffffffffffffffffffffffff1673ffffffffffffffffffffffffffffffffffffffff1681526020019081526020016000205461140890919063ffffffff16565b1380610a36575060cb60008483815181106109b0576109b0611f39565b60200260200101516000015173ffffffffffffffffffffffffffffffffffffffff1673ffffffffffffffffffffffffffffffffffffffff168152602001908152602001600020546000148015610a3657506064610a346032858481518110610a1a57610a1a611f39565b60200260200101516020015161140890919063ffffffff16565b135b15610a8a57606460cb6000858481518110610a5357610a53611f39565b6020908102919091018101515173ffffffffffffffffffffffffffffffffffffffff16825281019190915260400160002055610cc2565b60cb6000848381518110610aa057610aa0611f39565b60200260200101516000015173ffffffffffffffffffffffffffffffffffffffff1673ffffffffffffffffffffffffffffffffffffffff168152602001908152602001600020546000148015610b0c57506001610b0a6032858481518110610a1a57610a1a611f39565b125b80610b9357506001610b2984838151811061091c5761091c611f39565b128015610b93575060cb6000848381518110610b4757610b47611f39565b60200260200101516000015173ffffffffffffffffffffffffffffffffffffffff1673ffffffffffffffffffffffffffffffffffffffff16815260200190815260200160002054600014155b15610bb057600160cb6000858481518110610a5357610a53611f39565b60cb6000848381518110610bc657610bc6611f39565b60200260200101516000015173ffffffffffffffffffffffffffffffffffffffff1673ffffffffffffffffffffffffffffffffffffffff1681526020019081526020016000205460001415610c4257610c2c6032848381518110610a1a57610a1a611f39565b60cb6000858481518110610a5357610a53611f39565b610c79838281518110610c5757610c57611f39565b60200260200101516020015160cb600086858151811061093e5761093e611f39565b60cb6000858481518110610c8f57610c8f611f39565b6020908102919091018101515173ffffffffffffffffffffffffffffffffffffffff168252810191909152604001600020555b80610ccc81611f97565b9150506108fc565b505050565b600054610100900460ff1615808015610cf95750600054600160ff909116105b80610d135750303b158015610d13575060005460ff166001145b610d9f576040517f08c379a000000000000000000000000000000000000000000000000000000000815260206004820152602e60248201527f496e697469616c697a61626c653a20636f6e747261637420697320616c72656160448201527f647920696e697469616c697a6564000000000000000000000000000000000000606482015260840161037f565b600080547fffffffffffffffffffffffffffffffffffffffffffffffffffffffffffffff001660011790558015610dfd57600080547fffffffffffffffffffffffffffffffffffffffffffffffffffffffffffff00ff166101001790555b610e056114d0565b610e0f8383611570565b8015610cd457600080547fffffffffffffffffffffffffffffffffffffffffffffffffffffffffffff00ff169055604051600181527f7f26b83ff96e1f2b6a682f133852f6798a09c465da95921460cefb38474024989060200160405180910390a1505050565b610e7e61106f565b73ffffffffffffffffffffffffffffffffffffffff8116610f21576040517f08c379a000000000000000000000000000000000000000000000000000000000815260206004820152602660248201527f4f776e61626c653a206e6577206f776e657220697320746865207a65726f206160448201527f6464726573730000000000000000000000000000000000000000000000000000606482015260840161037f565b6102ba81611375565b60606000825167ffffffffffffffff811115610f4857610f48611b66565b604051908082528060200260200182016040528015610f8d57816020015b6040805180820190915260008082526020820152815260200190600190039081610f665790505b50905060005b8351811015611068576040518060400160405280858381518110610fb957610fb9611f39565b602002602001015173ffffffffffffffffffffffffffffffffffffffff16815260200160cb6000878581518110610ff257610ff2611f39565b602002602001015173ffffffffffffffffffffffffffffffffffffffff1673ffffffffffffffffffffffffffffffffffffffff1681526020019081526020016000205481525082828151811061104a5761104a611f39565b6020026020010181905250808061106090611f97565b915050610f93565b5092915050565b60335473ffffffffffffffffffffffffffffffffffffffff1633146107ba576040517f08c379a000000000000000000000000000000000000000000000000000000000815260206004820181905260248201527f4f776e61626c653a2063616c6c6572206973206e6f7420746865206f776e6572604482015260640161037f565b6000811161115a576040517f08c379a000000000000000000000000000000000000000000000000000000000815260206004820152601960248201527f4d757374206265206120706f736974697665206e756d62657200000000000000604482015260640161037f565b60ca55565b6102ba61106f565b7f4910fdfa16fed3260ed0e7147f7cc6da11a60208b5b9406d12a635614ffd91435460ff161561119a57610cd4836116cd565b8273ffffffffffffffffffffffffffffffffffffffff166352d1902d6040518163ffffffff1660e01b815260040160206040518083038186803b1580156111e057600080fd5b505afa92505050801561122e575060408051601f3d9081017fffffffffffffffffffffffffffffffffffffffffffffffffffffffffffffffe016820190925261122b91810190611fd0565b60015b6112ba576040517f08c379a000000000000000000000000000000000000000000000000000000000815260206004820152602e60248201527f45524331393637557067726164653a206e657720696d706c656d656e7461746960448201527f6f6e206973206e6f742055555053000000000000000000000000000000000000606482015260840161037f565b7f360894a13ba1a3210667c828492db98dca3e2076cc3735a920a3ca505d382bbc8114611369576040517f08c379a000000000000000000000000000000000000000000000000000000000815260206004820152602960248201527f45524331393637557067726164653a20756e737570706f727465642070726f7860448201527f6961626c65555549440000000000000000000000000000000000000000000000606482015260840161037f565b50610cd48383836117d7565b6033805473ffffffffffffffffffffffffffffffffffffffff8381167fffffffffffffffffffffffff0000000000000000000000000000000000000000831681179093556040519116919082907f8be0079c531659141344cd1fd0a4f28419497f9722a3daafe3b4186f6b6457e090600090a35050565b60006114026113fa83611802565b83519061181f565b92915050565b6000806114158385611fe9565b9050600083121580156114285750838112155b8061143d575060008312801561143d57508381125b6114c9576040517f08c379a000000000000000000000000000000000000000000000000000000000815260206004820152602160248201527f5369676e6564536166654d6174683a206164646974696f6e206f766572666c6f60448201527f7700000000000000000000000000000000000000000000000000000000000000606482015260840161037f565b9392505050565b600054610100900460ff16611567576040517f08c379a000000000000000000000000000000000000000000000000000000000815260206004820152602b60248201527f496e697469616c697a61626c653a20636f6e7472616374206973206e6f74206960448201527f6e697469616c697a696e67000000000000000000000000000000000000000000606482015260840161037f565b6107ba33611375565b600054610100900460ff16611607576040517f08c379a000000000000000000000000000000000000000000000000000000000815260206004820152602b60248201527f496e697469616c697a61626c653a20636f6e7472616374206973206e6f74206960448201527f6e697469616c697a696e67000000000000000000000000000000000000000000606482015260840161037f565b73ffffffffffffffffffffffffffffffffffffffff8216611684576040517f08c379a000000000000000000000000000000000000000000000000000000000815260206004820152601560248201527f5a65726f20616464726573732070726f76696465640000000000000000000000604482015260640161037f565b60c980547fffffffffffffffffffffffff00000000000000000000000000000000000000001673ffffffffffffffffffffffffffffffffffffffff84161790556106b8816110f0565b73ffffffffffffffffffffffffffffffffffffffff81163b611771576040517f08c379a000000000000000000000000000000000000000000000000000000000815260206004820152602d60248201527f455243313936373a206e657720696d706c656d656e746174696f6e206973206e60448201527f6f74206120636f6e747261637400000000000000000000000000000000000000606482015260840161037f565b7f360894a13ba1a3210667c828492db98dca3e2076cc3735a920a3ca505d382bbc80547fffffffffffffffffffffffff00000000000000000000000000000000000000001673ffffffffffffffffffffffffffffffffffffffff92909216919091179055565b6117e083611861565b6000825111806117ed5750805b15610cd4576117fc83836118ae565b50505050565b6000611402826040015183602001516119ed90919063ffffffff16565b60006114c983836040518060400160405280601e81526020017f536166654d6174683a207375627472616374696f6e206f766572666c6f770000815250611a66565b61186a816116cd565b60405173ffffffffffffffffffffffffffffffffffffffff8216907fbc7cd75a20ee27fd9adebab32041f755214dbc6bffa90cc0225b39da2e5c2d3b90600090a250565b606073ffffffffffffffffffffffffffffffffffffffff83163b611954576040517f08c379a000000000000000000000000000000000000000000000000000000000815260206004820152602660248201527f416464726573733a2064656c65676174652063616c6c20746f206e6f6e2d636f60448201527f6e74726163740000000000000000000000000000000000000000000000000000606482015260840161037f565b6000808473ffffffffffffffffffffffffffffffffffffffff168460405161197c9190612089565b600060405180830381855af49150503d80600081146119b7576040519150601f19603f3d011682016040523d82523d6000602084013e6119bc565b606091505b50915091506119e4828260405180606001604052806027815260200161212660279139611ab1565b95945050505050565b6000806119fa83856120a5565b9050838110156114c9576040517f08c379a000000000000000000000000000000000000000000000000000000000815260206004820152601b60248201527f536166654d6174683a206164646974696f6e206f766572666c6f770000000000604482015260640161037f565b60008184841115611aa4576040517f08c379a000000000000000000000000000000000000000000000000000000000815260040161037f91906120bd565b5060006119e4848661210e565b60608315611ac05750816114c9565b6114c98383815115611ad55781518083602001fd5b806040517f08c379a000000000000000000000000000000000000000000000000000000000815260040161037f91906120bd565b803573ffffffffffffffffffffffffffffffffffffffff81168114611b2d57600080fd5b919050565b600060208284031215611b4457600080fd5b6114c982611b09565b600060208284031215611b5f57600080fd5b5035919050565b7f4e487b7100000000000000000000000000000000000000000000000000000000600052604160045260246000fd5b6040805190810167ffffffffffffffff81118282101715611bb857611bb8611b66565b60405290565b604051601f82017fffffffffffffffffffffffffffffffffffffffffffffffffffffffffffffffe016810167ffffffffffffffff81118282101715611c0557611c05611b66565b604052919050565b60008060408385031215611c2057600080fd5b611c2983611b09565b915060208084013567ffffffffffffffff80821115611c4757600080fd5b818601915086601f830112611c5b57600080fd5b813581811115611c6d57611c6d611b66565b611c9d847fffffffffffffffffffffffffffffffffffffffffffffffffffffffffffffffe0601f84011601611bbe565b91508082528784828501011115611cb357600080fd5b80848401858401376000848284010152508093505050509250929050565b600067ffffffffffffffff821115611ceb57611ceb611b66565b5060051b60200190565b60006020808385031215611d0857600080fd5b823567ffffffffffffffff811115611d1f57600080fd5b8301601f81018513611d3057600080fd5b8035611d43611d3e82611cd1565b611bbe565b81815260069190911b82018301908381019087831115611d6257600080fd5b928401925b82841015611dac5760408489031215611d805760008081fd5b611d88611b95565b611d9185611b09565b81528486013586820152825260409093019290840190611d67565b979650505050505050565b60008060408385031215611dca57600080fd5b611dd383611b09565b946020939093013593505050565b60006020808385031215611df457600080fd5b823567ffffffffffffffff811115611e0b57600080fd5b8301601f81018513611e1c57600080fd5b8035611e2a611d3e82611cd1565b81815260059190911b82018301908381019087831115611e4957600080fd5b928401925b82841015611dac57611e5f84611b09565b82529284019290840190611e4e565b602080825282518282018190526000919060409081850190868401855b82811015611ec6578151805173ffffffffffffffffffffffffffffffffffffffff168552860151868501529284019290850190600101611e8b565b5091979650505050505050565b600060808284031215611ee557600080fd5b6040516080810181811067ffffffffffffffff82111715611f0857611f08611b66565b8060405250825181526020830151602082015260408301516040820152606083015160608201528091505092915050565b7f4e487b7100000000000000000000000000000000000000000000000000000000600052603260045260246000fd5b7f4e487b7100000000000000000000000000000000000000000000000000000000600052601160045260246000fd5b60007fffffffffffffffffffffffffffffffffffffffffffffffffffffffffffffffff821415611fc957611fc9611f68565b5060010190565b600060208284031215611fe257600080fd5b5051919050565b6000808212827f7fffffffffffffffffffffffffffffffffffffffffffffffffffffffffffffff0384138115161561202357612023611f68565b827f800000000000000000000000000000000000000000000000000000000000000003841281161561205757612057611f68565b50500190565b60005b83811015612078578181015183820152602001612060565b838111156117fc5750506000910152565b6000825161209b81846020870161205d565b9190910192915050565b600082198211156120b8576120b8611f68565b500190565b60208152600082518060208401526120dc81604085016020870161205d565b601f017fffffffffffffffffffffffffffffffffffffffffffffffffffffffffffffffe0169190910160400192915050565b60008282101561212057612120611f68565b50039056fe416464726573733a206c6f772d6c6576656c2064656c65676174652063616c6c206661696c6564a2646970667358221220ed513c04834df52492138402b2273a465f87cc925b1ffe6c499b143573f30bfa64736f6c63430008090033",
  "linkReferences": {},
  "deployedLinkReferences": {}
}