{
  "_format": "hh-sol-artifact-1",
  "contractName": "Staking",
  "sourceName": "contracts/Staking.sol",
  "abi": [
    {
      "inputs": [
        {
          "internalType": "address",
          "name": "_eip20",
          "type": "address"
        },
        {
          "internalType": "address",
          "name": "_escrowFactory",
          "type": "address"
        },
        {
          "internalType": "uint256",
          "name": "_minimumStake",
          "type": "uint256"
        },
        {
          "internalType": "uint32",
          "name": "_lockPeriod",
          "type": "uint32"
        }
      ],
      "stateMutability": "nonpayable",
      "type": "constructor"
    },
    {
      "anonymous": false,
      "inputs": [
        {
          "indexed": true,
          "internalType": "address",
          "name": "staker",
          "type": "address"
        },
        {
          "indexed": false,
          "internalType": "uint256",
          "name": "tokens",
          "type": "uint256"
        },
        {
          "indexed": true,
          "internalType": "address",
          "name": "escrowAddress",
          "type": "address"
        },
        {
          "indexed": false,
          "internalType": "uint256",
          "name": "closedAt",
          "type": "uint256"
        }
      ],
      "name": "AllocationClosed",
      "type": "event"
    },
    {
      "anonymous": false,
      "inputs": [
        {
          "indexed": true,
          "internalType": "uint32",
          "name": "lockPeriod",
          "type": "uint32"
        }
      ],
      "name": "SetLockPeriod",
      "type": "event"
    },
    {
      "anonymous": false,
      "inputs": [
        {
          "indexed": true,
          "internalType": "uint256",
          "name": "minimumStake",
          "type": "uint256"
        }
      ],
      "name": "SetMinumumStake",
      "type": "event"
    },
    {
      "anonymous": false,
      "inputs": [
        {
          "indexed": true,
          "internalType": "address",
          "name": "rewardPool",
          "type": "address"
        }
      ],
      "name": "SetRewardPool",
      "type": "event"
    },
    {
      "anonymous": false,
      "inputs": [
        {
          "indexed": true,
          "internalType": "address",
          "name": "staker",
          "type": "address"
        },
        {
          "indexed": true,
          "internalType": "enum Stakes.Role",
          "name": "role",
          "type": "uint8"
        }
      ],
      "name": "SetStaker",
      "type": "event"
    },
    {
      "anonymous": false,
      "inputs": [
        {
          "indexed": true,
          "internalType": "address",
          "name": "staker",
          "type": "address"
        },
        {
          "indexed": false,
          "internalType": "uint256",
          "name": "tokens",
          "type": "uint256"
        },
        {
          "indexed": true,
          "internalType": "address",
          "name": "escrowAddress",
          "type": "address"
        },
        {
          "indexed": false,
          "internalType": "uint256",
          "name": "createdAt",
          "type": "uint256"
        }
      ],
      "name": "StakeAllocated",
      "type": "event"
    },
    {
      "anonymous": false,
      "inputs": [
        {
          "indexed": true,
          "internalType": "address",
          "name": "staker",
          "type": "address"
        },
        {
          "indexed": false,
          "internalType": "uint256",
          "name": "tokens",
          "type": "uint256"
        }
      ],
      "name": "StakeDeposited",
      "type": "event"
    },
    {
      "anonymous": false,
      "inputs": [
        {
          "indexed": true,
          "internalType": "address",
          "name": "staker",
          "type": "address"
        },
        {
          "indexed": false,
          "internalType": "uint256",
          "name": "tokens",
          "type": "uint256"
        },
        {
          "indexed": false,
          "internalType": "uint256",
          "name": "until",
          "type": "uint256"
        }
      ],
      "name": "StakeLocked",
      "type": "event"
    },
    {
      "anonymous": false,
      "inputs": [
        {
          "indexed": true,
          "internalType": "address",
          "name": "staker",
          "type": "address"
        },
        {
          "indexed": false,
          "internalType": "uint256",
          "name": "tokens",
          "type": "uint256"
        }
      ],
      "name": "StakeSlashed",
      "type": "event"
    },
    {
      "anonymous": false,
      "inputs": [
        {
          "indexed": true,
          "internalType": "address",
          "name": "staker",
          "type": "address"
        },
        {
          "indexed": false,
          "internalType": "uint256",
          "name": "tokens",
          "type": "uint256"
        }
      ],
      "name": "StakeWithdrawn",
      "type": "event"
    },
    {
      "inputs": [
        {
          "internalType": "address",
          "name": "_escrowAddress",
          "type": "address"
        },
        {
          "internalType": "uint256",
          "name": "_tokens",
          "type": "uint256"
        }
      ],
      "name": "allocate",
      "outputs": [],
      "stateMutability": "nonpayable",
      "type": "function"
    },
    {
      "inputs": [
        {
          "internalType": "address",
          "name": "",
          "type": "address"
        }
      ],
      "name": "allocations",
      "outputs": [
        {
          "internalType": "address",
          "name": "escrowAddress",
          "type": "address"
        },
        {
          "internalType": "address",
          "name": "staker",
          "type": "address"
        },
        {
          "internalType": "uint256",
          "name": "tokens",
          "type": "uint256"
        },
        {
          "internalType": "uint256",
          "name": "createdAt",
          "type": "uint256"
        },
        {
          "internalType": "uint256",
          "name": "closedAt",
          "type": "uint256"
        }
      ],
      "stateMutability": "view",
      "type": "function"
    },
    {
      "inputs": [
        {
          "internalType": "address",
          "name": "_escrowAddress",
          "type": "address"
        }
      ],
      "name": "closeAllocation",
      "outputs": [],
      "stateMutability": "nonpayable",
      "type": "function"
    },
    {
      "inputs": [],
      "name": "eip20",
      "outputs": [
        {
          "internalType": "address",
          "name": "",
          "type": "address"
        }
      ],
      "stateMutability": "view",
      "type": "function"
    },
    {
      "inputs": [],
      "name": "escrowFactory",
      "outputs": [
        {
          "internalType": "address",
          "name": "",
          "type": "address"
        }
      ],
      "stateMutability": "view",
      "type": "function"
    },
    {
      "inputs": [
        {
          "internalType": "address",
          "name": "_escrowAddress",
          "type": "address"
        }
      ],
      "name": "getAllocation",
      "outputs": [
        {
          "components": [
            {
              "internalType": "address",
              "name": "escrowAddress",
              "type": "address"
            },
            {
              "internalType": "address",
              "name": "staker",
              "type": "address"
            },
            {
              "internalType": "uint256",
              "name": "tokens",
              "type": "uint256"
            },
            {
              "internalType": "uint256",
              "name": "createdAt",
              "type": "uint256"
            },
            {
              "internalType": "uint256",
              "name": "closedAt",
              "type": "uint256"
            }
          ],
          "internalType": "struct IStaking.Allocation",
          "name": "",
          "type": "tuple"
        }
      ],
      "stateMutability": "view",
      "type": "function"
    },
    {
      "inputs": [
        {
          "internalType": "address",
          "name": "_escrowAddress",
          "type": "address"
        }
      ],
      "name": "getAllocationState",
      "outputs": [
        {
          "internalType": "enum IStaking.AllocationState",
          "name": "",
          "type": "uint8"
        }
      ],
      "stateMutability": "view",
      "type": "function"
    },
    {
      "inputs": [
        {
          "internalType": "address",
          "name": "_staker",
          "type": "address"
        }
      ],
      "name": "getStakedTokens",
      "outputs": [
        {
          "internalType": "uint256",
          "name": "",
          "type": "uint256"
        }
      ],
      "stateMutability": "view",
      "type": "function"
    },
    {
      "inputs": [
        {
          "internalType": "address",
          "name": "_staker",
          "type": "address"
        }
      ],
      "name": "getStaker",
      "outputs": [
        {
          "components": [
            {
              "internalType": "enum Stakes.Role",
              "name": "role",
              "type": "uint8"
            },
            {
              "internalType": "uint256",
              "name": "tokensStaked",
              "type": "uint256"
            },
            {
              "internalType": "uint256",
              "name": "tokensAllocated",
              "type": "uint256"
            },
            {
              "internalType": "uint256",
              "name": "tokensLocked",
              "type": "uint256"
            },
            {
              "internalType": "uint256",
              "name": "tokensLockedUntil",
              "type": "uint256"
            }
          ],
          "internalType": "struct Stakes.Staker",
          "name": "",
          "type": "tuple"
        }
      ],
      "stateMutability": "view",
      "type": "function"
    },
    {
      "inputs": [
        {
          "internalType": "address",
          "name": "_staker",
          "type": "address"
        }
      ],
      "name": "hasAvailableStake",
      "outputs": [
        {
          "internalType": "bool",
          "name": "",
          "type": "bool"
        }
      ],
      "stateMutability": "view",
      "type": "function"
    },
    {
      "inputs": [
        {
          "internalType": "address",
          "name": "_staker",
          "type": "address"
        }
      ],
      "name": "hasStake",
      "outputs": [
        {
          "internalType": "bool",
          "name": "",
          "type": "bool"
        }
      ],
      "stateMutability": "view",
      "type": "function"
    },
    {
      "inputs": [
        {
          "internalType": "address",
          "name": "_escrowAddress",
          "type": "address"
        }
      ],
      "name": "isAllocation",
      "outputs": [
        {
          "internalType": "bool",
          "name": "",
          "type": "bool"
        }
      ],
      "stateMutability": "view",
      "type": "function"
    },
    {
      "inputs": [
        {
          "internalType": "address",
          "name": "_staker",
          "type": "address"
        },
        {
          "internalType": "enum Stakes.Role",
          "name": "_role",
          "type": "uint8"
        }
      ],
      "name": "isRole",
      "outputs": [
        {
          "internalType": "bool",
          "name": "",
          "type": "bool"
        }
      ],
      "stateMutability": "view",
      "type": "function"
    },
    {
      "inputs": [],
      "name": "lockPeriod",
      "outputs": [
        {
          "internalType": "uint32",
          "name": "",
          "type": "uint32"
        }
      ],
      "stateMutability": "view",
      "type": "function"
    },
    {
      "inputs": [],
      "name": "minimumStake",
      "outputs": [
        {
          "internalType": "uint256",
          "name": "",
          "type": "uint256"
        }
      ],
      "stateMutability": "view",
      "type": "function"
    },
    {
      "inputs": [],
      "name": "owner",
      "outputs": [
        {
          "internalType": "address",
          "name": "",
          "type": "address"
        }
      ],
      "stateMutability": "view",
      "type": "function"
    },
    {
      "inputs": [],
      "name": "rewardPool",
      "outputs": [
        {
          "internalType": "address",
          "name": "",
          "type": "address"
        }
      ],
      "stateMutability": "view",
      "type": "function"
    },
    {
      "inputs": [
        {
          "internalType": "uint32",
          "name": "_lockPeriod",
          "type": "uint32"
        }
      ],
      "name": "setLockPeriod",
      "outputs": [],
      "stateMutability": "nonpayable",
      "type": "function"
    },
    {
      "inputs": [
        {
          "internalType": "uint256",
          "name": "_minimumStake",
          "type": "uint256"
        }
      ],
      "name": "setMinimumStake",
      "outputs": [],
      "stateMutability": "nonpayable",
      "type": "function"
    },
    {
      "inputs": [
        {
          "internalType": "address",
          "name": "_rewardPool",
          "type": "address"
        }
      ],
      "name": "setRewardPool",
      "outputs": [],
      "stateMutability": "nonpayable",
      "type": "function"
    },
    {
      "inputs": [
        {
          "internalType": "address",
          "name": "_staker",
          "type": "address"
        },
        {
          "internalType": "enum Stakes.Role",
          "name": "_role",
          "type": "uint8"
        }
      ],
      "name": "setStaker",
      "outputs": [],
      "stateMutability": "nonpayable",
      "type": "function"
    },
    {
      "inputs": [
        {
          "internalType": "address",
          "name": "_staker",
          "type": "address"
        },
        {
          "internalType": "address",
          "name": "_escrowAddress",
          "type": "address"
        },
        {
          "internalType": "uint256",
          "name": "_tokens",
          "type": "uint256"
        }
      ],
      "name": "slash",
      "outputs": [],
      "stateMutability": "nonpayable",
      "type": "function"
    },
    {
      "inputs": [
        {
          "internalType": "address",
          "name": "",
          "type": "address"
        }
      ],
      "name": "slashers",
      "outputs": [
        {
          "internalType": "bool",
          "name": "",
          "type": "bool"
        }
      ],
      "stateMutability": "view",
      "type": "function"
    },
    {
      "inputs": [
        {
          "internalType": "uint256",
          "name": "_tokens",
          "type": "uint256"
        }
      ],
      "name": "stake",
      "outputs": [],
      "stateMutability": "nonpayable",
      "type": "function"
    },
    {
      "inputs": [
        {
          "internalType": "enum Stakes.Role",
          "name": "",
          "type": "uint8"
        },
        {
          "internalType": "uint256",
          "name": "",
          "type": "uint256"
        }
      ],
      "name": "stakers",
      "outputs": [
        {
          "internalType": "address",
          "name": "",
          "type": "address"
        }
      ],
      "stateMutability": "view",
      "type": "function"
    },
    {
      "inputs": [
        {
          "internalType": "address",
          "name": "",
          "type": "address"
        }
      ],
      "name": "stakes",
      "outputs": [
        {
          "internalType": "enum Stakes.Role",
          "name": "role",
          "type": "uint8"
        },
        {
          "internalType": "uint256",
          "name": "tokensStaked",
          "type": "uint256"
        },
        {
          "internalType": "uint256",
          "name": "tokensAllocated",
          "type": "uint256"
        },
        {
          "internalType": "uint256",
          "name": "tokensLocked",
          "type": "uint256"
        },
        {
          "internalType": "uint256",
          "name": "tokensLockedUntil",
          "type": "uint256"
        }
      ],
      "stateMutability": "view",
      "type": "function"
    },
    {
      "inputs": [
        {
          "internalType": "uint256",
          "name": "_tokens",
          "type": "uint256"
        }
      ],
      "name": "unstake",
      "outputs": [],
      "stateMutability": "nonpayable",
      "type": "function"
    },
    {
      "inputs": [],
      "name": "withdraw",
      "outputs": [],
      "stateMutability": "nonpayable",
      "type": "function"
    }
  ],
  "bytecode": "0x60806040523480156200001157600080fd5b5060405162005c9e38038062005c9e83398181016040528101906200003791906200029e565b83600160006101000a81548173ffffffffffffffffffffffffffffffffffffffff021916908373ffffffffffffffffffffffffffffffffffffffff16021790555082600260006101000a81548173ffffffffffffffffffffffffffffffffffffffff021916908373ffffffffffffffffffffffffffffffffffffffff160217905550336000806101000a81548173ffffffffffffffffffffffffffffffffffffffff021916908373ffffffffffffffffffffffffffffffffffffffff1602179055506200010a826200012560201b60201c565b6200011b81620001a460201b60201c565b5050505062000429565b600081116200016b576040517f08c379a0000000000000000000000000000000000000000000000000000000008152600401620001629062000331565b60405180910390fd5b806004819055506004547f4ae07ff10245d5c3330b9a15e8c6b8644ea81b656ff7d5428edda75e77d061cd60405160405180910390a250565b60008163ffffffff1611620001f0576040517f08c379a0000000000000000000000000000000000000000000000000000000008152600401620001e79062000331565b60405180910390fd5b80600560006101000a81548163ffffffff021916908363ffffffff160217905550600560009054906101000a900463ffffffff1663ffffffff167f4cabd6339016cba9857f365bca7bc3c7e1976823b85052fd7281d313f52c8ae860405160405180910390a250565b6000815190506200026a81620003db565b92915050565b6000815190506200028181620003f5565b92915050565b60008151905062000298816200040f565b92915050565b60008060008060808587031215620002b557600080fd5b6000620002c58782880162000259565b9450506020620002d88782880162000259565b9350506040620002eb8782880162000270565b9250506060620002fe8782880162000287565b91505092959194509250565b60006200031960198362000353565b91506200032682620003b2565b602082019050919050565b600060208201905081810360008301526200034c816200030a565b9050919050565b600082825260208201905092915050565b6000620003718262000378565b9050919050565b600073ffffffffffffffffffffffffffffffffffffffff82169050919050565b6000819050919050565b600063ffffffff82169050919050565b7f4d757374206265206120706f736974697665206e756d62657200000000000000600082015250565b620003e68162000364565b8114620003f257600080fd5b50565b620004008162000398565b81146200040c57600080fd5b50565b6200041a81620003a2565b81146200042657600080fd5b50565b61586580620004396000396000f3fe608060405234801561001057600080fd5b50600436106101c45760003560e01c80639068cbf3116100f9578063b87fcbff11610097578063e74f823911610071578063e74f823914610545578063ec5ffac214610561578063f1d60d661461057f578063f489f23b146105af576101c4565b8063b87fcbff146104c7578063bdd1daaa146104f7578063e73e14bf14610515576101c4565b80639bbc77b0116100d35780639bbc77b01461042f578063a23c44b11461045f578063a694fc3a1461048f578063b78b52df146104ab576101c4565b80639068cbf3146103b35780639761d50a146103e357806398c657dc146103ff576101c4565b80633fd8b02f1161016657806366666aa91161014057806366666aa91461033f57806368f39a071461035d57806378238c37146103795780638da5cb5b14610395576101c4565b80633fd8b02f146102bd57806352a9039c146102db57806363c28db11461030f576101c4565b80631af963aa116101a25780631af963aa1461024b578063233e99031461027b5780632e17de78146102975780633ccfd60b146102b3576101c4565b80630e022923146101c957806316934fc4146101f9578063196214d31461022d575b600080fd5b6101e360048036038101906101de919061481b565b6105cb565b6040516101f091906150e1565b60405180910390f35b610213600480360381019061020e919061481b565b6105e3565b604051610224959493929190614e8c565b60405180910390f35b610235610626565b6040516102429190614d88565b60405180910390f35b6102656004803603810190610260919061481b565b61064c565b6040516102729190614e56565b60405180910390f35b61029560048036038101906102909190614999565b610758565b005b6102b160048036038101906102ac9190614999565b6107f2565b005b6102bb610fd0565b005b6102c561138d565b6040516102d2919061515b565b60405180910390f35b6102f560048036038101906102f0919061481b565b6113a3565b604051610306959493929190614dda565b60405180910390f35b6103296004803603810190610324919061481b565b611419565b6040516103369190615117565b60405180910390f35b610347611465565b6040516103549190614d88565b60405180910390f35b6103776004803603810190610372919061481b565b61148b565b005b610393600480360381019061038e919061481b565b611849565b005b61039d6118e3565b6040516103aa9190614d88565b60405180910390f35b6103cd60048036038101906103c89190614893565b611907565b6040516103da9190614e56565b60405180910390f35b6103fd60048036038101906103f89190614893565b611a85565b005b6104196004803603810190610414919061481b565b611e7f565b6040516104269190614e71565b60405180910390f35b6104496004803603810190610444919061495d565b611e91565b6040516104569190614d88565b60405180910390f35b6104796004803603810190610474919061481b565b611edf565b60405161048691906150fc565b60405180910390f35b6104a960048036038101906104a49190614999565b611fe7565b005b6104c560048036038101906104c091906148cf565b61268d565b005b6104e160048036038101906104dc919061481b565b612a4e565b6040516104ee9190614e56565b60405180910390f35b6104ff612a6e565b60405161050c9190614d88565b60405180910390f35b61052f600480360381019061052a919061481b565b612a94565b60405161053c9190614e56565b60405180910390f35b61055f600480360381019061055a9190614844565b612ae2565b005b610569613020565b6040516105769190615117565b60405180910390f35b6105996004803603810190610594919061481b565b613026565b6040516105a69190614e56565b60405180910390f35b6105c960048036038101906105c491906149c2565b6130ab565b005b6105d36146db565b6105dc82613145565b9050919050565b60066020528060005260406000206000915090508060000160009054906101000a900460ff16908060010154908060020154908060030154908060040154905085565b600160009054906101000a900473ffffffffffffffffffffffffffffffffffffffff1681565b600080610750600660008573ffffffffffffffffffffffffffffffffffffffff1673ffffffffffffffffffffffffffffffffffffffff1681526020019081526020016000206040518060a00160405290816000820160009054906101000a900460ff1660058111156106e7577f4e487b7100000000000000000000000000000000000000000000000000000000600052602160045260246000fd5b600581111561071f577f4e487b7100000000000000000000000000000000000000000000000000000000600052602160045260246000fd5b8152602001600182015481526020016002820154815260200160038201548152602001600482015481525050613268565b119050919050565b3373ffffffffffffffffffffffffffffffffffffffff1660008054906101000a900473ffffffffffffffffffffffffffffffffffffffff1673ffffffffffffffffffffffffffffffffffffffff16146107e6576040517f08c379a00000000000000000000000000000000000000000000000000000000081526004016107dd906150c1565b60405180910390fd5b6107ef81613290565b50565b336000600660008373ffffffffffffffffffffffffffffffffffffffff1673ffffffffffffffffffffffffffffffffffffffff1681526020019081526020016000206040518060a00160405290816000820160009054906101000a900460ff16600581111561088a577f4e487b7100000000000000000000000000000000000000000000000000000000600052602160045260246000fd5b60058111156108c2577f4e487b7100000000000000000000000000000000000000000000000000000000600052602160045260246000fd5b815260200160018201548152602001600282015481526020016003820154815260200160048201548152505090506001600581111561092a577f4e487b7100000000000000000000000000000000000000000000000000000000600052602160045260246000fd5b81600001516005811115610967577f4e487b7100000000000000000000000000000000000000000000000000000000600052602160045260246000fd5b14806109e75750600260058111156109a8577f4e487b7100000000000000000000000000000000000000000000000000000000600052602160045260246000fd5b816000015160058111156109e5577f4e487b7100000000000000000000000000000000000000000000000000000000600052602160045260246000fd5b145b80610a66575060036005811115610a27577f4e487b7100000000000000000000000000000000000000000000000000000000600052602160045260246000fd5b81600001516005811115610a64577f4e487b7100000000000000000000000000000000000000000000000000000000600052602160045260246000fd5b145b80610ae5575060046005811115610aa6577f4e487b7100000000000000000000000000000000000000000000000000000000600052602160045260246000fd5b81600001516005811115610ae3577f4e487b7100000000000000000000000000000000000000000000000000000000600052602160045260246000fd5b145b80610b635750600580811115610b24577f4e487b7100000000000000000000000000000000000000000000000000000000600052602160045260246000fd5b81600001516005811115610b61577f4e487b7100000000000000000000000000000000000000000000000000000000600052602160045260246000fd5b145b610ba2576040517f08c379a0000000000000000000000000000000000000000000000000000000008152600401610b9990614f21565b60405180910390fd5b6000600660003373ffffffffffffffffffffffffffffffffffffffff1673ffffffffffffffffffffffffffffffffffffffff16815260200190815260200160002090506000816001015411610c2c576040517f08c379a0000000000000000000000000000000000000000000000000000000008152600401610c2390614fe1565b60405180910390fd5b6000610cfa610cf4836040518060a00160405290816000820160009054906101000a900460ff166005811115610c8b577f4e487b7100000000000000000000000000000000000000000000000000000000600052602160045260246000fd5b6005811115610cc3577f4e487b7100000000000000000000000000000000000000000000000000000000600052602160045260246000fd5b8152602001600182015481526020016002820154815260200160038201548152602001600482015481525050613268565b8661330c565b905060008111610d3f576040517f08c379a0000000000000000000000000000000000000000000000000000000008152600401610d3690614fe1565b60405180910390fd5b6000610e1682610e08856040518060a00160405290816000820160009054906101000a900460ff166005811115610d9f577f4e487b7100000000000000000000000000000000000000000000000000000000600052602160045260246000fd5b6005811115610dd7577f4e487b7100000000000000000000000000000000000000000000000000000000600052602160045260246000fd5b8152602001600182015481526020016002820154815260200160038201548152602001600482015481525050613325565b61334990919063ffffffff16565b90506000811480610e2957506004548110155b610e68576040517f08c379a0000000000000000000000000000000000000000000000000000000008152600401610e5f90614fa1565b60405180910390fd5b6000610f2d846040518060a00160405290816000820160009054906101000a900460ff166005811115610ec4577f4e487b7100000000000000000000000000000000000000000000000000000000600052602160045260246000fd5b6005811115610efc577f4e487b7100000000000000000000000000000000000000000000000000000000600052602160045260246000fd5b8152602001600182015481526020016002820154815260200160038201548152602001600482015481525050613393565b90506000811115610f4257610f41336133c5565b5b610f6f83600560009054906101000a900463ffffffff1663ffffffff168661355b9092919063ffffffff16565b3373ffffffffffffffffffffffffffffffffffffffff167fa5ae833d0bb1dcd632d98a8b70973e8516812898e19bf27b70071ebc8dc52c0185600301548660040154604051610fbf929190615132565b60405180910390a250505050505050565b336000600660008373ffffffffffffffffffffffffffffffffffffffff1673ffffffffffffffffffffffffffffffffffffffff1681526020019081526020016000206040518060a00160405290816000820160009054906101000a900460ff166005811115611068577f4e487b7100000000000000000000000000000000000000000000000000000000600052602160045260246000fd5b60058111156110a0577f4e487b7100000000000000000000000000000000000000000000000000000000600052602160045260246000fd5b8152602001600182015481526020016002820154815260200160038201548152602001600482015481525050905060016005811115611108577f4e487b7100000000000000000000000000000000000000000000000000000000600052602160045260246000fd5b81600001516005811115611145577f4e487b7100000000000000000000000000000000000000000000000000000000600052602160045260246000fd5b14806111c5575060026005811115611186577f4e487b7100000000000000000000000000000000000000000000000000000000600052602160045260246000fd5b816000015160058111156111c3577f4e487b7100000000000000000000000000000000000000000000000000000000600052602160045260246000fd5b145b80611244575060036005811115611205577f4e487b7100000000000000000000000000000000000000000000000000000000600052602160045260246000fd5b81600001516005811115611242577f4e487b7100000000000000000000000000000000000000000000000000000000600052602160045260246000fd5b145b806112c3575060046005811115611284577f4e487b7100000000000000000000000000000000000000000000000000000000600052602160045260246000fd5b816000015160058111156112c1577f4e487b7100000000000000000000000000000000000000000000000000000000600052602160045260246000fd5b145b806113415750600580811115611302577f4e487b7100000000000000000000000000000000000000000000000000000000600052602160045260246000fd5b8160000151600581111561133f577f4e487b7100000000000000000000000000000000000000000000000000000000600052602160045260246000fd5b145b611380576040517f08c379a000000000000000000000000000000000000000000000000000000000815260040161137790614f21565b60405180910390fd5b611389336133c5565b5050565b600560009054906101000a900463ffffffff1681565b60086020528060005260406000206000915090508060000160009054906101000a900473ffffffffffffffffffffffffffffffffffffffff16908060010160009054906101000a900473ffffffffffffffffffffffffffffffffffffffff16908060020154908060030154908060040154905085565b6000600660008373ffffffffffffffffffffffffffffffffffffffff1673ffffffffffffffffffffffffffffffffffffffff168152602001908152602001600020600101549050919050565b600360009054906101000a900473ffffffffffffffffffffffffffffffffffffffff1681565b336000600660008373ffffffffffffffffffffffffffffffffffffffff1673ffffffffffffffffffffffffffffffffffffffff1681526020019081526020016000206040518060a00160405290816000820160009054906101000a900460ff166005811115611523577f4e487b7100000000000000000000000000000000000000000000000000000000600052602160045260246000fd5b600581111561155b577f4e487b7100000000000000000000000000000000000000000000000000000000600052602160045260246000fd5b81526020016001820154815260200160028201548152602001600382015481526020016004820154815250509050600160058111156115c3577f4e487b7100000000000000000000000000000000000000000000000000000000600052602160045260246000fd5b81600001516005811115611600577f4e487b7100000000000000000000000000000000000000000000000000000000600052602160045260246000fd5b1480611680575060026005811115611641577f4e487b7100000000000000000000000000000000000000000000000000000000600052602160045260246000fd5b8160000151600581111561167e577f4e487b7100000000000000000000000000000000000000000000000000000000600052602160045260246000fd5b145b806116ff5750600360058111156116c0577f4e487b7100000000000000000000000000000000000000000000000000000000600052602160045260246000fd5b816000015160058111156116fd577f4e487b7100000000000000000000000000000000000000000000000000000000600052602160045260246000fd5b145b8061177e57506004600581111561173f577f4e487b7100000000000000000000000000000000000000000000000000000000600052602160045260246000fd5b8160000151600581111561177c577f4e487b7100000000000000000000000000000000000000000000000000000000600052602160045260246000fd5b145b806117fc57506005808111156117bd577f4e487b7100000000000000000000000000000000000000000000000000000000600052602160045260246000fd5b816000015160058111156117fa577f4e487b7100000000000000000000000000000000000000000000000000000000600052602160045260246000fd5b145b61183b576040517f08c379a000000000000000000000000000000000000000000000000000000000815260040161183290614f21565b60405180910390fd5b611844836135cd565b505050565b3373ffffffffffffffffffffffffffffffffffffffff1660008054906101000a900473ffffffffffffffffffffffffffffffffffffffff1673ffffffffffffffffffffffffffffffffffffffff16146118d7576040517f08c379a00000000000000000000000000000000000000000000000000000000081526004016118ce906150c1565b60405180910390fd5b6118e0816138d9565b50565b60008054906101000a900473ffffffffffffffffffffffffffffffffffffffff1681565b600080600660008573ffffffffffffffffffffffffffffffffffffffff1673ffffffffffffffffffffffffffffffffffffffff1681526020019081526020016000206040518060a00160405290816000820160009054906101000a900460ff16600581111561199f577f4e487b7100000000000000000000000000000000000000000000000000000000600052602160045260246000fd5b60058111156119d7577f4e487b7100000000000000000000000000000000000000000000000000000000600052602160045260246000fd5b81526020016001820154815260200160028201548152602001600382015481526020016004820154815250509050826005811115611a3e577f4e487b7100000000000000000000000000000000000000000000000000000000600052602160045260246000fd5b81600001516005811115611a7b577f4e487b7100000000000000000000000000000000000000000000000000000000600052602160045260246000fd5b1491505092915050565b3373ffffffffffffffffffffffffffffffffffffffff1660008054906101000a900473ffffffffffffffffffffffffffffffffffffffff1673ffffffffffffffffffffffffffffffffffffffff1614611b13576040517f08c379a0000000000000000000000000000000000000000000000000000000008152600401611b0a906150c1565b60405180910390fd5b600073ffffffffffffffffffffffffffffffffffffffff168273ffffffffffffffffffffffffffffffffffffffff161415611b83576040517f08c379a0000000000000000000000000000000000000000000000000000000008152600401611b7a90614fc1565b60405180910390fd5b3373ffffffffffffffffffffffffffffffffffffffff168273ffffffffffffffffffffffffffffffffffffffff161415611bf2576040517f08c379a0000000000000000000000000000000000000000000000000000000008152600401611be990615021565b60405180910390fd5b60006040518060a00160405280836005811115611c38577f4e487b7100000000000000000000000000000000000000000000000000000000600052602160045260246000fd5b81526020016000815260200160008152602001600081526020016000815250905080600660008573ffffffffffffffffffffffffffffffffffffffff1673ffffffffffffffffffffffffffffffffffffffff16815260200190815260200160002060008201518160000160006101000a81548160ff02191690836005811115611cea577f4e487b7100000000000000000000000000000000000000000000000000000000600052602160045260246000fd5b02179055506020820151816001015560408201518160020155606082015181600301556080820151816004015590505060076000836005811115611d57577f4e487b7100000000000000000000000000000000000000000000000000000000600052602160045260246000fd5b6005811115611d8f577f4e487b7100000000000000000000000000000000000000000000000000000000600052602160045260246000fd5b8152602001908152602001600020839080600181540180825580915050600190039060005260206000200160009091909190916101000a81548173ffffffffffffffffffffffffffffffffffffffff021916908373ffffffffffffffffffffffffffffffffffffffff160217905550816005811115611e37577f4e487b7100000000000000000000000000000000000000000000000000000000600052602160045260246000fd5b8373ffffffffffffffffffffffffffffffffffffffff167f56d32a096f281abcf1751094f92e01b9b71c2af7dd6609174101859be06cb9ea60405160405180910390a3505050565b6000611e8a826139d0565b9050919050565b60076020528160005260406000208181548110611ead57600080fd5b906000526020600020016000915091509054906101000a900473ffffffffffffffffffffffffffffffffffffffff1681565b611ee7614736565b600660008373ffffffffffffffffffffffffffffffffffffffff1673ffffffffffffffffffffffffffffffffffffffff1681526020019081526020016000206040518060a00160405290816000820160009054906101000a900460ff166005811115611f7c577f4e487b7100000000000000000000000000000000000000000000000000000000600052602160045260246000fd5b6005811115611fb4577f4e487b7100000000000000000000000000000000000000000000000000000000600052602160045260246000fd5b81526020016001820154815260200160028201548152602001600382015481526020016004820154815250509050919050565b336000600660008373ffffffffffffffffffffffffffffffffffffffff1673ffffffffffffffffffffffffffffffffffffffff1681526020019081526020016000206040518060a00160405290816000820160009054906101000a900460ff16600581111561207f577f4e487b7100000000000000000000000000000000000000000000000000000000600052602160045260246000fd5b60058111156120b7577f4e487b7100000000000000000000000000000000000000000000000000000000600052602160045260246000fd5b815260200160018201548152602001600282015481526020016003820154815260200160048201548152505090506001600581111561211f577f4e487b7100000000000000000000000000000000000000000000000000000000600052602160045260246000fd5b8160000151600581111561215c577f4e487b7100000000000000000000000000000000000000000000000000000000600052602160045260246000fd5b14806121dc57506002600581111561219d577f4e487b7100000000000000000000000000000000000000000000000000000000600052602160045260246000fd5b816000015160058111156121da577f4e487b7100000000000000000000000000000000000000000000000000000000600052602160045260246000fd5b145b8061225b57506003600581111561221c577f4e487b7100000000000000000000000000000000000000000000000000000000600052602160045260246000fd5b81600001516005811115612259577f4e487b7100000000000000000000000000000000000000000000000000000000600052602160045260246000fd5b145b806122da57506004600581111561229b577f4e487b7100000000000000000000000000000000000000000000000000000000600052602160045260246000fd5b816000015160058111156122d8577f4e487b7100000000000000000000000000000000000000000000000000000000600052602160045260246000fd5b145b806123585750600580811115612319577f4e487b7100000000000000000000000000000000000000000000000000000000600052602160045260246000fd5b81600001516005811115612356577f4e487b7100000000000000000000000000000000000000000000000000000000600052602160045260246000fd5b145b612397576040517f08c379a000000000000000000000000000000000000000000000000000000000815260040161238e90614f21565b60405180910390fd5b600083116123da576040517f08c379a00000000000000000000000000000000000000000000000000000000081526004016123d190614fe1565b60405180910390fd5b6004546124f0846124e2600660003373ffffffffffffffffffffffffffffffffffffffff1673ffffffffffffffffffffffffffffffffffffffff1681526020019081526020016000206040518060a00160405290816000820160009054906101000a900460ff166005811115612479577f4e487b7100000000000000000000000000000000000000000000000000000000600052602160045260246000fd5b60058111156124b1577f4e487b7100000000000000000000000000000000000000000000000000000000600052602160045260246000fd5b8152602001600182015481526020016002820154815260200160038201548152602001600482015481525050613325565b613cdb90919063ffffffff16565b1015612531576040517f08c379a000000000000000000000000000000000000000000000000000000000815260040161252890614fa1565b60405180910390fd5b6000600160009054906101000a900473ffffffffffffffffffffffffffffffffffffffff1690508073ffffffffffffffffffffffffffffffffffffffff166323b872dd3330876040518463ffffffff1660e01b815260040161259593929190614da3565b602060405180830381600087803b1580156125af57600080fd5b505af11580156125c3573d6000803e3d6000fd5b505050506040513d601f19601f820116820180604052508101906125e7919061490b565b5061263984600660003373ffffffffffffffffffffffffffffffffffffffff1673ffffffffffffffffffffffffffffffffffffffff168152602001908152602001600020613d3990919063ffffffff16565b3373ffffffffffffffffffffffffffffffffffffffff167f0a7bb2e28cc4698aac06db79cf9163bfcc20719286cf59fa7d492ceda1b8edc28560405161267f9190615117565b60405180910390a250505050565b336000600660008373ffffffffffffffffffffffffffffffffffffffff1673ffffffffffffffffffffffffffffffffffffffff1681526020019081526020016000206040518060a00160405290816000820160009054906101000a900460ff166005811115612725577f4e487b7100000000000000000000000000000000000000000000000000000000600052602160045260246000fd5b600581111561275d577f4e487b7100000000000000000000000000000000000000000000000000000000600052602160045260246000fd5b81526020016001820154815260200160028201548152602001600382015481526020016004820154815250509050600160058111156127c5577f4e487b7100000000000000000000000000000000000000000000000000000000600052602160045260246000fd5b81600001516005811115612802577f4e487b7100000000000000000000000000000000000000000000000000000000600052602160045260246000fd5b1480612882575060026005811115612843577f4e487b7100000000000000000000000000000000000000000000000000000000600052602160045260246000fd5b81600001516005811115612880577f4e487b7100000000000000000000000000000000000000000000000000000000600052602160045260246000fd5b145b806129015750600360058111156128c2577f4e487b7100000000000000000000000000000000000000000000000000000000600052602160045260246000fd5b816000015160058111156128ff577f4e487b7100000000000000000000000000000000000000000000000000000000600052602160045260246000fd5b145b80612980575060046005811115612941577f4e487b7100000000000000000000000000000000000000000000000000000000600052602160045260246000fd5b8160000151600581111561297e577f4e487b7100000000000000000000000000000000000000000000000000000000600052602160045260246000fd5b145b806129fe57506005808111156129bf577f4e487b7100000000000000000000000000000000000000000000000000000000600052602160045260246000fd5b816000015160058111156129fc577f4e487b7100000000000000000000000000000000000000000000000000000000600052602160045260246000fd5b145b612a3d576040517f08c379a0000000000000000000000000000000000000000000000000000000008152600401612a3490614f21565b60405180910390fd5b612a48338585613d5c565b50505050565b60096020528060005260406000206000915054906101000a900460ff1681565b600260009054906101000a900473ffffffffffffffffffffffffffffffffffffffff1681565b600080600660008473ffffffffffffffffffffffffffffffffffffffff1673ffffffffffffffffffffffffffffffffffffffff16815260200190815260200160002060010154119050919050565b336000600660008373ffffffffffffffffffffffffffffffffffffffff1673ffffffffffffffffffffffffffffffffffffffff1681526020019081526020016000206040518060a00160405290816000820160009054906101000a900460ff166005811115612b7a577f4e487b7100000000000000000000000000000000000000000000000000000000600052602160045260246000fd5b6005811115612bb2577f4e487b7100000000000000000000000000000000000000000000000000000000600052602160045260246000fd5b8152602001600182015481526020016002820154815260200160038201548152602001600482015481525050905060026005811115612c1a577f4e487b7100000000000000000000000000000000000000000000000000000000600052602160045260246000fd5b81600001516005811115612c57577f4e487b7100000000000000000000000000000000000000000000000000000000600052602160045260246000fd5b14612c97576040517f08c379a0000000000000000000000000000000000000000000000000000000008152600401612c8e90615061565b60405180910390fd5b600073ffffffffffffffffffffffffffffffffffffffff168473ffffffffffffffffffffffffffffffffffffffff161415612d07576040517f08c379a0000000000000000000000000000000000000000000000000000000008152600401612cfe90614fc1565b60405180910390fd5b6000600660008773ffffffffffffffffffffffffffffffffffffffff1673ffffffffffffffffffffffffffffffffffffffff16815260200190815260200160002090506000600860008773ffffffffffffffffffffffffffffffffffffffff1673ffffffffffffffffffffffffffffffffffffffff16815260200190815260200160002090506000816002015411612dd4576040517f08c379a0000000000000000000000000000000000000000000000000000000008152600401612dcb90614fe1565b60405180910390fd5b8060020154851115612e1b576040517f08c379a0000000000000000000000000000000000000000000000000000000008152600401612e1290614f81565b60405180910390fd5b612e2e858361421e90919063ffffffff16565b612e4585826002015461334990919063ffffffff16565b8160020181905550612e60858361424190919063ffffffff16565b6000600160009054906101000a900473ffffffffffffffffffffffffffffffffffffffff1690508073ffffffffffffffffffffffffffffffffffffffff1663a9059cbb600360009054906101000a900473ffffffffffffffffffffffffffffffffffffffff16886040518363ffffffff1660e01b8152600401612ee4929190614e2d565b602060405180830381600087803b158015612efe57600080fd5b505af1158015612f12573d6000803e3d6000fd5b505050506040513d601f19601f82011682018060405250810190612f36919061490b565b50600360009054906101000a900473ffffffffffffffffffffffffffffffffffffffff1673ffffffffffffffffffffffffffffffffffffffff1663d0ed26ae8833896040518463ffffffff1660e01b8152600401612f9693929190614da3565b600060405180830381600087803b158015612fb057600080fd5b505af1158015612fc4573d6000803e3d6000fd5b505050503373ffffffffffffffffffffffffffffffffffffffff167f83f5ea8bea7627d95274e94dd7e9e3d7e82cb55feab513ed49e325232dcc61e08760405161300e9190615117565b60405180910390a25050505050505050565b60045481565b6000806004811115613061577f4e487b7100000000000000000000000000000000000000000000000000000000600052602160045260246000fd5b61306a836139d0565b60048111156130a2577f4e487b7100000000000000000000000000000000000000000000000000000000600052602160045260246000fd5b14159050919050565b3373ffffffffffffffffffffffffffffffffffffffff1660008054906101000a900473ffffffffffffffffffffffffffffffffffffffff1673ffffffffffffffffffffffffffffffffffffffff1614613139576040517f08c379a0000000000000000000000000000000000000000000000000000000008152600401613130906150c1565b60405180910390fd5b61314281614264565b50565b61314d6146db565b600860008373ffffffffffffffffffffffffffffffffffffffff1673ffffffffffffffffffffffffffffffffffffffff1681526020019081526020016000206040518060a00160405290816000820160009054906101000a900473ffffffffffffffffffffffffffffffffffffffff1673ffffffffffffffffffffffffffffffffffffffff1673ffffffffffffffffffffffffffffffffffffffff1681526020016001820160009054906101000a900473ffffffffffffffffffffffffffffffffffffffff1673ffffffffffffffffffffffffffffffffffffffff1673ffffffffffffffffffffffffffffffffffffffff16815260200160028201548152602001600382015481526020016004820154815250509050919050565b600061328961327683614316565b836020015161334990919063ffffffff16565b9050919050565b600081116132d3576040517f08c379a00000000000000000000000000000000000000000000000000000000081526004016132ca90614fe1565b60405180910390fd5b806004819055506004547f4ae07ff10245d5c3330b9a15e8c6b8644ea81b656ff7d5428edda75e77d061cd60405160405180910390a250565b600081831061331b578161331d565b825b905092915050565b60006133428260600151836020015161334990919063ffffffff16565b9050919050565b600061338b83836040518060400160405280601e81526020017f536166654d6174683a207375627472616374696f6e206f766572666c6f77000081525061433a565b905092915050565b600080826080015114806133aa5750816080015143105b156133b857600090506133c0565b816060015190505b919050565b600061340e600660008473ffffffffffffffffffffffffffffffffffffffff1673ffffffffffffffffffffffffffffffffffffffff16815260200190815260200160002061439e565b905060008111613453576040517f08c379a000000000000000000000000000000000000000000000000000000000815260040161344a90615001565b60405180910390fd5b6000600160009054906101000a900473ffffffffffffffffffffffffffffffffffffffff1690508073ffffffffffffffffffffffffffffffffffffffff1663a9059cbb84846040518363ffffffff1660e01b81526004016134b5929190614e2d565b602060405180830381600087803b1580156134cf57600080fd5b505af11580156134e3573d6000803e3d6000fd5b505050506040513d601f19601f82011682018060405250810190613507919061490b565b508273ffffffffffffffffffffffffffffffffffffffff167f8108595eb6bad3acefa9da467d90cc2217686d5c5ac85460f8b7849c840645fc8360405161354e9190615117565b60405180910390a2505050565b600081905060008460030154111561358d5761358a61357e85600401544361449f565b856003015484866144cb565b90505b6135a4838560030154613cdb90919063ffffffff16565b84600301819055506135bf8143613cdb90919063ffffffff16565b846004018190555050505050565b60006135d8826139d0565b9050600480811115613613577f4e487b7100000000000000000000000000000000000000000000000000000000600052602160045260246000fd5b81600481111561364c577f4e487b7100000000000000000000000000000000000000000000000000000000600052602160045260246000fd5b1461368c576040517f08c379a0000000000000000000000000000000000000000000000000000000008152600401613683906150a1565b60405180910390fd5b6000600860008473ffffffffffffffffffffffffffffffffffffffff1673ffffffffffffffffffffffffffffffffffffffff1681526020019081526020016000206040518060a00160405290816000820160009054906101000a900473ffffffffffffffffffffffffffffffffffffffff1673ffffffffffffffffffffffffffffffffffffffff1673ffffffffffffffffffffffffffffffffffffffff1681526020016001820160009054906101000a900473ffffffffffffffffffffffffffffffffffffffff1673ffffffffffffffffffffffffffffffffffffffff1673ffffffffffffffffffffffffffffffffffffffff168152602001600282015481526020016003820154815260200160048201548152505090504381608001818152505060006137c28260800151836060015161449f565b905060008111613807576040517f08c379a00000000000000000000000000000000000000000000000000000000081526004016137fe90614f01565b60405180910390fd5b613860826040015160066000856020015173ffffffffffffffffffffffffffffffffffffffff1673ffffffffffffffffffffffffffffffffffffffff16815260200190815260200160002061421e90919063ffffffff16565b8373ffffffffffffffffffffffffffffffffffffffff16826020015173ffffffffffffffffffffffffffffffffffffffff167f9ec6f3fe8a57fd60609439a97d851e335d635eeb931fca0f26d5fc217936b3c6846040015185608001516040516138cb929190615132565b60405180910390a350505050565b600073ffffffffffffffffffffffffffffffffffffffff168173ffffffffffffffffffffffffffffffffffffffff161415613949576040517f08c379a000000000000000000000000000000000000000000000000000000000815260040161394090614fc1565b60405180910390fd5b80600360006101000a81548173ffffffffffffffffffffffffffffffffffffffff021916908373ffffffffffffffffffffffffffffffffffffffff1602179055508073ffffffffffffffffffffffffffffffffffffffff167f173d73afad648e625c4a53878536f7a2debed1f51a04f21d728bce3cf534fcc160405160405180910390a250565b600080600860008473ffffffffffffffffffffffffffffffffffffffff1673ffffffffffffffffffffffffffffffffffffffff1681526020019081526020016000209050600073ffffffffffffffffffffffffffffffffffffffff168160010160009054906101000a900473ffffffffffffffffffffffffffffffffffffffff1673ffffffffffffffffffffffffffffffffffffffff161415613a77576000915050613cd6565b600083905060008173ffffffffffffffffffffffffffffffffffffffff16634e69d5606040518163ffffffff1660e01b815260040160206040518083038186803b158015613ac457600080fd5b505afa158015613ad8573d6000803e3d6000fd5b505050506040513d601f19601f82011682018060405250810190613afc9190614934565b90506000836003015414158015613b17575060008360020154115b8015613b93575060016005811115613b58577f4e487b7100000000000000000000000000000000000000000000000000000000600052602160045260246000fd5b816005811115613b91577f4e487b7100000000000000000000000000000000000000000000000000000000600052602160045260246000fd5b145b15613ba45760019350505050613cd6565b60008360040154148015613c28575060006005811115613bed577f4e487b7100000000000000000000000000000000000000000000000000000000600052602160045260246000fd5b816005811115613c26577f4e487b7100000000000000000000000000000000000000000000000000000000600052602160045260246000fd5b145b15613c395760029350505050613cd6565b60008360040154118015613cbd575060046005811115613c82577f4e487b7100000000000000000000000000000000000000000000000000000000600052602160045260246000fd5b816005811115613cbb577f4e487b7100000000000000000000000000000000000000000000000000000000600052602160045260246000fd5b145b15613cce5760049350505050613cd6565b600393505050505b919050565b6000808284613cea9190615192565b905083811015613d2f576040517f08c379a0000000000000000000000000000000000000000000000000000000008152600401613d2690614f41565b60405180910390fd5b8091505092915050565b613d50818360010154613cdb90919063ffffffff16565b82600101819055505050565b600073ffffffffffffffffffffffffffffffffffffffff168273ffffffffffffffffffffffffffffffffffffffff161415613dcc576040517f08c379a0000000000000000000000000000000000000000000000000000000008152600401613dc390614fc1565b60405180910390fd5b80613ece600660003373ffffffffffffffffffffffffffffffffffffffff1673ffffffffffffffffffffffffffffffffffffffff1681526020019081526020016000206040518060a00160405290816000820160009054906101000a900460ff166005811115613e65577f4e487b7100000000000000000000000000000000000000000000000000000000600052602160045260246000fd5b6005811115613e9d577f4e487b7100000000000000000000000000000000000000000000000000000000600052602160045260246000fd5b8152602001600182015481526020016002820154815260200160038201548152602001600482015481525050613268565b1015613f0f576040517f08c379a0000000000000000000000000000000000000000000000000000000008152600401613f0690614f61565b60405180910390fd5b60008111613f52576040517f08c379a0000000000000000000000000000000000000000000000000000000008152600401613f4990614fe1565b60405180910390fd5b60006004811115613f8c577f4e487b7100000000000000000000000000000000000000000000000000000000600052602160045260246000fd5b613f95836139d0565b6004811115613fcd577f4e487b7100000000000000000000000000000000000000000000000000000000600052602160045260246000fd5b1461400d576040517f08c379a000000000000000000000000000000000000000000000000000000000815260040161400490615041565b60405180910390fd5b60006040518060a001604052808473ffffffffffffffffffffffffffffffffffffffff1681526020018573ffffffffffffffffffffffffffffffffffffffff1681526020018381526020014381526020016000815250905080600860008573ffffffffffffffffffffffffffffffffffffffff1673ffffffffffffffffffffffffffffffffffffffff16815260200190815260200160002060008201518160000160006101000a81548173ffffffffffffffffffffffffffffffffffffffff021916908373ffffffffffffffffffffffffffffffffffffffff16021790555060208201518160010160006101000a81548173ffffffffffffffffffffffffffffffffffffffff021916908373ffffffffffffffffffffffffffffffffffffffff1602179055506040820151816002015560608201518160030155608082015181600401559050506141a98160400151600660008773ffffffffffffffffffffffffffffffffffffffff1673ffffffffffffffffffffffffffffffffffffffff16815260200190815260200160002061453290919063ffffffff16565b8273ffffffffffffffffffffffffffffffffffffffff168473ffffffffffffffffffffffffffffffffffffffff167fe994fee7ff4d4c7994071d0b9ed626d9b41e4ed5c6126806241b1906a774a2a083604001518460600151604051614210929190615132565b60405180910390a350505050565b61423581836002015461334990919063ffffffff16565b82600201819055505050565b61425881836001015461334990919063ffffffff16565b82600101819055505050565b60008163ffffffff16116142ad576040517f08c379a00000000000000000000000000000000000000000000000000000000081526004016142a490614fe1565b60405180910390fd5b80600560006101000a81548163ffffffff021916908363ffffffff160217905550600560009054906101000a900463ffffffff1663ffffffff167f4cabd6339016cba9857f365bca7bc3c7e1976823b85052fd7281d313f52c8ae860405160405180910390a250565b600061433382606001518360400151613cdb90919063ffffffff16565b9050919050565b6000838311158290614382576040517f08c379a00000000000000000000000000000000000000000000000000000000081526004016143799190614edf565b60405180910390fd5b50600083856143919190615273565b9050809150509392505050565b600080614464836040518060a00160405290816000820160009054906101000a900460ff1660058111156143fb577f4e487b7100000000000000000000000000000000000000000000000000000000600052602160045260246000fd5b6005811115614433577f4e487b7100000000000000000000000000000000000000000000000000000000600052602160045260246000fd5b8152602001600182015481526020016002820154815260200160038201548152602001600482015481525050613393565b9050600081111561449657614482818461455590919063ffffffff16565b614495818461459090919063ffffffff16565b5b80915050919050565b60008183116144af5760006144c3565b6144c2828461334990919063ffffffff16565b5b905092915050565b60006145286144e38386613cdb90919063ffffffff16565b61451a6144f985876145b390919063ffffffff16565b61450c888a6145b390919063ffffffff16565b613cdb90919063ffffffff16565b61462e90919063ffffffff16565b9050949350505050565b614549818360020154613cdb90919063ffffffff16565b82600201819055505050565b61456c81836003015461334990919063ffffffff16565b826003018190555060008260030154141561458c57600082600401819055505b5050565b6145a781836001015461334990919063ffffffff16565b82600101819055505050565b6000808314156145c65760009050614628565b600082846145d49190615219565b90508284826145e391906151e8565b14614623576040517f08c379a000000000000000000000000000000000000000000000000000000000815260040161461a90615081565b60405180910390fd5b809150505b92915050565b600061467083836040518060400160405280601a81526020017f536166654d6174683a206469766973696f6e206279207a65726f000000000000815250614678565b905092915050565b600080831182906146bf576040517f08c379a00000000000000000000000000000000000000000000000000000000081526004016146b69190614edf565b60405180910390fd5b50600083856146ce91906151e8565b9050809150509392505050565b6040518060a00160405280600073ffffffffffffffffffffffffffffffffffffffff168152602001600073ffffffffffffffffffffffffffffffffffffffff1681526020016000815260200160008152602001600081525090565b6040518060a001604052806000600581111561477b577f4e487b7100000000000000000000000000000000000000000000000000000000600052602160045260246000fd5b8152602001600081526020016000815260200160008152602001600081525090565b6000813590506147ac816157b3565b92915050565b6000815190506147c1816157ca565b92915050565b6000815190506147d6816157e1565b92915050565b6000813590506147eb816157f1565b92915050565b60008135905061480081615801565b92915050565b60008135905061481581615818565b92915050565b60006020828403121561482d57600080fd5b600061483b8482850161479d565b91505092915050565b60008060006060848603121561485957600080fd5b60006148678682870161479d565b93505060206148788682870161479d565b9250506040614889868287016147f1565b9150509250925092565b600080604083850312156148a657600080fd5b60006148b48582860161479d565b92505060206148c5858286016147dc565b9150509250929050565b600080604083850312156148e257600080fd5b60006148f08582860161479d565b9250506020614901858286016147f1565b9150509250929050565b60006020828403121561491d57600080fd5b600061492b848285016147b2565b91505092915050565b60006020828403121561494657600080fd5b6000614954848285016147c7565b91505092915050565b6000806040838503121561497057600080fd5b600061497e858286016147dc565b925050602061498f858286016147f1565b9150509250929050565b6000602082840312156149ab57600080fd5b60006149b9848285016147f1565b91505092915050565b6000602082840312156149d457600080fd5b60006149e284828501614806565b91505092915050565b6149f4816152a7565b82525050565b614a03816152a7565b82525050565b614a12816152b9565b82525050565b614a2181615325565b82525050565b614a3081615337565b82525050565b614a3f81615337565b82525050565b6000614a5082615176565b614a5a8185615181565b9350614a6a818560208601615349565b614a7381615409565b840191505092915050565b6000614a8b602483615181565b9150614a968261541a565b604082019050919050565b6000614aae601683615181565b9150614ab982615469565b602082019050919050565b6000614ad1601b83615181565b9150614adc82615492565b602082019050919050565b6000614af4602a83615181565b9150614aff826154bb565b604082019050919050565b6000614b17602283615181565b9150614b228261550a565b604082019050919050565b6000614b3a602a83615181565b9150614b4582615559565b604082019050919050565b6000614b5d601783615181565b9150614b68826155a8565b602082019050919050565b6000614b80601983615181565b9150614b8b826155d1565b602082019050919050565b6000614ba3602c83615181565b9150614bae826155fa565b604082019050919050565b6000614bc6601983615181565b9150614bd182615649565b602082019050919050565b6000614be9601983615181565b9150614bf482615672565b602082019050919050565b6000614c0c601983615181565b9150614c178261569b565b602082019050919050565b6000614c2f602183615181565b9150614c3a826156c4565b604082019050919050565b6000614c52602183615181565b9150614c5d82615713565b604082019050919050565b6000614c75601583615181565b9150614c8082615762565b602082019050919050565b60a082016000820151614ca160008501826149eb565b506020820151614cb460208501826149eb565b506040820151614cc76040850182614d5b565b506060820151614cda6060850182614d5b565b506080820151614ced6080850182614d5b565b50505050565b60a082016000820151614d096000850182614a27565b506020820151614d1c6020850182614d5b565b506040820151614d2f6040850182614d5b565b506060820151614d426060850182614d5b565b506080820151614d556080850182614d5b565b50505050565b614d648161530b565b82525050565b614d738161530b565b82525050565b614d8281615315565b82525050565b6000602082019050614d9d60008301846149fa565b92915050565b6000606082019050614db860008301866149fa565b614dc560208301856149fa565b614dd26040830184614d6a565b949350505050565b600060a082019050614def60008301886149fa565b614dfc60208301876149fa565b614e096040830186614d6a565b614e166060830185614d6a565b614e236080830184614d6a565b9695505050505050565b6000604082019050614e4260008301856149fa565b614e4f6020830184614d6a565b9392505050565b6000602082019050614e6b6000830184614a09565b92915050565b6000602082019050614e866000830184614a18565b92915050565b600060a082019050614ea16000830188614a36565b614eae6020830187614d6a565b614ebb6040830186614d6a565b614ec86060830185614d6a565b614ed56080830184614d6a565b9695505050505050565b60006020820190508181036000830152614ef98184614a45565b905092915050565b60006020820190508181036000830152614f1a81614a7e565b9050919050565b60006020820190508181036000830152614f3a81614aa1565b9050919050565b60006020820190508181036000830152614f5a81614ac4565b9050919050565b60006020820190508181036000830152614f7a81614ae7565b9050919050565b60006020820190508181036000830152614f9a81614b0a565b9050919050565b60006020820190508181036000830152614fba81614b2d565b9050919050565b60006020820190508181036000830152614fda81614b50565b9050919050565b60006020820190508181036000830152614ffa81614b73565b9050919050565b6000602082019050818103600083015261501a81614b96565b9050919050565b6000602082019050818103600083015261503a81614bb9565b9050919050565b6000602082019050818103600083015261505a81614bdc565b9050919050565b6000602082019050818103600083015261507a81614bff565b9050919050565b6000602082019050818103600083015261509a81614c22565b9050919050565b600060208201905081810360008301526150ba81614c45565b9050919050565b600060208201905081810360008301526150da81614c68565b9050919050565b600060a0820190506150f66000830184614c8b565b92915050565b600060a0820190506151116000830184614cf3565b92915050565b600060208201905061512c6000830184614d6a565b92915050565b60006040820190506151476000830185614d6a565b6151546020830184614d6a565b9392505050565b60006020820190506151706000830184614d79565b92915050565b600081519050919050565b600082825260208201905092915050565b600061519d8261530b565b91506151a88361530b565b9250827fffffffffffffffffffffffffffffffffffffffffffffffffffffffffffffffff038211156151dd576151dc61537c565b5b828201905092915050565b60006151f38261530b565b91506151fe8361530b565b92508261520e5761520d6153ab565b5b828204905092915050565b60006152248261530b565b915061522f8361530b565b9250817fffffffffffffffffffffffffffffffffffffffffffffffffffffffffffffffff04831182151516156152685761526761537c565b5b828202905092915050565b600061527e8261530b565b91506152898361530b565b92508282101561529c5761529b61537c565b5b828203905092915050565b60006152b2826152eb565b9050919050565b60008115159050919050565b60008190506152d38261578b565b919050565b60008190506152e68261579f565b919050565b600073ffffffffffffffffffffffffffffffffffffffff82169050919050565b6000819050919050565b600063ffffffff82169050919050565b6000615330826152c5565b9050919050565b6000615342826152d8565b9050919050565b60005b8381101561536757808201518184015260208101905061534c565b83811115615376576000848401525b50505050565b7f4e487b7100000000000000000000000000000000000000000000000000000000600052601160045260246000fd5b7f4e487b7100000000000000000000000000000000000000000000000000000000600052601260045260246000fd5b7f4e487b7100000000000000000000000000000000000000000000000000000000600052602160045260246000fd5b6000601f19601f8301169050919050565b7f416c6c6f636174696f6e2063616e6e6f7420626520636c6f73656420736f206560008201527f61726c7900000000000000000000000000000000000000000000000000000000602082015250565b7f43616c6c6572206973206e6f742061207374616b657200000000000000000000600082015250565b7f536166654d6174683a206164646974696f6e206f766572666c6f770000000000600082015250565b7f496e73756666696369656e7420616d6f756e74206f6620746f6b656e7320696e60008201527f20746865207374616b6500000000000000000000000000000000000000000000602082015250565b7f536c61736820746f6b656e732065786365656420616c6c6f6361746564206f6e60008201527f6573000000000000000000000000000000000000000000000000000000000000602082015250565b7f546f74616c207374616b652069732062656c6f7720746865206d696e696d756d60008201527f207468726573686f6c6400000000000000000000000000000000000000000000602082015250565b7f4d75737420626520612076616c69642061646472657373000000000000000000600082015250565b7f4d757374206265206120706f736974697665206e756d62657200000000000000600082015250565b7f5374616b6520686173206e6f20617661696c61626c6520746f6b656e7320666f60008201527f72207769746864726177616c0000000000000000000000000000000000000000602082015250565b7f5374616b65722063616e6e6f74207365742068696d73656c6600000000000000600082015250565b7f416c6c6f636174696f6e20616c72656164792065786973747300000000000000600082015250565b7f43616c6c6572206973206e6f7420612076616c696461746f7200000000000000600082015250565b7f536166654d6174683a206d756c7469706c69636174696f6e206f766572666c6f60008201527f7700000000000000000000000000000000000000000000000000000000000000602082015250565b7f416c6c6f636174696f6e20686173206e6f20636f6d706c65746564207374617460008201527f6500000000000000000000000000000000000000000000000000000000000000602082015250565b7f43616c6c6572206973206e6f742061206f776e65720000000000000000000000600082015250565b6005811061579c5761579b6153da565b5b50565b600681106157b0576157af6153da565b5b50565b6157bc816152a7565b81146157c757600080fd5b50565b6157d3816152b9565b81146157de57600080fd5b50565b600681106157ee57600080fd5b50565b600681106157fe57600080fd5b50565b61580a8161530b565b811461581557600080fd5b50565b61582181615315565b811461582c57600080fd5b5056fea2646970667358221220d4897c2ddba787ebad9d660424e57cab1a0c4344ef0355dbe2a34e85da2a688c64736f6c63430008040033",
  "linkReferences": {},
  "deployedLinkReferences": {}
}